{
  "contractName": "Dragoncontract",
  "abi": [
    {
      "anonymous": false,
      "inputs": [
        {
          "indexed": false,
          "internalType": "address",
          "name": "owner",
          "type": "address"
        },
        {
          "indexed": false,
          "internalType": "uint256",
          "name": "dragonId",
          "type": "uint256"
        },
        {
          "indexed": false,
          "internalType": "uint256",
          "name": "genes",
          "type": "uint256"
        },
        {
          "indexed": false,
          "internalType": "uint256",
          "name": "dadId",
          "type": "uint256"
        },
        {
          "indexed": false,
          "internalType": "uint256",
          "name": "momId",
          "type": "uint256"
        }
      ],
      "name": "Birth",
      "type": "event"
    },
    {
      "anonymous": false,
      "inputs": [
        {
          "indexed": true,
          "internalType": "address",
          "name": "from",
          "type": "address"
        },
        {
          "indexed": true,
          "internalType": "address",
          "name": "to",
          "type": "address"
        },
        {
          "indexed": true,
          "internalType": "uint256",
          "name": "tokenId",
          "type": "uint256"
        }
      ],
      "name": "Transfer",
      "type": "event"
    },
    {
      "constant": true,
      "inputs": [],
      "name": "gen0CreationLimit",
      "outputs": [
        {
          "internalType": "uint256",
          "name": "",
          "type": "uint256"
        }
      ],
      "payable": false,
      "stateMutability": "view",
      "type": "function"
    },
    {
      "constant": true,
      "inputs": [],
      "name": "gen0Total",
      "outputs": [
        {
          "internalType": "uint256",
          "name": "",
          "type": "uint256"
        }
      ],
      "payable": false,
      "stateMutability": "view",
      "type": "function"
    },
    {
      "constant": true,
      "inputs": [
        {
          "internalType": "uint256",
          "name": "_tokenId",
          "type": "uint256"
        }
      ],
      "name": "getDragon",
      "outputs": [
        {
          "internalType": "uint256",
          "name": "genes",
          "type": "uint256"
        },
        {
          "internalType": "uint256",
          "name": "birthTime",
          "type": "uint256"
        },
        {
          "internalType": "uint256",
          "name": "dadId",
          "type": "uint256"
        },
        {
          "internalType": "uint256",
          "name": "momId",
          "type": "uint256"
        },
        {
          "internalType": "uint256",
          "name": "generation",
          "type": "uint256"
        },
        {
          "internalType": "address",
          "name": "owner",
          "type": "address"
        }
      ],
      "payable": false,
      "stateMutability": "view",
      "type": "function"
    },
    {
      "constant": false,
      "inputs": [
        {
          "internalType": "uint256",
          "name": "_genes",
          "type": "uint256"
        }
      ],
      "name": "createDragonGen0",
      "outputs": [],
      "payable": false,
      "stateMutability": "nonpayable",
      "type": "function"
    },
    {
      "constant": true,
      "inputs": [],
      "name": "name",
      "outputs": [
        {
          "internalType": "string",
          "name": "tokenName",
          "type": "string"
        }
      ],
      "payable": false,
      "stateMutability": "view",
      "type": "function"
    },
    {
      "constant": true,
      "inputs": [],
      "name": "symbol",
      "outputs": [
        {
          "internalType": "string",
          "name": "tokenSymbol",
          "type": "string"
        }
      ],
      "payable": false,
      "stateMutability": "view",
      "type": "function"
    },
    {
      "constant": true,
      "inputs": [
        {
          "internalType": "address",
          "name": "_owner",
          "type": "address"
        }
      ],
      "name": "balanceOf",
      "outputs": [
        {
          "internalType": "uint256",
          "name": "balance",
          "type": "uint256"
        }
      ],
      "payable": false,
      "stateMutability": "view",
      "type": "function"
    },
    {
      "constant": true,
      "inputs": [],
      "name": "totalSupply",
      "outputs": [
        {
          "internalType": "uint256",
          "name": "total",
          "type": "uint256"
        }
      ],
      "payable": false,
      "stateMutability": "view",
      "type": "function"
    },
    {
      "constant": true,
      "inputs": [
        {
          "internalType": "uint256",
          "name": "_tokenId",
          "type": "uint256"
        }
      ],
      "name": "ownerOf",
      "outputs": [
        {
          "internalType": "address",
          "name": "owner",
          "type": "address"
        }
      ],
      "payable": false,
      "stateMutability": "view",
      "type": "function"
    },
    {
      "constant": false,
      "inputs": [
        {
          "internalType": "address",
          "name": "_to",
          "type": "address"
        },
        {
          "internalType": "uint256",
          "name": "_tokenId",
          "type": "uint256"
        }
      ],
      "name": "transfer",
      "outputs": [],
      "payable": false,
      "stateMutability": "nonpayable",
      "type": "function"
    }
  ],
  "bytecode": "0x6080604052336000806101000a81548173ffffffffffffffffffffffffffffffffffffffff021916908373ffffffffffffffffffffffffffffffffffffffff1602179055506110ea806100536000396000f3fe608060405234801561001057600080fd5b506004361061009e5760003560e01c806370a082311161006657806370a08231146101ee57806395d89b41146102465780639c542e1c146102c9578063a9059cbb146102f7578063e0bb933b146103455761009e565b806306fdde03146100a357806318160ddd146101265780631e19fa3314610144578063404d0e3e146101625780636352211e14610180575b600080fd5b6100ab6103d6565b6040518080602001828103825283818151815260200191508051906020019080838360005b838110156100eb5780820151818401526020810190506100d0565b50505050905090810190601f1680156101185780820380516001836020036101000a031916815260200191505b509250505060405180910390f35b61012e610413565b6040518082815260200191505060405180910390f35b61014c610420565b6040518082815260200191505060405180910390f35b61016a610426565b6040518082815260200191505060405180910390f35b6101ac6004803603602081101561019657600080fd5b810190808035906020019092919050505061042b565b604051808273ffffffffffffffffffffffffffffffffffffffff1673ffffffffffffffffffffffffffffffffffffffff16815260200191505060405180910390f35b6102306004803603602081101561020457600080fd5b81019080803573ffffffffffffffffffffffffffffffffffffffff1690602001909291905050506104e2565b6040518082815260200191505060405180910390f35b61024e61052b565b6040518080602001828103825283818151815260200191508051906020019080838360005b8381101561028e578082015181840152602081019050610273565b50505050905090810190601f1680156102bb5780820380516001836020036101000a031916815260200191505b509250505060405180910390f35b6102f5600480360360208110156102df57600080fd5b8101908080359060200190929190505050610568565b005b6103436004803603604081101561030d57600080fd5b81019080803573ffffffffffffffffffffffffffffffffffffffff1690602001909291908035906020019092919050505061068d565b005b6103716004803603602081101561035b57600080fd5b8101908080359060200190929190505050610823565b604051808781526020018681526020018581526020018481526020018381526020018273ffffffffffffffffffffffffffffffffffffffff1673ffffffffffffffffffffffffffffffffffffffff168152602001965050505050505060405180910390f35b60606040518060400160405280600d81526020017f4d61726b7573447261676f6e7300000000000000000000000000000000000000815250905090565b6000600180549050905090565b60045481565b600a81565b600060018054905082106104a7576040517f08c379a00000000000000000000000000000000000000000000000000000000081526004018080602001828103825260148152602001807f546f6b656e20646f6573206e6f7420657869737400000000000000000000000081525060200191505060405180910390fd5b6002600083815260200190815260200160002060009054906101000a900473ffffffffffffffffffffffffffffffffffffffff169050919050565b6000600360008373ffffffffffffffffffffffffffffffffffffffff1673ffffffffffffffffffffffffffffffffffffffff168152602001908152602001600020549050919050565b60606040518060400160405280600281526020017f4d44000000000000000000000000000000000000000000000000000000000000815250905090565b3373ffffffffffffffffffffffffffffffffffffffff166000809054906101000a900473ffffffffffffffffffffffffffffffffffffffff1673ffffffffffffffffffffffffffffffffffffffff161461060d576040517f08c379a000000000000000000000000000000000000000000000000000000000815260040180806020018281038252602681526020018061101e6026913960400191505060405180910390fd5b600a60045410610668576040517f08c379a00000000000000000000000000000000000000000000000000000000081526004018080602001828103825260288152602001806110446028913960400191505060405180910390fd5b600460008154809291906001019190505550610689816000806000336109f2565b5050565b600073ffffffffffffffffffffffffffffffffffffffff168273ffffffffffffffffffffffffffffffffffffffff161415610713576040517f08c379a000000000000000000000000000000000000000000000000000000000815260040180806020018281038252602381526020018061106c6023913960400191505060405180910390fd5b3073ffffffffffffffffffffffffffffffffffffffff168273ffffffffffffffffffffffffffffffffffffffff161415610798576040517f08c379a000000000000000000000000000000000000000000000000000000000815260040180806020018281038252602781526020018061108f6027913960400191505060405180910390fd5b6107a23382610bc3565b610814576040517f08c379a000000000000000000000000000000000000000000000000000000000815260040180806020018281038252601d8152602001807f746f6b656e206d757374206265206f776e65642062792073656e64657200000081525060200191505060405180910390fd5b61081f338383610c2f565b5050565b60008060008060008060018054905087106108a6576040517f08c379a00000000000000000000000000000000000000000000000000000000081526004018080602001828103825260148152602001807f546f6b656e20646f6573206e6f7420657869737400000000000000000000000081525060200191505060405180910390fd5b600187815481106108b357fe5b906000526020600020906002020160000154600188815481106108d257fe5b906000526020600020906002020160010160009054906101000a900467ffffffffffffffff166001898154811061090557fe5b906000526020600020906002020160010160089054906101000a900463ffffffff1660018a8154811061093457fe5b9060005260206000209060020201600101600c9054906101000a900463ffffffff1660018b8154811061096357fe5b906000526020600020906002020160010160109054906101000a900461ffff16600260008d815260200190815260200160002060009054906101000a900473ffffffffffffffffffffffffffffffffffffffff168467ffffffffffffffff1694508363ffffffff1693508263ffffffff1692508161ffff16915095509550955095509550955091939550919395565b60006109fc610fd4565b6040518060a001604052808881526020014267ffffffffffffffff1681526020018763ffffffff1681526020018663ffffffff1681526020018561ffff1681525090506000600180549050905060018083908060018154018082558091505090600182039060005260206000209060020201600090919290919091506000820151816000015560208201518160010160006101000a81548167ffffffffffffffff021916908367ffffffffffffffff16021790555060408201518160010160086101000a81548163ffffffff021916908363ffffffff160217905550606082015181600101600c6101000a81548163ffffffff021916908363ffffffff16021790555060808201518160010160106101000a81548161ffff021916908361ffff160217905550505050507f0a5311bd2a6608f08a180df2ee7c5946819a649b204b554bb8e39825b2c50ad584828a898b604051808673ffffffffffffffffffffffffffffffffffffffff1673ffffffffffffffffffffffffffffffffffffffff1681526020018581526020018481526020018381526020018281526020019550505050505060405180910390a1610bb560008583610c2f565b809250505095945050505050565b60006002600083815260200190815260200160002060009054906101000a900473ffffffffffffffffffffffffffffffffffffffff1673ffffffffffffffffffffffffffffffffffffffff168373ffffffffffffffffffffffffffffffffffffffff1614905092915050565b610c826001600360008573ffffffffffffffffffffffffffffffffffffffff1673ffffffffffffffffffffffffffffffffffffffff16815260200190815260200160002054610e4290919063ffffffff16565b600360008473ffffffffffffffffffffffffffffffffffffffff1673ffffffffffffffffffffffffffffffffffffffff16815260200190815260200160002081905550816002600083815260200190815260200160002060006101000a81548173ffffffffffffffffffffffffffffffffffffffff021916908373ffffffffffffffffffffffffffffffffffffffff160217905550600073ffffffffffffffffffffffffffffffffffffffff168373ffffffffffffffffffffffffffffffffffffffff1614610de257610d9e6001600360008673ffffffffffffffffffffffffffffffffffffffff1673ffffffffffffffffffffffffffffffffffffffff16815260200190815260200160002054610eca90919063ffffffff16565b600360008573ffffffffffffffffffffffffffffffffffffffff1673ffffffffffffffffffffffffffffffffffffffff168152602001908152602001600020819055505b808273ffffffffffffffffffffffffffffffffffffffff168473ffffffffffffffffffffffffffffffffffffffff167fddf252ad1be2c89b69c2b068fc378daa952ba7f163c4a11628f55a4df523b3ef60405160405180910390a4505050565b600080828401905083811015610ec0576040517f08c379a000000000000000000000000000000000000000000000000000000000815260040180806020018281038252601b8152602001807f536166654d6174683a206164646974696f6e206f766572666c6f77000000000081525060200191505060405180910390fd5b8091505092915050565b6000610f0c83836040518060400160405280601e81526020017f536166654d6174683a207375627472616374696f6e206f766572666c6f770000815250610f14565b905092915050565b6000838311158290610fc1576040517f08c379a00000000000000000000000000000000000000000000000000000000081526004018080602001828103825283818151815260200191508051906020019080838360005b83811015610f86578082015181840152602081019050610f6b565b50505050905090810190601f168015610fb35780820380516001836020036101000a031916815260200191505b509250505060405180910390fd5b5060008385039050809150509392505050565b6040518060a0016040528060008152602001600067ffffffffffffffff168152602001600063ffffffff168152602001600063ffffffff168152602001600061ffff168152509056fe596f7520617265206e6f7420746865206f776e6572206f66207468697320636f6e7472616374546865206c696d6974206f662067656e65726174696f6e203020647261676f6e732069733a20313063616e6e6f74207472616e7366657220746f20746865207a65726f206164647265737363616e6e6f74207472616e7366657220746f2074686520636f6e74726163742061646472657373a265627a7a72315820bf6713c96331fe1a9abcc2ca33c0ad84becc5f359ad4c44cb39c9f76c6be1df364736f6c634300050c0032",
  "source": "pragma solidity ^0.5.12;\r\n\r\nimport \"./IERC721.sol\";\r\nimport \"./Safemath.sol\";\r\nimport \"./Ownable.sol\";\r\n\r\ncontract Dragoncontract is IERC721, Ownable {\r\n\r\n  using SafeMath for uint256;\r\n\r\n  uint256 public constant gen0CreationLimit = 10;\r\n  string private constant nameOfToken = \"MarkusDragons\";\r\n  string private constant symbolOfToken = \"MD\";\r\n\r\n  event Birth(\r\n    address owner,\r\n    uint256 dragonId,\r\n    uint256 genes,\r\n    uint256 dadId,\r\n    uint256 momId\r\n  );\r\n\r\n  struct Dragon {\r\n    uint256 genes;\r\n    uint64 birthTime;\r\n    uint32 dadId;\r\n    uint32 momId;\r\n    uint16 generation;\r\n  }\r\n\r\n  Dragon[] private dragons;\r\n\r\n  mapping(uint256 => address) private dragonOwners;\r\n  mapping(address => uint256) private tokenBalances;\r\n\r\n  uint256 public gen0Total;\r\n\r\n  function getDragon(uint256 _tokenId) external view returns (\r\n    uint256 genes,\r\n    uint256 birthTime,\r\n    uint256 dadId,\r\n    uint256 momId,\r\n    uint256 generation,\r\n    address owner) {\r\n      require(_tokenId < dragons.length, \"Token does not exist\");\r\n      return (\r\n        dragons[_tokenId].genes,\r\n        dragons[_tokenId].birthTime,\r\n        dragons[_tokenId].dadId,\r\n        dragons[_tokenId].momId,\r\n        dragons[_tokenId].generation,\r\n        dragonOwners[_tokenId]\r\n      );\r\n    }\r\n\r\n  function createDragonGen0(uint256 _genes) external onlyOwner {\r\n    require(gen0Total < gen0CreationLimit, \"The limit of generation 0 dragons is: 10\");\r\n\r\n    gen0Total++;\r\n\r\n    _createDragon(_genes, 0, 0, 0, msg.sender);\r\n  }\r\n\r\n  function _createDragon(\r\n    uint256 _genes,\r\n    uint256 _dadId,\r\n    uint256 _momId,\r\n    uint256 _generation,\r\n    address _owner\r\n  ) private returns (uint256) {\r\n      Dragon memory _dragon = Dragon(_genes, uint64(now), uint32(_dadId), uint32(_momId), uint16(_generation));\r\n\r\n      uint256 newDragonId = dragons.length;\r\n      dragons.push(_dragon) - 1;\r\n\r\n      emit Birth(_owner, newDragonId, _genes, _momId, _dadId);\r\n\r\n      _transfer(address(0), _owner, newDragonId);\r\n\r\n      return newDragonId;\r\n  }\r\n\r\n  function name() external view returns (string memory tokenName) {\r\n    return nameOfToken;\r\n  }\r\n\r\n  function symbol() external view returns (string memory tokenSymbol) {\r\n    return symbolOfToken;\r\n  }\r\n\r\n  function balanceOf(address _owner) external view returns (uint256 balance) {\r\n    return tokenBalances[_owner];\r\n  }\r\n\r\n  function totalSupply() external view returns (uint256 total) {\r\n    return dragons.length;\r\n  }\r\n\r\n  function ownerOf(uint256 _tokenId) external view returns (address owner) {\r\n    require(_tokenId < dragons.length, \"Token does not exist\");\r\n    return dragonOwners[_tokenId];\r\n  }\r\n\r\n  function transfer(address _to, uint256 _tokenId) external {\r\n    require(_to != address(0), \"cannot transfer to the zero address\");\r\n    require(_to != address(this), \"cannot transfer to the contract address\");\r\n    require(_owns(msg.sender, _tokenId), \"token must be owned by sender\");\r\n\r\n    _transfer(msg.sender, _to, _tokenId);\r\n  }\r\n\r\n  function _transfer(address _from, address _to, uint256 _tokenId) private {\r\n    tokenBalances[_to] = tokenBalances[_to].add(1);\r\n\r\n    dragonOwners[_tokenId] = _to;\r\n\r\n    if (_from != address(0)) {\r\n      tokenBalances[_from] = tokenBalances[_from].sub(1);\r\n    }\r\n\r\n    emit Transfer(_from, _to, _tokenId);\r\n  }\r\n\r\n  function _owns(address _claimant, uint256 _tokenId) internal view returns (bool) {\r\n    return _claimant == dragonOwners[_tokenId];\r\n  }\r\n}\r\n",
  "sourcePath": "C:\\Crypto-Dragons\\contracts\\Dragoncontract.sol",
  "compiler": {
    "name": "solc",
    "version": "0.5.12+commit.7709ece9.Emscripten.clang"
  },
  "schemaVersion": "3.2.0",
  "updatedAt": "2021-03-03T20:16:35.506Z",
  "networkType": "ethereum",
  "devdoc": {
    "methods": {}
  },
  "userdoc": {
    "methods": {}
  }
}