{
  "contractName": "Dragoncontract",
  "abi": [
    {
      "anonymous": false,
      "inputs": [
        {
          "indexed": true,
          "internalType": "address",
          "name": "owner",
          "type": "address"
        },
        {
          "indexed": true,
          "internalType": "address",
          "name": "approved",
          "type": "address"
        },
        {
          "indexed": true,
          "internalType": "uint256",
          "name": "tokenId",
          "type": "uint256"
        }
      ],
      "name": "Approval",
      "type": "event"
    },
    {
      "anonymous": false,
      "inputs": [
        {
          "indexed": true,
          "internalType": "address",
          "name": "owner",
          "type": "address"
        },
        {
          "indexed": true,
          "internalType": "address",
          "name": "operator",
          "type": "address"
        },
        {
          "indexed": false,
          "internalType": "bool",
          "name": "approved",
          "type": "bool"
        }
      ],
      "name": "ApprovalForAll",
      "type": "event"
    },
    {
      "anonymous": false,
      "inputs": [
        {
          "indexed": false,
          "internalType": "address",
          "name": "owner",
          "type": "address"
        },
        {
          "indexed": false,
          "internalType": "uint256",
          "name": "dragonId",
          "type": "uint256"
        },
        {
          "indexed": false,
          "internalType": "uint256",
          "name": "genes",
          "type": "uint256"
        },
        {
          "indexed": false,
          "internalType": "uint256",
          "name": "dadId",
          "type": "uint256"
        },
        {
          "indexed": false,
          "internalType": "uint256",
          "name": "momId",
          "type": "uint256"
        }
      ],
      "name": "Birth",
      "type": "event"
    },
    {
      "anonymous": false,
      "inputs": [
        {
          "indexed": true,
          "internalType": "address",
          "name": "from",
          "type": "address"
        },
        {
          "indexed": true,
          "internalType": "address",
          "name": "to",
          "type": "address"
        },
        {
          "indexed": true,
          "internalType": "uint256",
          "name": "tokenId",
          "type": "uint256"
        }
      ],
      "name": "Transfer",
      "type": "event"
    },
    {
      "constant": true,
      "inputs": [],
      "name": "gen0CreationLimit",
      "outputs": [
        {
          "internalType": "uint256",
          "name": "",
          "type": "uint256"
        }
      ],
      "payable": false,
      "stateMutability": "view",
      "type": "function"
    },
    {
      "constant": true,
      "inputs": [],
      "name": "gen0Total",
      "outputs": [
        {
          "internalType": "uint256",
          "name": "",
          "type": "uint256"
        }
      ],
      "payable": false,
      "stateMutability": "view",
      "type": "function"
    },
    {
      "constant": false,
      "inputs": [
        {
          "internalType": "uint256",
          "name": "_dadId",
          "type": "uint256"
        },
        {
          "internalType": "uint256",
          "name": "_momId",
          "type": "uint256"
        }
      ],
      "name": "breed",
      "outputs": [
        {
          "internalType": "uint256",
          "name": "",
          "type": "uint256"
        }
      ],
      "payable": false,
      "stateMutability": "nonpayable",
      "type": "function"
    },
    {
      "constant": true,
      "inputs": [
        {
          "internalType": "bytes4",
          "name": "_interfaceId",
          "type": "bytes4"
        }
      ],
      "name": "supportsInterface",
      "outputs": [
        {
          "internalType": "bool",
          "name": "",
          "type": "bool"
        }
      ],
      "payable": false,
      "stateMutability": "pure",
      "type": "function"
    },
    {
      "constant": true,
      "inputs": [
        {
          "internalType": "uint256",
          "name": "_tokenId",
          "type": "uint256"
        }
      ],
      "name": "getDragon",
      "outputs": [
        {
          "internalType": "uint256",
          "name": "genes",
          "type": "uint256"
        },
        {
          "internalType": "uint256",
          "name": "birthTime",
          "type": "uint256"
        },
        {
          "internalType": "uint256",
          "name": "dadId",
          "type": "uint256"
        },
        {
          "internalType": "uint256",
          "name": "momId",
          "type": "uint256"
        },
        {
          "internalType": "uint256",
          "name": "generation",
          "type": "uint256"
        },
        {
          "internalType": "address",
          "name": "owner",
          "type": "address"
        }
      ],
      "payable": false,
      "stateMutability": "view",
      "type": "function"
    },
    {
      "constant": true,
      "inputs": [],
      "name": "allOwnedDragons",
      "outputs": [
        {
          "internalType": "uint256[]",
          "name": "",
          "type": "uint256[]"
        }
      ],
      "payable": false,
      "stateMutability": "view",
      "type": "function"
    },
    {
      "constant": false,
      "inputs": [
        {
          "internalType": "uint256",
          "name": "_genes",
          "type": "uint256"
        }
      ],
      "name": "createDragonGen0",
      "outputs": [],
      "payable": false,
      "stateMutability": "nonpayable",
      "type": "function"
    },
    {
      "constant": true,
      "inputs": [],
      "name": "name",
      "outputs": [
        {
          "internalType": "string",
          "name": "tokenName",
          "type": "string"
        }
      ],
      "payable": false,
      "stateMutability": "view",
      "type": "function"
    },
    {
      "constant": true,
      "inputs": [],
      "name": "symbol",
      "outputs": [
        {
          "internalType": "string",
          "name": "tokenSymbol",
          "type": "string"
        }
      ],
      "payable": false,
      "stateMutability": "view",
      "type": "function"
    },
    {
      "constant": true,
      "inputs": [
        {
          "internalType": "address",
          "name": "_owner",
          "type": "address"
        }
      ],
      "name": "balanceOf",
      "outputs": [
        {
          "internalType": "uint256",
          "name": "balance",
          "type": "uint256"
        }
      ],
      "payable": false,
      "stateMutability": "view",
      "type": "function"
    },
    {
      "constant": true,
      "inputs": [],
      "name": "totalSupply",
      "outputs": [
        {
          "internalType": "uint256",
          "name": "total",
          "type": "uint256"
        }
      ],
      "payable": false,
      "stateMutability": "view",
      "type": "function"
    },
    {
      "constant": true,
      "inputs": [
        {
          "internalType": "uint256",
          "name": "_tokenId",
          "type": "uint256"
        }
      ],
      "name": "ownerOf",
      "outputs": [
        {
          "internalType": "address",
          "name": "owner",
          "type": "address"
        }
      ],
      "payable": false,
      "stateMutability": "view",
      "type": "function"
    },
    {
      "constant": false,
      "inputs": [
        {
          "internalType": "address",
          "name": "_to",
          "type": "address"
        },
        {
          "internalType": "uint256",
          "name": "_tokenId",
          "type": "uint256"
        }
      ],
      "name": "transfer",
      "outputs": [],
      "payable": false,
      "stateMutability": "nonpayable",
      "type": "function"
    },
    {
      "constant": false,
      "inputs": [
        {
          "internalType": "address",
          "name": "_approved",
          "type": "address"
        },
        {
          "internalType": "uint256",
          "name": "_tokenId",
          "type": "uint256"
        }
      ],
      "name": "approve",
      "outputs": [],
      "payable": false,
      "stateMutability": "nonpayable",
      "type": "function"
    },
    {
      "constant": false,
      "inputs": [
        {
          "internalType": "address",
          "name": "_operator",
          "type": "address"
        },
        {
          "internalType": "bool",
          "name": "_approved",
          "type": "bool"
        }
      ],
      "name": "setApprovalForAll",
      "outputs": [],
      "payable": false,
      "stateMutability": "nonpayable",
      "type": "function"
    },
    {
      "constant": true,
      "inputs": [
        {
          "internalType": "uint256",
          "name": "_tokenId",
          "type": "uint256"
        }
      ],
      "name": "getApproved",
      "outputs": [
        {
          "internalType": "address",
          "name": "",
          "type": "address"
        }
      ],
      "payable": false,
      "stateMutability": "view",
      "type": "function"
    },
    {
      "constant": true,
      "inputs": [
        {
          "internalType": "address",
          "name": "_owner",
          "type": "address"
        },
        {
          "internalType": "address",
          "name": "_operator",
          "type": "address"
        }
      ],
      "name": "isApprovedForAll",
      "outputs": [
        {
          "internalType": "bool",
          "name": "",
          "type": "bool"
        }
      ],
      "payable": false,
      "stateMutability": "view",
      "type": "function"
    },
    {
      "constant": false,
      "inputs": [
        {
          "internalType": "address",
          "name": "_from",
          "type": "address"
        },
        {
          "internalType": "address",
          "name": "_to",
          "type": "address"
        },
        {
          "internalType": "uint256",
          "name": "_tokenId",
          "type": "uint256"
        }
      ],
      "name": "safeTransferFrom",
      "outputs": [],
      "payable": false,
      "stateMutability": "nonpayable",
      "type": "function"
    },
    {
      "constant": false,
      "inputs": [
        {
          "internalType": "address",
          "name": "_from",
          "type": "address"
        },
        {
          "internalType": "address",
          "name": "_to",
          "type": "address"
        },
        {
          "internalType": "uint256",
          "name": "_tokenId",
          "type": "uint256"
        },
        {
          "internalType": "bytes",
          "name": "_data",
          "type": "bytes"
        }
      ],
      "name": "safeTransferFrom",
      "outputs": [],
      "payable": false,
      "stateMutability": "nonpayable",
      "type": "function"
    },
    {
      "constant": false,
      "inputs": [
        {
          "internalType": "address",
          "name": "_from",
          "type": "address"
        },
        {
          "internalType": "address",
          "name": "_to",
          "type": "address"
        },
        {
          "internalType": "uint256",
          "name": "_tokenId",
          "type": "uint256"
        }
      ],
      "name": "transferFrom",
      "outputs": [],
      "payable": false,
      "stateMutability": "nonpayable",
      "type": "function"
    }
  ],
  "bytecode": "0x6080604052336000806101000a81548173ffffffffffffffffffffffffffffffffffffffff021916908373ffffffffffffffffffffffffffffffffffffffff160217905550612558806100536000396000f3fe608060405234801561001057600080fd5b506004361061012c5760003560e01c806370a08231116100ad578063b88d4fde11610071578063b88d4fde14610620578063d72cfb8c14610725578063d9ecad7b14610784578063e0bb933b146107d0578063e985e9c5146108615761012c565b806370a082311461047957806395d89b41146104d15780639c542e1c14610554578063a22cb46514610582578063a9059cbb146105d25761012c565b80631e19fa33116100f45780631e19fa33146102f357806323b872dd14610311578063404d0e3e1461037f57806342842e0e1461039d5780636352211e1461040b5761012c565b806301ffc9a71461013157806306fdde0314610196578063081812fc14610219578063095ea7b31461028757806318160ddd146102d5575b600080fd5b61017c6004803603602081101561014757600080fd5b8101908080357bffffffffffffffffffffffffffffffffffffffffffffffffffffffff191690602001909291905050506108dd565b604051808215151515815260200191505060405180910390f35b61019e61097d565b6040518080602001828103825283818151815260200191508051906020019080838360005b838110156101de5780820151818401526020810190506101c3565b50505050905090810190601f16801561020b5780820380516001836020036101000a031916815260200191505b509250505060405180910390f35b6102456004803603602081101561022f57600080fd5b81019080803590602001909291905050506109ba565b604051808273ffffffffffffffffffffffffffffffffffffffff1673ffffffffffffffffffffffffffffffffffffffff16815260200191505060405180910390f35b6102d36004803603604081101561029d57600080fd5b81019080803573ffffffffffffffffffffffffffffffffffffffff16906020019092919080359060200190929190505050610a71565b005b6102dd610bde565b6040518082815260200191505060405180910390f35b6102fb610beb565b6040518082815260200191505060405180910390f35b61037d6004803603606081101561032757600080fd5b81019080803573ffffffffffffffffffffffffffffffffffffffff169060200190929190803573ffffffffffffffffffffffffffffffffffffffff16906020019092919080359060200190929190505050610bf1565b005b610387610c16565b6040518082815260200191505060405180910390f35b610409600480360360608110156103b357600080fd5b81019080803573ffffffffffffffffffffffffffffffffffffffff169060200190929190803573ffffffffffffffffffffffffffffffffffffffff16906020019092919080359060200190929190505050610c1b565b005b6104376004803603602081101561042157600080fd5b8101908080359060200190929190505050610c3b565b604051808273ffffffffffffffffffffffffffffffffffffffff1673ffffffffffffffffffffffffffffffffffffffff16815260200191505060405180910390f35b6104bb6004803603602081101561048f57600080fd5b81019080803573ffffffffffffffffffffffffffffffffffffffff169060200190929190505050610cf2565b6040518082815260200191505060405180910390f35b6104d9610d3b565b6040518080602001828103825283818151815260200191508051906020019080838360005b838110156105195780820151818401526020810190506104fe565b50505050905090810190601f1680156105465780820380516001836020036101000a031916815260200191505b509250505060405180910390f35b6105806004803603602081101561056a57600080fd5b8101908080359060200190929190505050610d78565b005b6105d06004803603604081101561059857600080fd5b81019080803573ffffffffffffffffffffffffffffffffffffffff169060200190929190803515159060200190929190505050610e9d565b005b61061e600480360360408110156105e857600080fd5b81019080803573ffffffffffffffffffffffffffffffffffffffff169060200190929190803590602001909291905050506110fd565b005b6107236004803603608081101561063657600080fd5b81019080803573ffffffffffffffffffffffffffffffffffffffff169060200190929190803573ffffffffffffffffffffffffffffffffffffffff169060200190929190803590602001909291908035906020019064010000000081111561069d57600080fd5b8201836020820111156106af57600080fd5b803590602001918460018302840111640100000000831117156106d157600080fd5b91908080601f016020809104026020016040519081016040528093929190818152602001838380828437600081840152601f19601f820116905080830192505050505050509192919290505050611188565b005b61072d6111af565b6040518080602001828103825283818151815260200191508051906020019060200280838360005b83811015610770578082015181840152602081019050610755565b505050509050019250505060405180910390f35b6107ba6004803603604081101561079a57600080fd5b8101908080359060200190929190803590602001909291905050506112cc565b6040518082815260200191505060405180910390f35b6107fc600480360360208110156107e657600080fd5b810190808035906020019092919050505061140d565b604051808781526020018681526020018581526020018481526020018381526020018273ffffffffffffffffffffffffffffffffffffffff1673ffffffffffffffffffffffffffffffffffffffff168152602001965050505050505060405180910390f35b6108c36004803603604081101561087757600080fd5b81019080803573ffffffffffffffffffffffffffffffffffffffff169060200190929190803573ffffffffffffffffffffffffffffffffffffffff1690602001909291905050506115dc565b604051808215151515815260200191505060405180910390f35b60006380ac58cd60e01b7bffffffffffffffffffffffffffffffffffffffffffffffffffffffff1916827bffffffffffffffffffffffffffffffffffffffffffffffffffffffff1916148061097657506301ffc9a760e01b7bffffffffffffffffffffffffffffffffffffffffffffffffffffffff1916827bffffffffffffffffffffffffffffffffffffffffffffffffffffffff1916145b9050919050565b60606040518060400160405280600d81526020017f4d61726b7573447261676f6e7300000000000000000000000000000000000000815250905090565b60006001805490508210610a36576040517f08c379a00000000000000000000000000000000000000000000000000000000081526004018080602001828103825260148152602001807f546f6b656e20646f6573206e6f7420657869737400000000000000000000000081525060200191505060405180910390fd5b6004600083815260200190815260200160002060009054906101000a900473ffffffffffffffffffffffffffffffffffffffff169050919050565b600073ffffffffffffffffffffffffffffffffffffffff168273ffffffffffffffffffffffffffffffffffffffff161415610af7576040517f08c379a000000000000000000000000000000000000000000000000000000000815260040180806020018281038252602481526020018061245e6024913960400191505060405180910390fd5b6001805490508110610b71576040517f08c379a00000000000000000000000000000000000000000000000000000000081526004018080602001828103825260148152602001807f546f6b656e20646f6573206e6f7420657869737400000000000000000000000081525060200191505060405180910390fd5b610b7b3382611670565b610bd0576040517f08c379a00000000000000000000000000000000000000000000000000000000081526004018080602001828103825260268152602001806124386026913960400191505060405180910390fd5b610bda82826116dc565b5050565b6000600180549050905090565b60065481565b610bfd3384848461178d565b610c0657600080fd5b610c11838383611965565b505050565b600a81565b610c3683838360405180602001604052806000815250611188565b505050565b60006001805490508210610cb7576040517f08c379a00000000000000000000000000000000000000000000000000000000081526004018080602001828103825260148152602001807f546f6b656e20646f6573206e6f7420657869737400000000000000000000000081525060200191505060405180910390fd5b6002600083815260200190815260200160002060009054906101000a900473ffffffffffffffffffffffffffffffffffffffff169050919050565b6000600360008373ffffffffffffffffffffffffffffffffffffffff1673ffffffffffffffffffffffffffffffffffffffff168152602001908152602001600020549050919050565b60606040518060400160405280600281526020017f4d44000000000000000000000000000000000000000000000000000000000000815250905090565b3373ffffffffffffffffffffffffffffffffffffffff166000809054906101000a900473ffffffffffffffffffffffffffffffffffffffff1673ffffffffffffffffffffffffffffffffffffffff1614610e1d576040517f08c379a00000000000000000000000000000000000000000000000000000000081526004018080602001828103825260268152602001806124126026913960400191505060405180910390fd5b600a60065410610e78576040517f08c379a00000000000000000000000000000000000000000000000000000000081526004018080602001828103825260288152602001806124826028913960400191505060405180910390fd5b600660008154809291906001019190505550610e9981600080600033611bae565b5050565b3373ffffffffffffffffffffffffffffffffffffffff166000809054906101000a900473ffffffffffffffffffffffffffffffffffffffff1673ffffffffffffffffffffffffffffffffffffffff1614610f42576040517f08c379a00000000000000000000000000000000000000000000000000000000081526004018080602001828103825260268152602001806124126026913960400191505060405180910390fd5b3373ffffffffffffffffffffffffffffffffffffffff168273ffffffffffffffffffffffffffffffffffffffff161415610fc7576040517f08c379a00000000000000000000000000000000000000000000000000000000081526004018080602001828103825260238152602001806123c86023913960400191505060405180910390fd5b600073ffffffffffffffffffffffffffffffffffffffff168273ffffffffffffffffffffffffffffffffffffffff16141561106a576040517f08c379a00000000000000000000000000000000000000000000000000000000081526004018080602001828103825260208152602001807f4f70657261746f722063616e6e6f74206265207468652030206164647265737381525060200191505060405180910390fd5b3073ffffffffffffffffffffffffffffffffffffffff168273ffffffffffffffffffffffffffffffffffffffff1614156110ef576040517f08c379a00000000000000000000000000000000000000000000000000000000081526004018080602001828103825260278152602001806124d16027913960400191505060405180910390fd5b6110f98282611d7f565b5050565b6111073382611670565b611179576040517f08c379a000000000000000000000000000000000000000000000000000000000815260040180806020018281038252601d8152602001807f546f6b656e206d757374206265206f776e65642062792073656e64657200000081525060200191505060405180910390fd5b611184338383611965565b5050565b6111943385858561178d565b61119d57600080fd5b6111a984848484611e80565b50505050565b606080600360003373ffffffffffffffffffffffffffffffffffffffff1673ffffffffffffffffffffffffffffffffffffffff168152602001908152602001600020546040519080825280602002602001820160405280156112205781602001602082028038833980820191505090505b50905060008090505b6001805490508110156112c4573373ffffffffffffffffffffffffffffffffffffffff166002600083815260200190815260200160002060009054906101000a900473ffffffffffffffffffffffffffffffffffffffff1673ffffffffffffffffffffffffffffffffffffffff1614156112b757808282815181106112aa57fe5b6020026020010181815250505b8080600101915050611229565b508091505090565b60006112d83384611670565b80156112ea57506112e93383611670565b5b61133f576040517f08c379a000000000000000000000000000000000000000000000000000000000815260040180806020018281038252602c8152602001806124f8602c913960400191505060405180910390fd5b60006113876001858154811061135157fe5b9060005260206000209060020201600001546001858154811061137057fe5b906000526020600020906002020160000154611ef2565b905060006113f56001868154811061139b57fe5b906000526020600020906002020160010160109054906101000a900461ffff1661ffff16600186815481106113cc57fe5b906000526020600020906002020160010160109054906101000a900461ffff1661ffff16611f33565b90506114048286868433611bae565b50505092915050565b6000806000806000806001805490508710611490576040517f08c379a00000000000000000000000000000000000000000000000000000000081526004018080602001828103825260148152602001807f546f6b656e20646f6573206e6f7420657869737400000000000000000000000081525060200191505060405180910390fd5b6001878154811061149d57fe5b906000526020600020906002020160000154600188815481106114bc57fe5b906000526020600020906002020160010160009054906101000a900467ffffffffffffffff16600189815481106114ef57fe5b906000526020600020906002020160010160089054906101000a900463ffffffff1660018a8154811061151e57fe5b9060005260206000209060020201600101600c9054906101000a900463ffffffff1660018b8154811061154d57fe5b906000526020600020906002020160010160109054906101000a900461ffff16600260008d815260200190815260200160002060009054906101000a900473ffffffffffffffffffffffffffffffffffffffff168467ffffffffffffffff1694508363ffffffff1693508263ffffffff1692508161ffff16915095509550955095509550955091939550919395565b6000600560008473ffffffffffffffffffffffffffffffffffffffff1673ffffffffffffffffffffffffffffffffffffffff16815260200190815260200160002060008373ffffffffffffffffffffffffffffffffffffffff1673ffffffffffffffffffffffffffffffffffffffff16815260200190815260200160002060009054906101000a900460ff16905092915050565b60006002600083815260200190815260200160002060009054906101000a900473ffffffffffffffffffffffffffffffffffffffff1673ffffffffffffffffffffffffffffffffffffffff168373ffffffffffffffffffffffffffffffffffffffff1614905092915050565b816004600083815260200190815260200160002060006101000a81548173ffffffffffffffffffffffffffffffffffffffff021916908373ffffffffffffffffffffffffffffffffffffffff160217905550808273ffffffffffffffffffffffffffffffffffffffff163373ffffffffffffffffffffffffffffffffffffffff167f8c5be1e5ebec7d5bd14f71427d1e84f3dd0314c0f7b2291e5b200ac8c7c3b92560405160405180910390a45050565b60008073ffffffffffffffffffffffffffffffffffffffff168373ffffffffffffffffffffffffffffffffffffffff161415611831576040517f08c379a000000000000000000000000000000000000000000000000000000000815260040180806020018281038252601c8152602001807f43616e6e6f74207472616e7366657220746f203020616464726573730000000081525060200191505060405180910390fd5b60018054905082106118ab576040517f08c379a00000000000000000000000000000000000000000000000000000000081526004018080602001828103825260148152602001807f546f6b656e20646f6573206e6f7420657869737400000000000000000000000081525060200191505060405180910390fd5b6118b58483611670565b61190a576040517f08c379a00000000000000000000000000000000000000000000000000000000081526004018080602001828103825260278152602001806123eb6027913960400191505060405180910390fd5b8373ffffffffffffffffffffffffffffffffffffffff168573ffffffffffffffffffffffffffffffffffffffff16148061194a57506119498583611f54565b5b8061195b575061195a84866115dc565b5b9050949350505050565b6119b86001600360008573ffffffffffffffffffffffffffffffffffffffff1673ffffffffffffffffffffffffffffffffffffffff16815260200190815260200160002054611fc090919063ffffffff16565b600360008473ffffffffffffffffffffffffffffffffffffffff1673ffffffffffffffffffffffffffffffffffffffff16815260200190815260200160002081905550816002600083815260200190815260200160002060006101000a81548173ffffffffffffffffffffffffffffffffffffffff021916908373ffffffffffffffffffffffffffffffffffffffff160217905550600073ffffffffffffffffffffffffffffffffffffffff168373ffffffffffffffffffffffffffffffffffffffff1614611b4e57611ad46001600360008673ffffffffffffffffffffffffffffffffffffffff1673ffffffffffffffffffffffffffffffffffffffff1681526020019081526020016000205461204890919063ffffffff16565b600360008573ffffffffffffffffffffffffffffffffffffffff1673ffffffffffffffffffffffffffffffffffffffff168152602001908152602001600020819055506004600082815260200190815260200160002060006101000a81549073ffffffffffffffffffffffffffffffffffffffff02191690555b808273ffffffffffffffffffffffffffffffffffffffff168473ffffffffffffffffffffffffffffffffffffffff167fddf252ad1be2c89b69c2b068fc378daa952ba7f163c4a11628f55a4df523b3ef60405160405180910390a4505050565b6000611bb861234f565b6040518060a001604052808881526020014267ffffffffffffffff1681526020018763ffffffff1681526020018663ffffffff1681526020018561ffff1681525090506000600180549050905060018083908060018154018082558091505090600182039060005260206000209060020201600090919290919091506000820151816000015560208201518160010160006101000a81548167ffffffffffffffff021916908367ffffffffffffffff16021790555060408201518160010160086101000a81548163ffffffff021916908363ffffffff160217905550606082015181600101600c6101000a81548163ffffffff021916908363ffffffff16021790555060808201518160010160106101000a81548161ffff021916908361ffff160217905550505050507f0a5311bd2a6608f08a180df2ee7c5946819a649b204b554bb8e39825b2c50ad584828a898b604051808673ffffffffffffffffffffffffffffffffffffffff1673ffffffffffffffffffffffffffffffffffffffff1681526020018581526020018481526020018381526020018281526020019550505050505060405180910390a1611d7160008583611965565b809250505095945050505050565b80600560003373ffffffffffffffffffffffffffffffffffffffff1673ffffffffffffffffffffffffffffffffffffffff16815260200190815260200160002060008473ffffffffffffffffffffffffffffffffffffffff1673ffffffffffffffffffffffffffffffffffffffff16815260200190815260200160002060006101000a81548160ff0219169083151502179055508173ffffffffffffffffffffffffffffffffffffffff163373ffffffffffffffffffffffffffffffffffffffff167f17307eab39ab6107e8899845ad3d59bd9653f200f220920489ca2b5937696c3183604051808215151515815260200191505060405180910390a35050565b611e8b848484611965565b611e9784848484612092565b611eec576040517f08c379a00000000000000000000000000000000000000000000000000000000081526004018080602001828103825260278152602001806124aa6027913960400191505060405180910390fd5b50505050565b6000806305f5e1008481611f0257fe5b04905060006305f5e1008481611f1457fe5b06905060006305f5e10083029050818101905080935050505092915050565b6000818310611f4757600183019050611f4e565b6001820190505b92915050565b60006004600083815260200190815260200160002060009054906101000a900473ffffffffffffffffffffffffffffffffffffffff1673ffffffffffffffffffffffffffffffffffffffff168373ffffffffffffffffffffffffffffffffffffffff1614905092915050565b60008082840190508381101561203e576040517f08c379a000000000000000000000000000000000000000000000000000000000815260040180806020018281038252601b8152602001807f536166654d6174683a206164646974696f6e206f766572666c6f77000000000081525060200191505060405180910390fd5b8091505092915050565b600061208a83836040518060400160405280601e81526020017f536166654d6174683a207375627472616374696f6e206f766572666c6f770000815250612276565b905092915050565b600061209d84612336565b6120aa576001905061226e565b60008473ffffffffffffffffffffffffffffffffffffffff1663150b7a02338887876040518563ffffffff1660e01b8152600401808573ffffffffffffffffffffffffffffffffffffffff1673ffffffffffffffffffffffffffffffffffffffff1681526020018473ffffffffffffffffffffffffffffffffffffffff1673ffffffffffffffffffffffffffffffffffffffff16815260200183815260200180602001828103825283818151815260200191508051906020019080838360005b8381101561218557808201518184015260208101905061216a565b50505050905090810190601f1680156121b25780820380516001836020036101000a031916815260200191505b5095505050505050602060405180830381600087803b1580156121d457600080fd5b505af11580156121e8573d6000803e3d6000fd5b505050506040513d60208110156121fe57600080fd5b810190808051906020019092919050505090506040518080612399602f9139602f01905060405180910390207bffffffffffffffffffffffffffffffffffffffffffffffffffffffff1916817bffffffffffffffffffffffffffffffffffffffffffffffffffffffff1916149150505b949350505050565b6000838311158290612323576040517f08c379a00000000000000000000000000000000000000000000000000000000081526004018080602001828103825283818151815260200191508051906020019080838360005b838110156122e85780820151818401526020810190506122cd565b50505050905090810190601f1680156123155780820380516001836020036101000a031916815260200191505b509250505060405180910390fd5b5060008385039050809150509392505050565b600080823b905060008163ffffffff1611915050919050565b6040518060a0016040528060008152602001600067ffffffffffffffff168152602001600063ffffffff168152602001600063ffffffff168152602001600061ffff168152509056fe6f6e455243373231526563656976656428616464726573732c616464726573732c75696e743235362c627974657329596f752063616e6e6f742073657420796f757273656c66206173206f70657261746f72546f6b656e206d757374206265206f776e65642062792074686520616464726573732066726f6d596f7520617265206e6f7420746865206f776e6572206f66207468697320636f6e7472616374596f7520617265206e6f7420746865206f776e6572206f66207468697320746f6b656e20494454686520617070726f7665642063616e6e6f742062652074686520302061646472657373546865206c696d6974206f662067656e65726174696f6e203020647261676f6e732069733a203130436f6e747261637420646f6573206e6f7420737570706f72742045524337323120746f6b656e734f70657261746f722063616e6e6f742062652074686520636f6e74726163742061646472657373596f7520646f206e6f74206f776e207468652064616420616e642f6f7220746865206d6f6d20647261676f6ea265627a7a72315820047f08ab085348022a08ced978fd3726120f7b0dde7a2b16111173abc4b0135d64736f6c634300050c0032",
  "source": "pragma solidity ^0.5.12;\r\n\r\nimport \"./IERC721.sol\";\r\nimport \"./IERC721Receiver.sol\";\r\nimport \"./Safemath.sol\";\r\nimport \"./Ownable.sol\";\r\n\r\ncontract Dragoncontract is IERC721, Ownable {\r\n\r\n  using SafeMath for uint256;\r\n\r\n  uint256 public constant gen0CreationLimit = 10;\r\n  string private constant nameOfToken = \"MarkusDragons\";\r\n  string private constant symbolOfToken = \"MD\";\r\n\r\n  bytes4 private constant ERC721VerificationNum = bytes4(keccak256(\"onERC721Received(address,address,uint256,bytes)\"));\r\n\r\n  bytes4 private constant interfaceIdERC721 = 0x80ac58cd;\r\n  bytes4 private constant interfaceIdERC165 = 0x01ffc9a7;\r\n\r\n  event Birth(\r\n    address owner,\r\n    uint256 dragonId,\r\n    uint256 genes,\r\n    uint256 dadId,\r\n    uint256 momId\r\n  );\r\n\r\n  struct Dragon {\r\n    uint256 genes;\r\n    uint64 birthTime;\r\n    uint32 dadId;\r\n    uint32 momId;\r\n    uint16 generation;\r\n  }\r\n\r\n  Dragon[] private dragons;\r\n\r\n  mapping(uint256 => address) private dragonOwners;\r\n  mapping(address => uint256) private tokenBalances;\r\n\r\n  mapping(uint256 => address) private approvedByDragonIndex;\r\n  mapping(address => mapping(address => bool)) private operatorApproval;\r\n\r\n  uint256 public gen0Total;\r\n\r\n  function breed(uint256 _dadId, uint256 _momId) external returns (uint256) {\r\n    require(_owns(msg.sender, _dadId) && _owns(msg.sender, _momId), \"You do not own the dad and/or the mom dragon\");\r\n\r\n    uint256 newDna = _mixDna(dragons[_dadId].genes, dragons[_momId].genes);\r\n    uint256 newDragonGen = _newGeneration(dragons[_dadId].generation, dragons[_momId].generation);\r\n\r\n    _createDragon(newDna, _dadId, _momId, newDragonGen, msg.sender);\r\n  }\r\n\r\n  function supportsInterface(bytes4 _interfaceId) external pure returns (bool) {\r\n    return (_interfaceId == interfaceIdERC721 || _interfaceId == interfaceIdERC165);\r\n  }\r\n\r\n  function getDragon(uint256 _tokenId) external view returns (\r\n    uint256 genes,\r\n    uint256 birthTime,\r\n    uint256 dadId,\r\n    uint256 momId,\r\n    uint256 generation,\r\n    address owner) {\r\n      require(_tokenId < dragons.length, \"Token does not exist\");\r\n      return (\r\n        dragons[_tokenId].genes,\r\n        dragons[_tokenId].birthTime,\r\n        dragons[_tokenId].dadId,\r\n        dragons[_tokenId].momId,\r\n        dragons[_tokenId].generation,\r\n        dragonOwners[_tokenId]\r\n      );\r\n    }\r\n\r\n    function allOwnedDragons() external view returns(uint256[] memory) {\r\n        uint256[] memory ownedDragons = new uint256[](tokenBalances[msg.sender]);\r\n        for(uint256 i = 0; i < dragons.length; i++) {\r\n          if(dragonOwners[i] == msg.sender) {\r\n            ownedDragons[i] = i;\r\n          }\r\n        }\r\n        return ownedDragons;\r\n    }\r\n\r\n  function createDragonGen0(uint256 _genes) external onlyOwner {\r\n    require(gen0Total < gen0CreationLimit, \"The limit of generation 0 dragons is: 10\");\r\n\r\n    gen0Total++;\r\n\r\n    _createDragon(_genes, 0, 0, 0, msg.sender);\r\n  }\r\n\r\n  function _createDragon(\r\n    uint256 _genes,\r\n    uint256 _dadId,\r\n    uint256 _momId,\r\n    uint256 _generation,\r\n    address _owner\r\n  ) private returns (uint256) {\r\n      Dragon memory _dragon = Dragon(_genes, uint64(now), uint32(_dadId), uint32(_momId), uint16(_generation));\r\n\r\n      uint256 newDragonId = dragons.length;\r\n      dragons.push(_dragon) - 1;\r\n\r\n      emit Birth(_owner, newDragonId, _genes, _momId, _dadId);\r\n\r\n      _transfer(address(0), _owner, newDragonId);\r\n\r\n      return newDragonId;\r\n  }\r\n\r\n  function name() external view returns (string memory tokenName) {\r\n    return nameOfToken;\r\n  }\r\n\r\n  function symbol() external view returns (string memory tokenSymbol) {\r\n    return symbolOfToken;\r\n  }\r\n\r\n  function balanceOf(address _owner) external view returns (uint256 balance) {\r\n    return tokenBalances[_owner];\r\n  }\r\n\r\n  function totalSupply() external view returns (uint256 total) {\r\n    return dragons.length;\r\n  }\r\n\r\n  function ownerOf(uint256 _tokenId) external view returns (address owner) {\r\n    require(_tokenId < dragons.length, \"Token does not exist\");\r\n    return dragonOwners[_tokenId];\r\n  }\r\n\r\n  function transfer(address _to, uint256 _tokenId) external {\r\n    require(_owns(msg.sender, _tokenId), \"Token must be owned by sender\");\r\n\r\n    _transfer(msg.sender, _to, _tokenId);\r\n  }\r\n\r\n  function _transfer(address _from, address _to, uint256 _tokenId) private {\r\n    tokenBalances[_to] = tokenBalances[_to].add(1);\r\n\r\n    dragonOwners[_tokenId] = _to;\r\n\r\n    if (_from != address(0)) {\r\n      tokenBalances[_from] = tokenBalances[_from].sub(1);\r\n      delete approvedByDragonIndex[_tokenId];\r\n    }\r\n\r\n    emit Transfer(_from, _to, _tokenId);\r\n  }\r\n\r\n  function approve(address _approved, uint256 _tokenId) external {\r\n    require(_approved != address(0), \"The approved cannot be the 0 address\");\r\n    require(_tokenId < dragons.length, \"Token does not exist\");\r\n    require(_owns(msg.sender, _tokenId), \"You are not the owner of this token ID\");\r\n\r\n    _approve(_approved, _tokenId);\r\n  }\r\n\r\n  function _approve(address _approved, uint256 _tokenId) private {\r\n\r\n    approvedByDragonIndex[_tokenId] = _approved;\r\n\r\n    emit Approval(msg.sender, _approved, _tokenId);\r\n  }\r\n\r\n  function setApprovalForAll(address _operator, bool _approved) external onlyOwner {\r\n    require(_operator != msg.sender, \"You cannot set yourself as operator\");\r\n    require(_operator != address(0), \"Operator cannot be the 0 address\");\r\n    require(_operator != address(this), \"Operator cannot be the contract address\");\r\n\r\n    _setApprovalForAll(_operator, _approved);\r\n  }\r\n\r\n  function _setApprovalForAll(address _operator, bool _approved) private {\r\n    operatorApproval[msg.sender][_operator] = _approved;\r\n\r\n    emit ApprovalForAll(msg.sender, _operator, _approved);\r\n  }\r\n\r\n  function getApproved(uint256 _tokenId) external view returns (address) {\r\n    require(_tokenId < dragons.length, \"Token does not exist\");\r\n\r\n    return approvedByDragonIndex[_tokenId];\r\n  }\r\n\r\n  function isApprovedForAll(address _owner, address _operator) public view returns (bool) {\r\n    return operatorApproval[_owner][_operator];\r\n  }\r\n\r\n  function safeTransferFrom(address _from, address _to, uint256 _tokenId, bytes memory _data) public {\r\n    require(_transferFromRequire(msg.sender, _from, _to, _tokenId));\r\n\r\n    _safeTransfer(_from, _to, _tokenId, _data);\r\n  }\r\n\r\n  function safeTransferFrom(address _from, address _to, uint256 _tokenId) external {\r\n    safeTransferFrom(_from, _to, _tokenId, \"\");\r\n  }\r\n\r\n  function _safeTransfer(address _from, address _to, uint256 _tokenId, bytes memory _data) private {\r\n    _transfer(_from, _to, _tokenId);\r\n\r\n    require(_checkERC721Support(_from, _to, _tokenId, _data), \"Contract does not support ERC721 tokens\");\r\n  }\r\n\r\n  function transferFrom(address _from, address _to, uint256 _tokenId) external {\r\n    require(_transferFromRequire(msg.sender,_from, _to, _tokenId));\r\n\r\n    _transfer(_from, _to, _tokenId);\r\n  }\r\n\r\n  function _isApproved(address _claimant, uint256 _tokenId) private view returns (bool) {\r\n    return _claimant == approvedByDragonIndex[_tokenId];\r\n  }\r\n\r\n  function _checkERC721Support(address _from, address _to, uint256 _tokenId, bytes memory _data) private returns (bool) {\r\n    if(!_isContract(_to)) {\r\n      return true;\r\n    }\r\n    else {\r\n      bytes4 returnData = IERC721Receiver(_to).onERC721Received(msg.sender, _from, _tokenId, _data);\r\n      return returnData == ERC721VerificationNum;\r\n    }\r\n  }\r\n\r\n  function _isContract(address _to) private view returns (bool) {\r\n    uint32 size;\r\n    assembly{\r\n      size := extcodesize(_to)\r\n    }\r\n    return size > 0;\r\n  }\r\n\r\n  function _transferFromRequire(address _spender, address _from, address _to, uint256 _tokenId) private view returns (bool) {\r\n    require(_to != address(0), \"Cannot transfer to 0 address\");\r\n    require(_tokenId < dragons.length, \"Token does not exist\");\r\n    require(_owns(_from, _tokenId), \"Token must be owned by the address from\");\r\n\r\n    return _spender == _from || _isApproved(_spender, _tokenId) || isApprovedForAll(_from, _spender);\r\n  }\r\n\r\n  function _mixDna(uint256 _dadDna, uint256 _momDna) private pure returns (uint256) {\r\n    uint256 firstHalf = _dadDna / 100000000;\r\n    uint256 secondHalf = _momDna % 100000000;\r\n\r\n    uint256 newDna = firstHalf * 100000000;\r\n    newDna = newDna + secondHalf;\r\n    return newDna;\r\n  }\r\n\r\n  function _newGeneration(uint256 _dadGen, uint256 _momGen) private pure returns (uint256) {\r\n    if(_dadGen >= _momGen) {\r\n      return _dadGen + 1;\r\n    }\r\n    else {\r\n      return _momGen + 1;\r\n    }\r\n  }\r\n\r\n  function _owns(address _claimant, uint256 _tokenId) private view returns (bool) {\r\n    return _claimant == dragonOwners[_tokenId];\r\n  }\r\n}\r\n",
  "sourcePath": "C:\\Crypto-Dragons\\contracts\\Dragoncontract.sol",
  "compiler": {
    "name": "solc",
    "version": "0.5.12+commit.7709ece9.Emscripten.clang"
  },
  "schemaVersion": "3.2.0",
  "updatedAt": "2021-05-26T09:11:11.460Z",
  "networkType": "ethereum",
  "devdoc": {
    "methods": {}
  },
  "userdoc": {
    "methods": {}
  }
}