{
  "contractName": "Dragoncontract",
  "abi": [
    {
      "anonymous": false,
      "inputs": [
        {
          "indexed": true,
          "internalType": "address",
          "name": "owner",
          "type": "address"
        },
        {
          "indexed": true,
          "internalType": "address",
          "name": "approved",
          "type": "address"
        },
        {
          "indexed": true,
          "internalType": "uint256",
          "name": "tokenId",
          "type": "uint256"
        }
      ],
      "name": "Approval",
      "type": "event"
    },
    {
      "anonymous": false,
      "inputs": [
        {
          "indexed": true,
          "internalType": "address",
          "name": "owner",
          "type": "address"
        },
        {
          "indexed": true,
          "internalType": "address",
          "name": "operator",
          "type": "address"
        },
        {
          "indexed": false,
          "internalType": "bool",
          "name": "approved",
          "type": "bool"
        }
      ],
      "name": "ApprovalForAll",
      "type": "event"
    },
    {
      "anonymous": false,
      "inputs": [
        {
          "indexed": false,
          "internalType": "address",
          "name": "owner",
          "type": "address"
        },
        {
          "indexed": false,
          "internalType": "uint256",
          "name": "dragonId",
          "type": "uint256"
        },
        {
          "indexed": false,
          "internalType": "uint256",
          "name": "genes",
          "type": "uint256"
        },
        {
          "indexed": false,
          "internalType": "uint256",
          "name": "dadId",
          "type": "uint256"
        },
        {
          "indexed": false,
          "internalType": "uint256",
          "name": "momId",
          "type": "uint256"
        }
      ],
      "name": "Birth",
      "type": "event"
    },
    {
      "anonymous": false,
      "inputs": [
        {
          "indexed": true,
          "internalType": "address",
          "name": "from",
          "type": "address"
        },
        {
          "indexed": true,
          "internalType": "address",
          "name": "to",
          "type": "address"
        },
        {
          "indexed": true,
          "internalType": "uint256",
          "name": "tokenId",
          "type": "uint256"
        }
      ],
      "name": "Transfer",
      "type": "event"
    },
    {
      "constant": true,
      "inputs": [],
      "name": "gen0CreationLimit",
      "outputs": [
        {
          "internalType": "uint256",
          "name": "",
          "type": "uint256"
        }
      ],
      "payable": false,
      "stateMutability": "view",
      "type": "function"
    },
    {
      "constant": true,
      "inputs": [],
      "name": "gen0Total",
      "outputs": [
        {
          "internalType": "uint256",
          "name": "",
          "type": "uint256"
        }
      ],
      "payable": false,
      "stateMutability": "view",
      "type": "function"
    },
    {
      "constant": true,
      "inputs": [],
      "name": "userCreationLimit",
      "outputs": [
        {
          "internalType": "uint256",
          "name": "",
          "type": "uint256"
        }
      ],
      "payable": false,
      "stateMutability": "view",
      "type": "function"
    },
    {
      "constant": true,
      "inputs": [],
      "name": "userCreationTotal",
      "outputs": [
        {
          "internalType": "uint256",
          "name": "",
          "type": "uint256"
        }
      ],
      "payable": false,
      "stateMutability": "view",
      "type": "function"
    },
    {
      "constant": false,
      "inputs": [
        {
          "internalType": "uint256",
          "name": "_dadId",
          "type": "uint256"
        },
        {
          "internalType": "uint256",
          "name": "_momId",
          "type": "uint256"
        }
      ],
      "name": "breed",
      "outputs": [
        {
          "internalType": "uint256",
          "name": "",
          "type": "uint256"
        }
      ],
      "payable": false,
      "stateMutability": "nonpayable",
      "type": "function"
    },
    {
      "constant": true,
      "inputs": [
        {
          "internalType": "bytes4",
          "name": "_interfaceId",
          "type": "bytes4"
        }
      ],
      "name": "supportsInterface",
      "outputs": [
        {
          "internalType": "bool",
          "name": "",
          "type": "bool"
        }
      ],
      "payable": false,
      "stateMutability": "pure",
      "type": "function"
    },
    {
      "constant": true,
      "inputs": [
        {
          "internalType": "uint256",
          "name": "_tokenId",
          "type": "uint256"
        }
      ],
      "name": "getDragon",
      "outputs": [
        {
          "internalType": "uint256",
          "name": "genes",
          "type": "uint256"
        },
        {
          "internalType": "uint256",
          "name": "birthTime",
          "type": "uint256"
        },
        {
          "internalType": "uint256",
          "name": "dadId",
          "type": "uint256"
        },
        {
          "internalType": "uint256",
          "name": "momId",
          "type": "uint256"
        },
        {
          "internalType": "uint256",
          "name": "generation",
          "type": "uint256"
        },
        {
          "internalType": "address",
          "name": "owner",
          "type": "address"
        }
      ],
      "payable": false,
      "stateMutability": "view",
      "type": "function"
    },
    {
      "constant": true,
      "inputs": [],
      "name": "allOwnedDragons",
      "outputs": [
        {
          "internalType": "uint256[]",
          "name": "",
          "type": "uint256[]"
        }
      ],
      "payable": false,
      "stateMutability": "view",
      "type": "function"
    },
    {
      "constant": false,
      "inputs": [
        {
          "internalType": "uint256",
          "name": "_genes",
          "type": "uint256"
        }
      ],
      "name": "createDragonGen0",
      "outputs": [],
      "payable": false,
      "stateMutability": "nonpayable",
      "type": "function"
    },
    {
      "constant": true,
      "inputs": [],
      "name": "name",
      "outputs": [
        {
          "internalType": "string",
          "name": "tokenName",
          "type": "string"
        }
      ],
      "payable": false,
      "stateMutability": "view",
      "type": "function"
    },
    {
      "constant": true,
      "inputs": [],
      "name": "symbol",
      "outputs": [
        {
          "internalType": "string",
          "name": "tokenSymbol",
          "type": "string"
        }
      ],
      "payable": false,
      "stateMutability": "view",
      "type": "function"
    },
    {
      "constant": true,
      "inputs": [
        {
          "internalType": "address",
          "name": "_owner",
          "type": "address"
        }
      ],
      "name": "balanceOf",
      "outputs": [
        {
          "internalType": "uint256",
          "name": "balance",
          "type": "uint256"
        }
      ],
      "payable": false,
      "stateMutability": "view",
      "type": "function"
    },
    {
      "constant": true,
      "inputs": [],
      "name": "totalSupply",
      "outputs": [
        {
          "internalType": "uint256",
          "name": "total",
          "type": "uint256"
        }
      ],
      "payable": false,
      "stateMutability": "view",
      "type": "function"
    },
    {
      "constant": true,
      "inputs": [
        {
          "internalType": "uint256",
          "name": "_tokenId",
          "type": "uint256"
        }
      ],
      "name": "ownerOf",
      "outputs": [
        {
          "internalType": "address",
          "name": "owner",
          "type": "address"
        }
      ],
      "payable": false,
      "stateMutability": "view",
      "type": "function"
    },
    {
      "constant": false,
      "inputs": [
        {
          "internalType": "address",
          "name": "_to",
          "type": "address"
        },
        {
          "internalType": "uint256",
          "name": "_tokenId",
          "type": "uint256"
        }
      ],
      "name": "transfer",
      "outputs": [],
      "payable": false,
      "stateMutability": "nonpayable",
      "type": "function"
    },
    {
      "constant": false,
      "inputs": [
        {
          "internalType": "address",
          "name": "_approved",
          "type": "address"
        },
        {
          "internalType": "uint256",
          "name": "_tokenId",
          "type": "uint256"
        }
      ],
      "name": "approve",
      "outputs": [],
      "payable": false,
      "stateMutability": "nonpayable",
      "type": "function"
    },
    {
      "constant": false,
      "inputs": [
        {
          "internalType": "address",
          "name": "_operator",
          "type": "address"
        },
        {
          "internalType": "bool",
          "name": "_approved",
          "type": "bool"
        }
      ],
      "name": "setApprovalForAll",
      "outputs": [],
      "payable": false,
      "stateMutability": "nonpayable",
      "type": "function"
    },
    {
      "constant": true,
      "inputs": [
        {
          "internalType": "uint256",
          "name": "_tokenId",
          "type": "uint256"
        }
      ],
      "name": "getApproved",
      "outputs": [
        {
          "internalType": "address",
          "name": "",
          "type": "address"
        }
      ],
      "payable": false,
      "stateMutability": "view",
      "type": "function"
    },
    {
      "constant": true,
      "inputs": [
        {
          "internalType": "address",
          "name": "_owner",
          "type": "address"
        },
        {
          "internalType": "address",
          "name": "_operator",
          "type": "address"
        }
      ],
      "name": "isApprovedForAll",
      "outputs": [
        {
          "internalType": "bool",
          "name": "",
          "type": "bool"
        }
      ],
      "payable": false,
      "stateMutability": "view",
      "type": "function"
    },
    {
      "constant": false,
      "inputs": [
        {
          "internalType": "address",
          "name": "_from",
          "type": "address"
        },
        {
          "internalType": "address",
          "name": "_to",
          "type": "address"
        },
        {
          "internalType": "uint256",
          "name": "_tokenId",
          "type": "uint256"
        }
      ],
      "name": "safeTransferFrom",
      "outputs": [],
      "payable": false,
      "stateMutability": "nonpayable",
      "type": "function"
    },
    {
      "constant": false,
      "inputs": [
        {
          "internalType": "address",
          "name": "_from",
          "type": "address"
        },
        {
          "internalType": "address",
          "name": "_to",
          "type": "address"
        },
        {
          "internalType": "uint256",
          "name": "_tokenId",
          "type": "uint256"
        },
        {
          "internalType": "bytes",
          "name": "_data",
          "type": "bytes"
        }
      ],
      "name": "safeTransferFrom",
      "outputs": [],
      "payable": false,
      "stateMutability": "nonpayable",
      "type": "function"
    },
    {
      "constant": false,
      "inputs": [
        {
          "internalType": "address",
          "name": "_from",
          "type": "address"
        },
        {
          "internalType": "address",
          "name": "_to",
          "type": "address"
        },
        {
          "internalType": "uint256",
          "name": "_tokenId",
          "type": "uint256"
        }
      ],
      "name": "transferFrom",
      "outputs": [],
      "payable": false,
      "stateMutability": "nonpayable",
      "type": "function"
    }
  ],
  "bytecode": "0x6080604052336000806101000a81548173ffffffffffffffffffffffffffffffffffffffff021916908373ffffffffffffffffffffffffffffffffffffffff160217905550612656806100536000396000f3fe608060405234801561001057600080fd5b50600436106101425760003560e01c806370a08231116100b8578063b88d4fde1161007c578063b88d4fde14610654578063d72cfb8c14610759578063d9ecad7b146107b8578063e0bb933b14610804578063e985e9c514610895578063ed0b7f521461091157610142565b806370a08231146104ad57806395d89b41146105055780639c542e1c14610588578063a22cb465146105b6578063a9059cbb1461060657610142565b80631e19fa331161010a5780631e19fa331461030957806323b872dd14610327578063249dcc8214610395578063404d0e3e146103b357806342842e0e146103d15780636352211e1461043f57610142565b806301ffc9a71461014757806306fdde03146101ac578063081812fc1461022f578063095ea7b31461029d57806318160ddd146102eb575b600080fd5b6101926004803603602081101561015d57600080fd5b8101908080357bffffffffffffffffffffffffffffffffffffffffffffffffffffffff1916906020019092919050505061092f565b604051808215151515815260200191505060405180910390f35b6101b46109cf565b6040518080602001828103825283818151815260200191508051906020019080838360005b838110156101f45780820151818401526020810190506101d9565b50505050905090810190601f1680156102215780820380516001836020036101000a031916815260200191505b509250505060405180910390f35b61025b6004803603602081101561024557600080fd5b8101908080359060200190929190505050610a0c565b604051808273ffffffffffffffffffffffffffffffffffffffff1673ffffffffffffffffffffffffffffffffffffffff16815260200191505060405180910390f35b6102e9600480360360408110156102b357600080fd5b81019080803573ffffffffffffffffffffffffffffffffffffffff16906020019092919080359060200190929190505050610ac3565b005b6102f3610c97565b6040518082815260200191505060405180910390f35b610311610ca4565b6040518082815260200191505060405180910390f35b6103936004803603606081101561033d57600080fd5b81019080803573ffffffffffffffffffffffffffffffffffffffff169060200190929190803573ffffffffffffffffffffffffffffffffffffffff16906020019092919080359060200190929190505050610caa565b005b61039d610ccf565b6040518082815260200191505060405180910390f35b6103bb610cd4565b6040518082815260200191505060405180910390f35b61043d600480360360608110156103e757600080fd5b81019080803573ffffffffffffffffffffffffffffffffffffffff169060200190929190803573ffffffffffffffffffffffffffffffffffffffff16906020019092919080359060200190929190505050610cd9565b005b61046b6004803603602081101561045557600080fd5b8101908080359060200190929190505050610cf9565b604051808273ffffffffffffffffffffffffffffffffffffffff1673ffffffffffffffffffffffffffffffffffffffff16815260200191505060405180910390f35b6104ef600480360360208110156104c357600080fd5b81019080803573ffffffffffffffffffffffffffffffffffffffff169060200190929190505050610db0565b6040518082815260200191505060405180910390f35b61050d610df9565b6040518080602001828103825283818151815260200191508051906020019080838360005b8381101561054d578082015181840152602081019050610532565b50505050905090810190601f16801561057a5780820380516001836020036101000a031916815260200191505b509250505060405180910390f35b6105b46004803603602081101561059e57600080fd5b8101908080359060200190929190505050610e36565b005b610604600480360360408110156105cc57600080fd5b81019080803573ffffffffffffffffffffffffffffffffffffffff169060200190929190803515159060200190929190505050610f4f565b005b6106526004803603604081101561061c57600080fd5b81019080803573ffffffffffffffffffffffffffffffffffffffff169060200190929190803590602001909291905050506110d5565b005b6107576004803603608081101561066a57600080fd5b81019080803573ffffffffffffffffffffffffffffffffffffffff169060200190929190803573ffffffffffffffffffffffffffffffffffffffff16906020019092919080359060200190929190803590602001906401000000008111156106d157600080fd5b8201836020820111156106e357600080fd5b8035906020019184600183028401116401000000008311171561070557600080fd5b91908080601f016020809104026020016040519081016040528093929190818152602001838380828437600081840152601f19601f820116905080830192505050505050509192919290505050611288565b005b6107616112af565b6040518080602001828103825283818151815260200191508051906020019060200280838360005b838110156107a4578082015181840152602081019050610789565b505050509050019250505060405180910390f35b6107ee600480360360408110156107ce57600080fd5b8101908080359060200190929190803590602001909291905050506113cc565b6040518082815260200191505060405180910390f35b6108306004803603602081101561081a57600080fd5b8101908080359060200190929190505050611594565b604051808781526020018681526020018581526020018481526020018381526020018273ffffffffffffffffffffffffffffffffffffffff1673ffffffffffffffffffffffffffffffffffffffff168152602001965050505050505060405180910390f35b6108f7600480360360408110156108ab57600080fd5b81019080803573ffffffffffffffffffffffffffffffffffffffff169060200190929190803573ffffffffffffffffffffffffffffffffffffffff169060200190929190505050611763565b604051808215151515815260200191505060405180910390f35b6109196117f7565b6040518082815260200191505060405180910390f35b60006380ac58cd60e01b7bffffffffffffffffffffffffffffffffffffffffffffffffffffffff1916827bffffffffffffffffffffffffffffffffffffffffffffffffffffffff191614806109c857506301ffc9a760e01b7bffffffffffffffffffffffffffffffffffffffffffffffffffffffff1916827bffffffffffffffffffffffffffffffffffffffffffffffffffffffff1916145b9050919050565b60606040518060400160405280600d81526020017f4d61726b7573447261676f6e7300000000000000000000000000000000000000815250905090565b60006001805490508210610a88576040517f08c379a00000000000000000000000000000000000000000000000000000000081526004018080602001828103825260148152602001807f546f6b656e20646f6573206e6f7420657869737400000000000000000000000081525060200191505060405180910390fd5b6004600083815260200190815260200160002060009054906101000a900473ffffffffffffffffffffffffffffffffffffffff169050919050565b610acd33826117fd565b80610b915750600560006002600084815260200190815260200160002060009054906101000a900473ffffffffffffffffffffffffffffffffffffffff1673ffffffffffffffffffffffffffffffffffffffff1673ffffffffffffffffffffffffffffffffffffffff16815260200190815260200160002060003373ffffffffffffffffffffffffffffffffffffffff1673ffffffffffffffffffffffffffffffffffffffff16815260200190815260200160002060009054906101000a900460ff165b610be6576040517f08c379a00000000000000000000000000000000000000000000000000000000081526004018080602001828103825260368152602001806125536036913960400191505060405180910390fd5b816004600083815260200190815260200160002060006101000a81548173ffffffffffffffffffffffffffffffffffffffff021916908373ffffffffffffffffffffffffffffffffffffffff160217905550808273ffffffffffffffffffffffffffffffffffffffff163373ffffffffffffffffffffffffffffffffffffffff167f8c5be1e5ebec7d5bd14f71427d1e84f3dd0314c0f7b2291e5b200ac8c7c3b92560405160405180910390a45050565b6000600180549050905090565b60065481565b610cb633848484611869565b610cbf57600080fd5b610cca838383611a41565b505050565b601481565b601481565b610cf483838360405180602001604052806000815250611288565b505050565b60006001805490508210610d75576040517f08c379a00000000000000000000000000000000000000000000000000000000081526004018080602001828103825260148152602001807f546f6b656e20646f6573206e6f7420657869737400000000000000000000000081525060200191505060405180910390fd5b6002600083815260200190815260200160002060009054906101000a900473ffffffffffffffffffffffffffffffffffffffff169050919050565b6000600360008373ffffffffffffffffffffffffffffffffffffffff1673ffffffffffffffffffffffffffffffffffffffff168152602001908152602001600020549050919050565b60606040518060400160405280600281526020017f4d44000000000000000000000000000000000000000000000000000000000000815250905090565b60146006541080610e4957506014600754105b610e9e576040517f08c379a00000000000000000000000000000000000000000000000000000000081526004018080602001828103825260288152602001806125d36028913960400191505060405180910390fd5b6014600654108015610efc57506000809054906101000a900473ffffffffffffffffffffffffffffffffffffffff1673ffffffffffffffffffffffffffffffffffffffff163373ffffffffffffffffffffffffffffffffffffffff16145b15610f2857600660008154809291906001019190505550610f2281600080600033611c8a565b50610f4c565b600760008154809291906001019190505550610f4a8160008060075433611c8a565b505b50565b3373ffffffffffffffffffffffffffffffffffffffff168273ffffffffffffffffffffffffffffffffffffffff161415610fd4576040517f08c379a00000000000000000000000000000000000000000000000000000000081526004018080602001828103825260238152602001806125306023913960400191505060405180910390fd5b80600560003373ffffffffffffffffffffffffffffffffffffffff1673ffffffffffffffffffffffffffffffffffffffff16815260200190815260200160002060008473ffffffffffffffffffffffffffffffffffffffff1673ffffffffffffffffffffffffffffffffffffffff16815260200190815260200160002060006101000a81548160ff0219169083151502179055508173ffffffffffffffffffffffffffffffffffffffff163373ffffffffffffffffffffffffffffffffffffffff167f17307eab39ab6107e8899845ad3d59bd9653f200f220920489ca2b5937696c3183604051808215151515815260200191505060405180910390a35050565b600073ffffffffffffffffffffffffffffffffffffffff168273ffffffffffffffffffffffffffffffffffffffff161415611178576040517f08c379a000000000000000000000000000000000000000000000000000000000815260040180806020018281038252601c8152602001807f43616e6e6f74207472616e7366657220746f203020616464726573730000000081525060200191505060405180910390fd5b3073ffffffffffffffffffffffffffffffffffffffff168273ffffffffffffffffffffffffffffffffffffffff1614156111fd576040517f08c379a00000000000000000000000000000000000000000000000000000000081526004018080602001828103825260238152602001806125896023913960400191505060405180910390fd5b61120733826117fd565b611279576040517f08c379a000000000000000000000000000000000000000000000000000000000815260040180806020018281038252601d8152602001807f546f6b656e206d757374206265206f776e65642062792073656e64657200000081525060200191505060405180910390fd5b611284338383611a41565b5050565b61129433858585611869565b61129d57600080fd5b6112a984848484611e5b565b50505050565b606080600360003373ffffffffffffffffffffffffffffffffffffffff1673ffffffffffffffffffffffffffffffffffffffff168152602001908152602001600020546040519080825280602002602001820160405280156113205781602001602082028038833980820191505090505b50905060008090505b6001805490508110156113c4573373ffffffffffffffffffffffffffffffffffffffff166002600083815260200190815260200160002060009054906101000a900473ffffffffffffffffffffffffffffffffffffffff1673ffffffffffffffffffffffffffffffffffffffff1614156113b757808282815181106113aa57fe5b6020026020010181815250505b8080600101915050611329565b508091505090565b60006113d833846117fd565b61144a576040517f08c379a000000000000000000000000000000000000000000000000000000000815260040180806020018281038252601d8152602001807f596f7520646f206e6f74206f776e207468652064616420647261676f6e00000081525060200191505060405180910390fd5b61145433836117fd565b6114c6576040517f08c379a000000000000000000000000000000000000000000000000000000000815260040180806020018281038252601d8152602001807f596f7520646f206e6f74206f776e20746865206d6f6d20647261676f6e00000081525060200191505060405180910390fd5b600061150e600185815481106114d857fe5b906000526020600020906002020160000154600185815481106114f757fe5b906000526020600020906002020160000154611ecd565b9050600061157c6001868154811061152257fe5b906000526020600020906002020160010160109054906101000a900461ffff1661ffff166001868154811061155357fe5b906000526020600020906002020160010160109054906101000a900461ffff1661ffff16612079565b905061158b8286868433611c8a565b50505092915050565b6000806000806000806001805490508710611617576040517f08c379a00000000000000000000000000000000000000000000000000000000081526004018080602001828103825260148152602001807f546f6b656e20646f6573206e6f7420657869737400000000000000000000000081525060200191505060405180910390fd5b6001878154811061162457fe5b9060005260206000209060020201600001546001888154811061164357fe5b906000526020600020906002020160010160009054906101000a900467ffffffffffffffff166001898154811061167657fe5b906000526020600020906002020160010160089054906101000a900463ffffffff1660018a815481106116a557fe5b9060005260206000209060020201600101600c9054906101000a900463ffffffff1660018b815481106116d457fe5b906000526020600020906002020160010160109054906101000a900461ffff16600260008d815260200190815260200160002060009054906101000a900473ffffffffffffffffffffffffffffffffffffffff168467ffffffffffffffff1694508363ffffffff1693508263ffffffff1692508161ffff16915095509550955095509550955091939550919395565b6000600560008473ffffffffffffffffffffffffffffffffffffffff1673ffffffffffffffffffffffffffffffffffffffff16815260200190815260200160002060008373ffffffffffffffffffffffffffffffffffffffff1673ffffffffffffffffffffffffffffffffffffffff16815260200190815260200160002060009054906101000a900460ff16905092915050565b60075481565b60006002600083815260200190815260200160002060009054906101000a900473ffffffffffffffffffffffffffffffffffffffff1673ffffffffffffffffffffffffffffffffffffffff168373ffffffffffffffffffffffffffffffffffffffff1614905092915050565b60008073ffffffffffffffffffffffffffffffffffffffff168373ffffffffffffffffffffffffffffffffffffffff16141561190d576040517f08c379a000000000000000000000000000000000000000000000000000000000815260040180806020018281038252601c8152602001807f43616e6e6f74207472616e7366657220746f203020616464726573730000000081525060200191505060405180910390fd5b6001805490508210611987576040517f08c379a00000000000000000000000000000000000000000000000000000000081526004018080602001828103825260148152602001807f546f6b656e20646f6573206e6f7420657869737400000000000000000000000081525060200191505060405180910390fd5b61199184836117fd565b6119e6576040517f08c379a00000000000000000000000000000000000000000000000000000000081526004018080602001828103825260278152602001806125ac6027913960400191505060405180910390fd5b8373ffffffffffffffffffffffffffffffffffffffff168573ffffffffffffffffffffffffffffffffffffffff161480611a265750611a258583612099565b5b80611a375750611a368486611763565b5b9050949350505050565b611a946001600360008573ffffffffffffffffffffffffffffffffffffffff1673ffffffffffffffffffffffffffffffffffffffff1681526020019081526020016000205461210590919063ffffffff16565b600360008473ffffffffffffffffffffffffffffffffffffffff1673ffffffffffffffffffffffffffffffffffffffff16815260200190815260200160002081905550816002600083815260200190815260200160002060006101000a81548173ffffffffffffffffffffffffffffffffffffffff021916908373ffffffffffffffffffffffffffffffffffffffff160217905550600073ffffffffffffffffffffffffffffffffffffffff168373ffffffffffffffffffffffffffffffffffffffff1614611c2a57611bb06001600360008673ffffffffffffffffffffffffffffffffffffffff1673ffffffffffffffffffffffffffffffffffffffff1681526020019081526020016000205461218d90919063ffffffff16565b600360008573ffffffffffffffffffffffffffffffffffffffff1673ffffffffffffffffffffffffffffffffffffffff168152602001908152602001600020819055506004600082815260200190815260200160002060006101000a81549073ffffffffffffffffffffffffffffffffffffffff02191690555b808273ffffffffffffffffffffffffffffffffffffffff168473ffffffffffffffffffffffffffffffffffffffff167fddf252ad1be2c89b69c2b068fc378daa952ba7f163c4a11628f55a4df523b3ef60405160405180910390a4505050565b6000611c94612494565b6040518060a001604052808881526020014267ffffffffffffffff1681526020018763ffffffff1681526020018663ffffffff1681526020018561ffff1681525090506000600180549050905060018083908060018154018082558091505090600182039060005260206000209060020201600090919290919091506000820151816000015560208201518160010160006101000a81548167ffffffffffffffff021916908367ffffffffffffffff16021790555060408201518160010160086101000a81548163ffffffff021916908363ffffffff160217905550606082015181600101600c6101000a81548163ffffffff021916908363ffffffff16021790555060808201518160010160106101000a81548161ffff021916908361ffff160217905550505050507f0a5311bd2a6608f08a180df2ee7c5946819a649b204b554bb8e39825b2c50ad584828a898b604051808673ffffffffffffffffffffffffffffffffffffffff1673ffffffffffffffffffffffffffffffffffffffff1681526020018581526020018481526020018381526020018281526020019550505050505060405180910390a1611e4d60008583611a41565b809250505095945050505050565b611e66848484611a41565b611e72848484846121d7565b611ec7576040517f08c379a00000000000000000000000000000000000000000000000000000000081526004018080602001828103825260278152602001806125fb6027913960400191505060405180910390fd5b50505050565b6000611ed76124dd565b60006101004281611ee457fe5b069050600060084281611ef357fe5b0660ff1690506000600160074281611f0757fe5b060190506000600160054281611f1957fe5b060190506000600a60524281611f2b57fe5b0601905060008060079050600191505b60808211611fb3576000828860ff16161415611f615760648b81611f5b57fe5b06611f6d565b60648a81611f6b57fe5b065b888260ff1660088110611f7c57fe5b60200201818152505060648a81611f8f57fe5b04995060648b81611f9c57fe5b049a50808060019003915050600282029150611f3b565b6004861415611fdf5783600a86020160ff16888760088110611fd157fe5b602002018181525050612027565b600786141561200c576001600a85020160ff16888760088110611ffe57fe5b602002018181525050612026565b8260ff1688876008811061201c57fe5b6020020181815250505b5b60008092505b60088310156120675788836008811061204257fe5b6020020151810190506007831461205a576064810290505b828060010193505061202d565b80995050505050505050505092915050565b60008183101561208c5760018201612091565b600183015b905092915050565b60006004600083815260200190815260200160002060009054906101000a900473ffffffffffffffffffffffffffffffffffffffff1673ffffffffffffffffffffffffffffffffffffffff168373ffffffffffffffffffffffffffffffffffffffff1614905092915050565b600080828401905083811015612183576040517f08c379a000000000000000000000000000000000000000000000000000000000815260040180806020018281038252601b8152602001807f536166654d6174683a206164646974696f6e206f766572666c6f77000000000081525060200191505060405180910390fd5b8091505092915050565b60006121cf83836040518060400160405280601e81526020017f536166654d6174683a207375627472616374696f6e206f766572666c6f7700008152506123bb565b905092915050565b60006121e28461247b565b6121ef57600190506123b3565b60008473ffffffffffffffffffffffffffffffffffffffff1663150b7a02338887876040518563ffffffff1660e01b8152600401808573ffffffffffffffffffffffffffffffffffffffff1673ffffffffffffffffffffffffffffffffffffffff1681526020018473ffffffffffffffffffffffffffffffffffffffff1673ffffffffffffffffffffffffffffffffffffffff16815260200183815260200180602001828103825283818151815260200191508051906020019080838360005b838110156122ca5780820151818401526020810190506122af565b50505050905090810190601f1680156122f75780820380516001836020036101000a031916815260200191505b5095505050505050602060405180830381600087803b15801561231957600080fd5b505af115801561232d573d6000803e3d6000fd5b505050506040513d602081101561234357600080fd5b810190808051906020019092919050505090506040518080612501602f9139602f01905060405180910390207bffffffffffffffffffffffffffffffffffffffffffffffffffffffff1916817bffffffffffffffffffffffffffffffffffffffffffffffffffffffff1916149150505b949350505050565b6000838311158290612468576040517f08c379a00000000000000000000000000000000000000000000000000000000081526004018080602001828103825283818151815260200191508051906020019080838360005b8381101561242d578082015181840152602081019050612412565b50505050905090810190601f16801561245a5780820380516001836020036101000a031916815260200191505b509250505060405180910390fd5b5060008385039050809150509392505050565b600080823b905060008163ffffffff1611915050919050565b6040518060a0016040528060008152602001600067ffffffffffffffff168152602001600063ffffffff168152602001600063ffffffff168152602001600061ffff1681525090565b60405180610100016040528060089060208202803883398082019150509050509056fe6f6e455243373231526563656976656428616464726573732c616464726573732c75696e743235362c627974657329596f752063616e6e6f742073657420796f757273656c66206173206f70657261746f72596f7520617265206e6f7420746865206f776e6572206f7220746865206f70657261746f72206f66207468697320746f6b656e20494443616e6e6f74207472616e7366657220746f20636f6e74726163742061646472657373546f6b656e206d757374206265206f776e65642062792074686520616464726573732066726f6d546865206c696d6974206f662067656e65726174696f6e203020647261676f6e732069733a203230436f6e747261637420646f6573206e6f7420737570706f72742045524337323120746f6b656e73a265627a7a723158206afe41a5075318f68bc12689bb46c3831128c0c0236493898b0eef597aa42a0264736f6c634300050c0032",
  "source": "pragma solidity ^0.5.12;\r\n\r\nimport \"./IERC721.sol\";\r\nimport \"./IERC721Receiver.sol\";\r\nimport \"./Safemath.sol\";\r\nimport \"./Ownable.sol\";\r\n\r\ncontract Dragoncontract is IERC721, Ownable {\r\n\r\n  using SafeMath for uint256;\r\n\r\n  uint256 public constant gen0CreationLimit = 20;\r\n  uint256 public constant userCreationLimit = 20;\r\n\r\n  string private constant nameOfToken = \"MarkusDragons\";\r\n  string private constant symbolOfToken = \"MD\";\r\n\r\n  bytes4 private constant ERC721VerificationNum = bytes4(keccak256(\"onERC721Received(address,address,uint256,bytes)\"));\r\n\r\n  bytes4 private constant interfaceIdERC721 = 0x80ac58cd;\r\n  bytes4 private constant interfaceIdERC165 = 0x01ffc9a7;\r\n\r\n  event Birth(\r\n    address owner,\r\n    uint256 dragonId,\r\n    uint256 genes,\r\n    uint256 dadId,\r\n    uint256 momId\r\n  );\r\n\r\n  struct Dragon {\r\n    uint256 genes;\r\n    uint64 birthTime;\r\n    uint32 dadId;\r\n    uint32 momId;\r\n    uint16 generation;\r\n  }\r\n\r\n  Dragon[] private dragons;\r\n\r\n  mapping(uint256 => address) private dragonOwners;\r\n  mapping(address => uint256) private tokenBalances;\r\n\r\n  mapping(uint256 => address) private tokenApprovedAddresses;\r\n  mapping(address => mapping(address => bool)) private operatorApproval;\r\n\r\n  uint256 public gen0Total;\r\n  uint256 public userCreationTotal;\r\n\r\n  function breed(uint256 _dadId, uint256 _momId) external returns (uint256) {\r\n    require(_owns(msg.sender, _dadId), \"You do not own the dad dragon\");\r\n    require(_owns(msg.sender, _momId), \"You do not own the mom dragon\");\r\n\r\n    uint256 newDna = _mixDna(dragons[_dadId].genes, dragons[_momId].genes);\r\n    uint256 newDragonGen = _newGeneration(dragons[_dadId].generation, dragons[_momId].generation);\r\n\r\n    _createDragon(newDna, _dadId, _momId, newDragonGen, msg.sender);\r\n  }\r\n\r\n  function supportsInterface(bytes4 _interfaceId) external pure returns (bool) {\r\n    return (_interfaceId == interfaceIdERC721 || _interfaceId == interfaceIdERC165);\r\n  }\r\n\r\n  function getDragon(uint256 _tokenId) external view returns (\r\n    uint256 genes,\r\n    uint256 birthTime,\r\n    uint256 dadId,\r\n    uint256 momId,\r\n    uint256 generation,\r\n    address owner) {\r\n      require(_tokenId < dragons.length, \"Token does not exist\");\r\n      return (\r\n        dragons[_tokenId].genes,\r\n        dragons[_tokenId].birthTime,\r\n        dragons[_tokenId].dadId,\r\n        dragons[_tokenId].momId,\r\n        dragons[_tokenId].generation,\r\n        dragonOwners[_tokenId]\r\n      );\r\n    }\r\n\r\n    function allOwnedDragons() external view returns(uint256[] memory) {\r\n        uint256[] memory ownedDragons = new uint256[](tokenBalances[msg.sender]);\r\n        for(uint256 i = 0; i < dragons.length; i++) {\r\n          if(dragonOwners[i] == msg.sender) {\r\n            ownedDragons[i] = i;\r\n          }\r\n        }\r\n        return ownedDragons;\r\n    }\r\n\r\n  function createDragonGen0(uint256 _genes) external {\r\n    require(gen0Total < gen0CreationLimit || userCreationTotal < userCreationLimit, \"The limit of generation 0 dragons is: 20\");\r\n\r\n    if(gen0Total < gen0CreationLimit && msg.sender == owner) {\r\n      gen0Total++;\r\n\r\n      _createDragon(_genes, 0, 0, 0, msg.sender);\r\n    }\r\n    else {\r\n      userCreationTotal++;\r\n\r\n      _createDragon(_genes, 0, 0, userCreationTotal, msg.sender);\r\n    }\r\n  }\r\n\r\n  function _createDragon(\r\n    uint256 _genes,\r\n    uint256 _dadId,\r\n    uint256 _momId,\r\n    uint256 _generation,\r\n    address _owner\r\n  ) private returns (uint256) {\r\n      Dragon memory _dragon = Dragon(_genes, uint64(now), uint32(_dadId), uint32(_momId), uint16(_generation));\r\n\r\n      uint256 newDragonId = dragons.length;\r\n      dragons.push(_dragon) - 1;\r\n\r\n      emit Birth(_owner, newDragonId, _genes, _momId, _dadId);\r\n\r\n      _transfer(address(0), _owner, newDragonId);\r\n\r\n      return newDragonId;\r\n  }\r\n\r\n  function name() external view returns (string memory tokenName) {\r\n    return nameOfToken;\r\n  }\r\n\r\n  function symbol() external view returns (string memory tokenSymbol) {\r\n    return symbolOfToken;\r\n  }\r\n\r\n  function balanceOf(address _owner) external view returns (uint256 balance) {\r\n    return tokenBalances[_owner];\r\n  }\r\n\r\n  function totalSupply() external view returns (uint256 total) {\r\n    return dragons.length;\r\n  }\r\n\r\n  function ownerOf(uint256 _tokenId) external view returns (address owner) {\r\n    require(_tokenId < dragons.length, \"Token does not exist\");\r\n    return dragonOwners[_tokenId];\r\n  }\r\n\r\n  function transfer(address _to, uint256 _tokenId) external {\r\n    require(_to != address(0), \"Cannot transfer to 0 address\");\r\n    require(_to != address(this), \"Cannot transfer to contract address\");\r\n    require(_owns(msg.sender, _tokenId), \"Token must be owned by sender\");\r\n\r\n    _transfer(msg.sender, _to, _tokenId);\r\n  }\r\n\r\n  function _transfer(address _from, address _to, uint256 _tokenId) private {\r\n    tokenBalances[_to] = tokenBalances[_to].add(1);\r\n\r\n    dragonOwners[_tokenId] = _to;\r\n\r\n    if (_from != address(0)) {\r\n      tokenBalances[_from] = tokenBalances[_from].sub(1);\r\n      delete tokenApprovedAddresses[_tokenId];\r\n    }\r\n\r\n    emit Transfer(_from, _to, _tokenId);\r\n  }\r\n\r\n  function approve(address _approved, uint256 _tokenId) external {\r\n    require(_owns(msg.sender, _tokenId) || operatorApproval[dragonOwners[_tokenId]][msg.sender], \"You are not the owner or the operator of this token ID\");\r\n\r\n    tokenApprovedAddresses[_tokenId] = _approved;\r\n\r\n    emit Approval(msg.sender, _approved, _tokenId);\r\n  }\r\n\r\n  function setApprovalForAll(address _operator, bool _approved) external {\r\n    require(_operator != msg.sender, \"You cannot set yourself as operator\");\r\n\r\n    operatorApproval[msg.sender][_operator] = _approved;\r\n\r\n    emit ApprovalForAll(msg.sender, _operator, _approved);\r\n  }\r\n\r\n  function getApproved(uint256 _tokenId) external view returns (address) {\r\n    require(_tokenId < dragons.length, \"Token does not exist\");\r\n\r\n    return tokenApprovedAddresses[_tokenId];\r\n  }\r\n\r\n  function isApprovedForAll(address _owner, address _operator) public view returns (bool) {\r\n    return operatorApproval[_owner][_operator];\r\n  }\r\n\r\n  function safeTransferFrom(address _from, address _to, uint256 _tokenId, bytes memory _data) public {\r\n    require(_transferFromRequire(msg.sender, _from, _to, _tokenId));\r\n\r\n    _safeTransfer(_from, _to, _tokenId, _data);\r\n  }\r\n\r\n  function safeTransferFrom(address _from, address _to, uint256 _tokenId) external {\r\n    safeTransferFrom(_from, _to, _tokenId, \"\");\r\n  }\r\n\r\n  function _safeTransfer(address _from, address _to, uint256 _tokenId, bytes memory _data) private {\r\n    _transfer(_from, _to, _tokenId);\r\n\r\n    require(_checkERC721Support(_from, _to, _tokenId, _data), \"Contract does not support ERC721 tokens\");\r\n  }\r\n\r\n  function transferFrom(address _from, address _to, uint256 _tokenId) external {\r\n    require(_transferFromRequire(msg.sender, _from, _to, _tokenId));\r\n\r\n    _transfer(_from, _to, _tokenId);\r\n  }\r\n\r\n  function _isApproved(address _claimant, uint256 _tokenId) private view returns (bool) {\r\n    return _claimant == tokenApprovedAddresses[_tokenId];\r\n  }\r\n\r\n  function _checkERC721Support(address _from, address _to, uint256 _tokenId, bytes memory _data) private returns (bool) {\r\n    if(!_isContract(_to)) {\r\n      return true;\r\n    }\r\n    else {\r\n      bytes4 returnData = IERC721Receiver(_to).onERC721Received(msg.sender, _from, _tokenId, _data);\r\n      return returnData == ERC721VerificationNum;\r\n    }\r\n  }\r\n\r\n  function _isContract(address _to) private view returns (bool) {\r\n    uint32 size;\r\n    assembly{\r\n      size := extcodesize(_to)\r\n    }\r\n    return size > 0;\r\n  }\r\n\r\n  function _transferFromRequire(address _spender, address _from, address _to, uint256 _tokenId) private view returns (bool) {\r\n    require(_to != address(0), \"Cannot transfer to 0 address\");\r\n    require(_tokenId < dragons.length, \"Token does not exist\");\r\n    require(_owns(_from, _tokenId), \"Token must be owned by the address from\");\r\n\r\n    return _spender == _from || _isApproved(_spender, _tokenId) || isApprovedForAll(_from, _spender);\r\n  }\r\n\r\n  function _mixDna(uint256 _dadDna, uint256 _momDna) private view returns (uint256) {\r\n    uint256[8] memory geneArray;\r\n\r\n    uint8 random = uint8(now % 256);\r\n    uint256 randomIndex = uint8(now % 8);\r\n    uint8 randomEyes = uint8((now % 7) + 1);\r\n    uint8 HornOrAnimation = uint8((now % 5) + 1);\r\n    uint8 randomColor = uint8((now % 82) + 10);\r\n\r\n    uint256 i;\r\n    uint8 index = 7;\r\n\r\n    for(i = 1; i <= 128; i=i*2) {\r\n      geneArray[index] = random & i != 0 ? _momDna % 100 : _dadDna % 100;\r\n\r\n      _momDna /= 100;\r\n      _dadDna /= 100;\r\n\r\n      index--;\r\n    }\r\n\r\n    if(randomIndex == 4) {\r\n      geneArray[randomIndex] = (randomEyes * 10) + HornOrAnimation;\r\n    }\r\n    else if(randomIndex == 7) {\r\n      geneArray[randomIndex] = (HornOrAnimation * 10) + 1;\r\n    }\r\n    else geneArray[randomIndex] = randomColor;\r\n\r\n    uint256 newDna;\r\n\r\n    for(i = 0; i < 8; i++) {\r\n      newDna += geneArray[i];\r\n      if(i != 7) {\r\n        newDna *= 100;\r\n      }\r\n    }\r\n    return newDna;\r\n  }\r\n\r\n  function _newGeneration(uint256 _dadGen, uint256 _momGen) private pure returns (uint256) {\r\n    return _dadGen >= _momGen ? _dadGen + 1 : _momGen + 1;\r\n  }\r\n\r\n  function _owns(address _claimant, uint256 _tokenId) private view returns (bool) {\r\n    return _claimant == dragonOwners[_tokenId];\r\n  }\r\n}\r\n",
  "sourcePath": "/Users/markusbielaszka/Documents/Crypto-Dragons/contracts/Dragoncontract.sol",
  "compiler": {
    "name": "solc",
    "version": "0.5.12+commit.7709ece9.Emscripten.clang"
  },
  "schemaVersion": "3.2.0",
  "updatedAt": "2021-06-16T18:27:29.231Z",
  "networkType": "ethereum",
  "devdoc": {
    "methods": {}
  },
  "userdoc": {
    "methods": {}
  }
}