{
  "contractName": "Dragoncontract",
  "abi": [
    {
      "anonymous": false,
      "inputs": [
        {
          "indexed": true,
          "internalType": "address",
          "name": "owner",
          "type": "address"
        },
        {
          "indexed": true,
          "internalType": "address",
          "name": "approved",
          "type": "address"
        },
        {
          "indexed": true,
          "internalType": "uint256",
          "name": "tokenId",
          "type": "uint256"
        }
      ],
      "name": "Approval",
      "type": "event"
    },
    {
      "anonymous": false,
      "inputs": [
        {
          "indexed": true,
          "internalType": "address",
          "name": "from",
          "type": "address"
        },
        {
          "indexed": true,
          "internalType": "address",
          "name": "to",
          "type": "address"
        },
        {
          "indexed": true,
          "internalType": "uint256",
          "name": "tokenId",
          "type": "uint256"
        }
      ],
      "name": "Transfer",
      "type": "event"
    },
    {
      "constant": true,
      "inputs": [],
      "name": "name",
      "outputs": [
        {
          "internalType": "string",
          "name": "",
          "type": "string"
        }
      ],
      "payable": false,
      "stateMutability": "view",
      "type": "function"
    },
    {
      "constant": true,
      "inputs": [],
      "name": "symbol",
      "outputs": [
        {
          "internalType": "string",
          "name": "",
          "type": "string"
        }
      ],
      "payable": false,
      "stateMutability": "view",
      "type": "function"
    },
    {
      "constant": true,
      "inputs": [
        {
          "internalType": "address",
          "name": "_owner",
          "type": "address"
        }
      ],
      "name": "balanceOf",
      "outputs": [
        {
          "internalType": "uint256",
          "name": "",
          "type": "uint256"
        }
      ],
      "payable": false,
      "stateMutability": "view",
      "type": "function"
    },
    {
      "constant": true,
      "inputs": [],
      "name": "totalSupply",
      "outputs": [
        {
          "internalType": "uint256",
          "name": "",
          "type": "uint256"
        }
      ],
      "payable": false,
      "stateMutability": "view",
      "type": "function"
    },
    {
      "constant": true,
      "inputs": [
        {
          "internalType": "uint256",
          "name": "_tokenId",
          "type": "uint256"
        }
      ],
      "name": "ownerOf",
      "outputs": [
        {
          "internalType": "address",
          "name": "",
          "type": "address"
        }
      ],
      "payable": false,
      "stateMutability": "view",
      "type": "function"
    },
    {
      "constant": false,
      "inputs": [
        {
          "internalType": "address",
          "name": "_to",
          "type": "address"
        },
        {
          "internalType": "uint256",
          "name": "_tokenId",
          "type": "uint256"
        }
      ],
      "name": "transfer",
      "outputs": [],
      "payable": false,
      "stateMutability": "nonpayable",
      "type": "function"
    }
  ],
  "bytecode": "0x60806040526040518060400160405280600d81526020017f4d61726b7573447261676f6e73000000000000000000000000000000000000008152506000908051906020019061004f9291906100ae565b506040518060400160405280600281526020017f4d440000000000000000000000000000000000000000000000000000000000008152506001908051906020019061009b9291906100ae565b503480156100a857600080fd5b50610153565b828054600181600116156101000203166002900490600052602060002090601f016020900481019282601f106100ef57805160ff191683800117855561011d565b8280016001018555821561011d579182015b8281111561011c578251825591602001919060010190610101565b5b50905061012a919061012e565b5090565b61015091905b8082111561014c576000816000905550600101610134565b5090565b90565b610a59806101626000396000f3fe608060405234801561001057600080fd5b50600436106100625760003560e01c806306fdde031461006757806318160ddd146100ea5780636352211e1461010857806370a082311461017657806395d89b41146101ce578063a9059cbb14610251575b600080fd5b61006f61029f565b6040518080602001828103825283818151815260200191508051906020019080838360005b838110156100af578082015181840152602081019050610094565b50505050905090810190601f1680156100dc5780820380516001836020036101000a031916815260200191505b509250505060405180910390f35b6100f2610341565b6040518082815260200191505060405180910390f35b6101346004803603602081101561011e57600080fd5b810190808035906020019092919050505061034b565b604051808273ffffffffffffffffffffffffffffffffffffffff1673ffffffffffffffffffffffffffffffffffffffff16815260200191505060405180910390f35b6101b86004803603602081101561018c57600080fd5b81019080803573ffffffffffffffffffffffffffffffffffffffff169060200190929190505050610388565b6040518082815260200191505060405180910390f35b6101d66103d1565b6040518080602001828103825283818151815260200191508051906020019080838360005b838110156102165780820151818401526020810190506101fb565b50505050905090810190601f1680156102435780820380516001836020036101000a031916815260200191505b509250505060405180910390f35b61029d6004803603604081101561026757600080fd5b81019080803573ffffffffffffffffffffffffffffffffffffffff16906020019092919080359060200190929190505050610473565b005b606060008054600181600116156101000203166002900480601f0160208091040260200160405190810160405280929190818152602001828054600181600116156101000203166002900480156103375780601f1061030c57610100808354040283529160200191610337565b820191906000526020600020905b81548152906001019060200180831161031a57829003601f168201915b5050505050905090565b6000600254905090565b60006003600083815260200190815260200160002060009054906101000a900473ffffffffffffffffffffffffffffffffffffffff169050919050565b6000600460008373ffffffffffffffffffffffffffffffffffffffff1673ffffffffffffffffffffffffffffffffffffffff168152602001908152602001600020549050919050565b606060018054600181600116156101000203166002900480601f0160208091040260200160405190810160405280929190818152602001828054600181600116156101000203166002900480156104695780601f1061043e57610100808354040283529160200191610469565b820191906000526020600020905b81548152906001019060200180831161044c57829003601f168201915b5050505050905090565b6003600080815260200190815260200160002060009054906101000a900473ffffffffffffffffffffffffffffffffffffffff1673ffffffffffffffffffffffffffffffffffffffff168273ffffffffffffffffffffffffffffffffffffffff16141561052b576040517f08c379a00000000000000000000000000000000000000000000000000000000081526004018080602001828103825260238152602001806109db6023913960400191505060405180910390fd5b3073ffffffffffffffffffffffffffffffffffffffff168273ffffffffffffffffffffffffffffffffffffffff1614156105b0576040517f08c379a00000000000000000000000000000000000000000000000000000000081526004018080602001828103825260278152602001806109fe6027913960400191505060405180910390fd5b600460003373ffffffffffffffffffffffffffffffffffffffff1673ffffffffffffffffffffffffffffffffffffffff168152602001908152602001600020548114610664576040517f08c379a000000000000000000000000000000000000000000000000000000000815260040180806020018281038252601b8152602001807f746f6b656e206d757374206265206f776e65642062792075736572000000000081525060200191505060405180910390fd5b6106b681600460003373ffffffffffffffffffffffffffffffffffffffff1673ffffffffffffffffffffffffffffffffffffffff1681526020019081526020016000205461084890919063ffffffff16565b600460003373ffffffffffffffffffffffffffffffffffffffff1673ffffffffffffffffffffffffffffffffffffffff1681526020019081526020016000208190555061074b81600460008573ffffffffffffffffffffffffffffffffffffffff1673ffffffffffffffffffffffffffffffffffffffff1681526020019081526020016000205461089290919063ffffffff16565b600460008473ffffffffffffffffffffffffffffffffffffffff1673ffffffffffffffffffffffffffffffffffffffff16815260200190815260200160002081905550808273ffffffffffffffffffffffffffffffffffffffff163373ffffffffffffffffffffffffffffffffffffffff167fddf252ad1be2c89b69c2b068fc378daa952ba7f163c4a11628f55a4df523b3ef60405160405180910390a4808273ffffffffffffffffffffffffffffffffffffffff163373ffffffffffffffffffffffffffffffffffffffff167f8c5be1e5ebec7d5bd14f71427d1e84f3dd0314c0f7b2291e5b200ac8c7c3b92560405160405180910390a45050565b600061088a83836040518060400160405280601e81526020017f536166654d6174683a207375627472616374696f6e206f766572666c6f77000081525061091a565b905092915050565b600080828401905083811015610910576040517f08c379a000000000000000000000000000000000000000000000000000000000815260040180806020018281038252601b8152602001807f536166654d6174683a206164646974696f6e206f766572666c6f77000000000081525060200191505060405180910390fd5b8091505092915050565b60008383111582906109c7576040517f08c379a00000000000000000000000000000000000000000000000000000000081526004018080602001828103825283818151815260200191508051906020019080838360005b8381101561098c578082015181840152602081019050610971565b50505050905090810190601f1680156109b95780820380516001836020036101000a031916815260200191505b509250505060405180910390fd5b506000838503905080915050939250505056fe63616e6e6f74207472616e7366657220746f20746865207a65726f206164647265737363616e6e6f74207472616e7366657220746f2074686520636f6e74726163742061646472657373a265627a7a72315820b74c61503494f4b669d442c3f654a1944c8748ce614ed47933a665f9403348c164736f6c634300050c0032",
  "source": "pragma solidity ^0.5.12;\r\n\r\nimport \"./IERC721.sol\";\r\nimport \"./Safemath.sol\";\r\n\r\ncontract Dragoncontract is IERC721 {\r\n\r\n  using SafeMath for uint256;\r\n\r\n  // Make an event that emits when a token has been stranfered from sender to recipient with a tokenId\r\n  event Transfer(address indexed from, address indexed to, uint256 indexed tokenId);\r\n  // Make an event that emits when the owner enables the approved address to manage the token id\r\n  event Approval(address indexed owner, address indexed approved, uint256 indexed tokenId);\r\n\r\n  // Make a string tokenName = MarkusDragons\r\n  string private tokenName = \"MarkusDragons\";\r\n  // Make a string tokenSymbol = MD\r\n  string private tokenSymbol = \"MD\";\r\n\r\n  // Make a uint256 tokenTotalSupply\r\n  uint256 private tokenTotalSupply;\r\n\r\n  // Make mapping of the dragonOwners with a uint256 that points to an address\r\n  mapping(uint256 => address) private dragonOwners;\r\n  // Make mapping of the tokenBalances with an address that points to a uint256\r\n  mapping(address => uint256) private tokenBalances;\r\n\r\n  // Make a dragons array with the Dragon struct\r\n  Dragon[] private dragons;\r\n\r\n  struct Dragon {\r\n    // The unique gene features of the dragon\r\n    uint256 genes;\r\n    // The timestamp of when the dragon has been created\r\n    uint64 birthTime;\r\n    // The id of the male\r\n    uint32 maleId;\r\n    // The id of the female\r\n    uint32 femaleId;\r\n    // The generation number of the dragon\r\n    uint16 generation;\r\n  }\r\n\r\n  // Make a function to get the name\r\n  function name() external view returns (string memory) {\r\n    // returns the token name\r\n    return tokenName;\r\n  }\r\n\r\n  // Make a function to get the symbol\r\n  function symbol() external view returns (string memory) {\r\n    // returns the token symbol\r\n    return tokenSymbol;\r\n  }\r\n\r\n  // Make a function to get the balance of owner\r\n  function balanceOf(address _owner) external view returns (uint256) {\r\n    // returns the token balances with the owners address\r\n    return tokenBalances[_owner];\r\n  }\r\n\r\n  // Make a function to get the total supply\r\n  function totalSupply() external view returns (uint256) {\r\n    // returns the token total supply\r\n    return tokenTotalSupply;\r\n  }\r\n\r\n  // Make a function to get owner off the token id\r\n  function ownerOf(uint256 _tokenId) external view returns (address) {\r\n    // returns the dragon owners with a token id\r\n    return dragonOwners[_tokenId];\r\n  }\r\n\r\n  // Make a function to tranfer to the address with the token id\r\n  function transfer(address _to, uint256 _tokenId) external {\r\n    // Require so that reciepient cannot transfer to the zero address\r\n    require(_to != dragonOwners[0], \"cannot transfer to the zero address\");\r\n    // Require so that reciepient cannot transfer to the contract address\r\n    require(_to != address(this), \"cannot transfer to the contract address\");\r\n    // Require so that token id must be owned by user\r\n    require(_tokenId == tokenBalances[msg.sender], \"token must be owned by user\");\r\n\r\n    // users token balance = users token balance subtracted by the token id\r\n    tokenBalances[msg.sender] = tokenBalances[msg.sender].sub(_tokenId);\r\n    // recipients token balance = recipients token balance + the token id\r\n    tokenBalances[_to] = tokenBalances[_to].add(_tokenId);\r\n\r\n    // emits when a token has been stranfered from sender to recipient with a token id\r\n    emit Transfer(msg.sender, _to, _tokenId);\r\n    // emits when the owner enables the approved address to manage the token id\r\n    emit Approval(msg.sender, _to, _tokenId);\r\n  }\r\n}\r\n",
  "sourcePath": "C:\\Crypto-Dragons\\contracts\\Dragoncontract.sol",
  "compiler": {
    "name": "solc",
    "version": "0.5.12+commit.7709ece9.Emscripten.clang"
  },
  "schemaVersion": "3.2.0",
  "updatedAt": "2021-02-08T08:00:38.526Z",
  "networkType": "ethereum",
  "devdoc": {
    "methods": {}
  },
  "userdoc": {
    "methods": {}
  }
}