{
  "contractName": "Dragoncontract",
  "abi": [
    {
      "anonymous": false,
      "inputs": [
        {
          "indexed": true,
          "internalType": "address",
          "name": "owner",
          "type": "address"
        },
        {
          "indexed": true,
          "internalType": "address",
          "name": "approved",
          "type": "address"
        },
        {
          "indexed": true,
          "internalType": "uint256",
          "name": "tokenId",
          "type": "uint256"
        }
      ],
      "name": "Approval",
      "type": "event"
    },
    {
      "anonymous": false,
      "inputs": [
        {
          "indexed": true,
          "internalType": "address",
          "name": "owner",
          "type": "address"
        },
        {
          "indexed": true,
          "internalType": "address",
          "name": "operator",
          "type": "address"
        },
        {
          "indexed": false,
          "internalType": "bool",
          "name": "approved",
          "type": "bool"
        }
      ],
      "name": "ApprovalForAll",
      "type": "event"
    },
    {
      "anonymous": false,
      "inputs": [
        {
          "indexed": false,
          "internalType": "address",
          "name": "owner",
          "type": "address"
        },
        {
          "indexed": false,
          "internalType": "uint256",
          "name": "dragonId",
          "type": "uint256"
        },
        {
          "indexed": false,
          "internalType": "uint256",
          "name": "genes",
          "type": "uint256"
        },
        {
          "indexed": false,
          "internalType": "uint256",
          "name": "dadId",
          "type": "uint256"
        },
        {
          "indexed": false,
          "internalType": "uint256",
          "name": "momId",
          "type": "uint256"
        }
      ],
      "name": "Birth",
      "type": "event"
    },
    {
      "anonymous": false,
      "inputs": [
        {
          "indexed": true,
          "internalType": "address",
          "name": "from",
          "type": "address"
        },
        {
          "indexed": true,
          "internalType": "address",
          "name": "to",
          "type": "address"
        },
        {
          "indexed": true,
          "internalType": "uint256",
          "name": "tokenId",
          "type": "uint256"
        }
      ],
      "name": "Transfer",
      "type": "event"
    },
    {
      "constant": true,
      "inputs": [],
      "name": "gen0CreationLimit",
      "outputs": [
        {
          "internalType": "uint256",
          "name": "",
          "type": "uint256"
        }
      ],
      "payable": false,
      "stateMutability": "view",
      "type": "function"
    },
    {
      "constant": true,
      "inputs": [],
      "name": "gen0Total",
      "outputs": [
        {
          "internalType": "uint256",
          "name": "",
          "type": "uint256"
        }
      ],
      "payable": false,
      "stateMutability": "view",
      "type": "function"
    },
    {
      "constant": true,
      "inputs": [
        {
          "internalType": "uint256",
          "name": "_tokenId",
          "type": "uint256"
        }
      ],
      "name": "getDragon",
      "outputs": [
        {
          "internalType": "uint256",
          "name": "genes",
          "type": "uint256"
        },
        {
          "internalType": "uint256",
          "name": "birthTime",
          "type": "uint256"
        },
        {
          "internalType": "uint256",
          "name": "dadId",
          "type": "uint256"
        },
        {
          "internalType": "uint256",
          "name": "momId",
          "type": "uint256"
        },
        {
          "internalType": "uint256",
          "name": "generation",
          "type": "uint256"
        },
        {
          "internalType": "address",
          "name": "owner",
          "type": "address"
        }
      ],
      "payable": false,
      "stateMutability": "view",
      "type": "function"
    },
    {
      "constant": true,
      "inputs": [],
      "name": "allOwnedDragons",
      "outputs": [
        {
          "internalType": "uint256[]",
          "name": "",
          "type": "uint256[]"
        }
      ],
      "payable": false,
      "stateMutability": "view",
      "type": "function"
    },
    {
      "constant": false,
      "inputs": [
        {
          "internalType": "uint256",
          "name": "_genes",
          "type": "uint256"
        }
      ],
      "name": "createDragonGen0",
      "outputs": [],
      "payable": false,
      "stateMutability": "nonpayable",
      "type": "function"
    },
    {
      "constant": true,
      "inputs": [],
      "name": "name",
      "outputs": [
        {
          "internalType": "string",
          "name": "tokenName",
          "type": "string"
        }
      ],
      "payable": false,
      "stateMutability": "view",
      "type": "function"
    },
    {
      "constant": true,
      "inputs": [],
      "name": "symbol",
      "outputs": [
        {
          "internalType": "string",
          "name": "tokenSymbol",
          "type": "string"
        }
      ],
      "payable": false,
      "stateMutability": "view",
      "type": "function"
    },
    {
      "constant": true,
      "inputs": [
        {
          "internalType": "address",
          "name": "_owner",
          "type": "address"
        }
      ],
      "name": "balanceOf",
      "outputs": [
        {
          "internalType": "uint256",
          "name": "balance",
          "type": "uint256"
        }
      ],
      "payable": false,
      "stateMutability": "view",
      "type": "function"
    },
    {
      "constant": true,
      "inputs": [],
      "name": "totalSupply",
      "outputs": [
        {
          "internalType": "uint256",
          "name": "total",
          "type": "uint256"
        }
      ],
      "payable": false,
      "stateMutability": "view",
      "type": "function"
    },
    {
      "constant": true,
      "inputs": [
        {
          "internalType": "uint256",
          "name": "_tokenId",
          "type": "uint256"
        }
      ],
      "name": "ownerOf",
      "outputs": [
        {
          "internalType": "address",
          "name": "owner",
          "type": "address"
        }
      ],
      "payable": false,
      "stateMutability": "view",
      "type": "function"
    },
    {
      "constant": false,
      "inputs": [
        {
          "internalType": "address",
          "name": "_to",
          "type": "address"
        },
        {
          "internalType": "uint256",
          "name": "_tokenId",
          "type": "uint256"
        }
      ],
      "name": "transfer",
      "outputs": [],
      "payable": false,
      "stateMutability": "nonpayable",
      "type": "function"
    },
    {
      "constant": false,
      "inputs": [
        {
          "internalType": "address",
          "name": "_approved",
          "type": "address"
        },
        {
          "internalType": "uint256",
          "name": "_tokenId",
          "type": "uint256"
        }
      ],
      "name": "approve",
      "outputs": [],
      "payable": false,
      "stateMutability": "nonpayable",
      "type": "function"
    },
    {
      "constant": false,
      "inputs": [
        {
          "internalType": "address",
          "name": "_operator",
          "type": "address"
        },
        {
          "internalType": "bool",
          "name": "_approved",
          "type": "bool"
        }
      ],
      "name": "setApprovalForAll",
      "outputs": [],
      "payable": false,
      "stateMutability": "nonpayable",
      "type": "function"
    },
    {
      "constant": true,
      "inputs": [
        {
          "internalType": "uint256",
          "name": "_tokenId",
          "type": "uint256"
        }
      ],
      "name": "getApproved",
      "outputs": [
        {
          "internalType": "address",
          "name": "",
          "type": "address"
        }
      ],
      "payable": false,
      "stateMutability": "view",
      "type": "function"
    },
    {
      "constant": true,
      "inputs": [
        {
          "internalType": "address",
          "name": "_owner",
          "type": "address"
        },
        {
          "internalType": "address",
          "name": "_operator",
          "type": "address"
        }
      ],
      "name": "isApprovedForAll",
      "outputs": [
        {
          "internalType": "bool",
          "name": "",
          "type": "bool"
        }
      ],
      "payable": false,
      "stateMutability": "view",
      "type": "function"
    },
    {
      "constant": false,
      "inputs": [
        {
          "internalType": "address",
          "name": "_from",
          "type": "address"
        },
        {
          "internalType": "address",
          "name": "_to",
          "type": "address"
        },
        {
          "internalType": "uint256",
          "name": "_tokenId",
          "type": "uint256"
        }
      ],
      "name": "safeTransferFrom",
      "outputs": [],
      "payable": false,
      "stateMutability": "nonpayable",
      "type": "function"
    },
    {
      "constant": false,
      "inputs": [
        {
          "internalType": "address",
          "name": "_from",
          "type": "address"
        },
        {
          "internalType": "address",
          "name": "_to",
          "type": "address"
        },
        {
          "internalType": "uint256",
          "name": "_tokenId",
          "type": "uint256"
        },
        {
          "internalType": "bytes",
          "name": "_data",
          "type": "bytes"
        }
      ],
      "name": "safeTransferFrom",
      "outputs": [],
      "payable": false,
      "stateMutability": "nonpayable",
      "type": "function"
    },
    {
      "constant": false,
      "inputs": [
        {
          "internalType": "address",
          "name": "_from",
          "type": "address"
        },
        {
          "internalType": "address",
          "name": "_to",
          "type": "address"
        },
        {
          "internalType": "uint256",
          "name": "_tokenId",
          "type": "uint256"
        }
      ],
      "name": "transferFrom",
      "outputs": [],
      "payable": false,
      "stateMutability": "nonpayable",
      "type": "function"
    }
  ],
  "bytecode": "0x6080604052336000806101000a81548173ffffffffffffffffffffffffffffffffffffffff021916908373ffffffffffffffffffffffffffffffffffffffff16021790555061250e806100536000396000f3fe608060405234801561001057600080fd5b50600436106101165760003560e01c806370a08231116100a2578063a9059cbb11610071578063a9059cbb14610557578063b88d4fde146105a5578063d72cfb8c14610668578063e0bb933b146106c7578063e985e9c51461075857610116565b806370a08231146103fe57806395d89b41146104565780639c542e1c146104d9578063a22cb4651461050757610116565b80631e19fa33116100e95780631e19fa331461027857806323b872dd14610296578063404d0e3e1461030457806342842e0e146103225780636352211e1461039057610116565b806306fdde031461011b578063081812fc1461019e578063095ea7b31461020c57806318160ddd1461025a575b600080fd5b6101236107d4565b6040518080602001828103825283818151815260200191508051906020019080838360005b83811015610163578082015181840152602081019050610148565b50505050905090810190601f1680156101905780820380516001836020036101000a031916815260200191505b509250505060405180910390f35b6101ca600480360360208110156101b457600080fd5b8101908080359060200190929190505050610811565b604051808273ffffffffffffffffffffffffffffffffffffffff1673ffffffffffffffffffffffffffffffffffffffff16815260200191505060405180910390f35b6102586004803603604081101561022257600080fd5b81019080803573ffffffffffffffffffffffffffffffffffffffff169060200190929190803590602001909291905050506108c8565b005b610262610a35565b6040518082815260200191505060405180910390f35b610280610a42565b6040518082815260200191505060405180910390f35b610302600480360360608110156102ac57600080fd5b81019080803573ffffffffffffffffffffffffffffffffffffffff169060200190929190803573ffffffffffffffffffffffffffffffffffffffff16906020019092919080359060200190929190505050610a48565b005b61030c610c7a565b6040518082815260200191505060405180910390f35b61038e6004803603606081101561033857600080fd5b81019080803573ffffffffffffffffffffffffffffffffffffffff169060200190929190803573ffffffffffffffffffffffffffffffffffffffff16906020019092919080359060200190929190505050610c7f565b005b6103bc600480360360208110156103a657600080fd5b8101908080359060200190929190505050610caa565b604051808273ffffffffffffffffffffffffffffffffffffffff1673ffffffffffffffffffffffffffffffffffffffff16815260200191505060405180910390f35b6104406004803603602081101561041457600080fd5b81019080803573ffffffffffffffffffffffffffffffffffffffff169060200190929190505050610d61565b6040518082815260200191505060405180910390f35b61045e610daa565b6040518080602001828103825283818151815260200191508051906020019080838360005b8381101561049e578082015181840152602081019050610483565b50505050905090810190601f1680156104cb5780820380516001836020036101000a031916815260200191505b509250505060405180910390f35b610505600480360360208110156104ef57600080fd5b8101908080359060200190929190505050610de7565b005b6105556004803603604081101561051d57600080fd5b81019080803573ffffffffffffffffffffffffffffffffffffffff169060200190929190803515159060200190929190505050610f0c565b005b6105a36004803603604081101561056d57600080fd5b81019080803573ffffffffffffffffffffffffffffffffffffffff1690602001909291908035906020019092919050505061116c565b005b610666600480360360808110156105bb57600080fd5b81019080803573ffffffffffffffffffffffffffffffffffffffff169060200190929190803573ffffffffffffffffffffffffffffffffffffffff169060200190929190803590602001909291908035906020019064010000000081111561062257600080fd5b82018360208201111561063457600080fd5b8035906020019184600183028401116401000000008311171561065657600080fd5b90919293919293905050506111f7565b005b610670611259565b6040518080602001828103825283818151815260200191508051906020019060200280838360005b838110156106b3578082015181840152602081019050610698565b505050509050019250505060405180910390f35b6106f3600480360360208110156106dd57600080fd5b8101908080359060200190929190505050611376565b604051808781526020018681526020018581526020018481526020018381526020018273ffffffffffffffffffffffffffffffffffffffff1673ffffffffffffffffffffffffffffffffffffffff168152602001965050505050505060405180910390f35b6107ba6004803603604081101561076e57600080fd5b81019080803573ffffffffffffffffffffffffffffffffffffffff169060200190929190803573ffffffffffffffffffffffffffffffffffffffff169060200190929190505050611545565b604051808215151515815260200191505060405180910390f35b60606040518060400160405280600d81526020017f4d61726b7573447261676f6e7300000000000000000000000000000000000000815250905090565b6000600180549050821061088d576040517f08c379a00000000000000000000000000000000000000000000000000000000081526004018080602001828103825260148152602001807f546f6b656e20646f6573206e6f7420657869737400000000000000000000000081525060200191505060405180910390fd5b6004600083815260200190815260200160002060009054906101000a900473ffffffffffffffffffffffffffffffffffffffff169050919050565b600073ffffffffffffffffffffffffffffffffffffffff168273ffffffffffffffffffffffffffffffffffffffff16141561094e576040517f08c379a00000000000000000000000000000000000000000000000000000000081526004018080602001828103825260248152602001806124446024913960400191505060405180910390fd5b60018054905081106109c8576040517f08c379a00000000000000000000000000000000000000000000000000000000081526004018080602001828103825260148152602001807f546f6b656e20646f6573206e6f7420657869737400000000000000000000000081525060200191505060405180910390fd5b6109d233826115d9565b610a27576040517f08c379a00000000000000000000000000000000000000000000000000000000081526004018080602001828103825260268152602001806123d66026913960400191505060405180910390fd5b610a318282611645565b5050565b6000600180549050905090565b60065481565b600073ffffffffffffffffffffffffffffffffffffffff168273ffffffffffffffffffffffffffffffffffffffff161415610aeb576040517f08c379a000000000000000000000000000000000000000000000000000000000815260040180806020018281038252601f8152602001807f43616e6e6f74207472616e7366657220746f207a65726f20616464726573730081525060200191505060405180910390fd5b6001805490508110610b65576040517f08c379a00000000000000000000000000000000000000000000000000000000081526004018080602001828103825260148152602001807f546f6b656e20646f6573206e6f7420657869737400000000000000000000000081525060200191505060405180910390fd5b8273ffffffffffffffffffffffffffffffffffffffff163373ffffffffffffffffffffffffffffffffffffffff161480610ba55750610ba433826116f6565b5b80610bb65750610bb58333611762565b5b610c0b576040517f08c379a00000000000000000000000000000000000000000000000000000000081526004018080602001828103825260488152602001806123fc6048913960600191505060405180910390fd5b610c1583826115d9565b610c6a576040517f08c379a00000000000000000000000000000000000000000000000000000000081526004018080602001828103825260238152602001806124b76023913960400191505060405180910390fd5b610c758383836117f6565b505050565b600a81565b610c8a838383611a3f565b610ca583838360405180602001604052806000815250611c66565b505050565b60006001805490508210610d26576040517f08c379a00000000000000000000000000000000000000000000000000000000081526004018080602001828103825260148152602001807f546f6b656e20646f6573206e6f7420657869737400000000000000000000000081525060200191505060405180910390fd5b6002600083815260200190815260200160002060009054906101000a900473ffffffffffffffffffffffffffffffffffffffff169050919050565b6000600360008373ffffffffffffffffffffffffffffffffffffffff1673ffffffffffffffffffffffffffffffffffffffff168152602001908152602001600020549050919050565b60606040518060400160405280600281526020017f4d44000000000000000000000000000000000000000000000000000000000000815250905090565b3373ffffffffffffffffffffffffffffffffffffffff166000809054906101000a900473ffffffffffffffffffffffffffffffffffffffff1673ffffffffffffffffffffffffffffffffffffffff1614610e8c576040517f08c379a00000000000000000000000000000000000000000000000000000000081526004018080602001828103825260268152602001806123b06026913960400191505060405180910390fd5b600a60065410610ee7576040517f08c379a00000000000000000000000000000000000000000000000000000000081526004018080602001828103825260288152602001806124686028913960400191505060405180910390fd5b600660008154809291906001019190505550610f0881600080600033611c8c565b5050565b3373ffffffffffffffffffffffffffffffffffffffff166000809054906101000a900473ffffffffffffffffffffffffffffffffffffffff1673ffffffffffffffffffffffffffffffffffffffff1614610fb1576040517f08c379a00000000000000000000000000000000000000000000000000000000081526004018080602001828103825260268152602001806123b06026913960400191505060405180910390fd5b3373ffffffffffffffffffffffffffffffffffffffff168273ffffffffffffffffffffffffffffffffffffffff161415611036576040517f08c379a00000000000000000000000000000000000000000000000000000000081526004018080602001828103825260238152602001806123666023913960400191505060405180910390fd5b600073ffffffffffffffffffffffffffffffffffffffff168273ffffffffffffffffffffffffffffffffffffffff1614156110d9576040517f08c379a00000000000000000000000000000000000000000000000000000000081526004018080602001828103825260208152602001807f4f70657261746f722063616e6e6f74206265207468652030206164647265737381525060200191505060405180910390fd5b3073ffffffffffffffffffffffffffffffffffffffff168273ffffffffffffffffffffffffffffffffffffffff16141561115e576040517f08c379a00000000000000000000000000000000000000000000000000000000081526004018080602001828103825260278152602001806124906027913960400191505060405180910390fd5b6111688282611e5d565b5050565b61117633826115d9565b6111e8576040517f08c379a000000000000000000000000000000000000000000000000000000000815260040180806020018281038252601d8152602001807f546f6b656e206d757374206265206f776e65642062792073656e64657200000081525060200191505060405180910390fd5b6111f33383836117f6565b5050565b611202858585611a3f565b61125285858585858080601f016020809104026020016040519081016040528093929190818152602001838380828437600081840152601f19601f82011690508083019250505050505050611c66565b5050505050565b606080600360003373ffffffffffffffffffffffffffffffffffffffff1673ffffffffffffffffffffffffffffffffffffffff168152602001908152602001600020546040519080825280602002602001820160405280156112ca5781602001602082028038833980820191505090505b50905060008090505b60018054905081101561136e573373ffffffffffffffffffffffffffffffffffffffff166002600083815260200190815260200160002060009054906101000a900473ffffffffffffffffffffffffffffffffffffffff1673ffffffffffffffffffffffffffffffffffffffff161415611361578082828151811061135457fe5b6020026020010181815250505b80806001019150506112d3565b508091505090565b60008060008060008060018054905087106113f9576040517f08c379a00000000000000000000000000000000000000000000000000000000081526004018080602001828103825260148152602001807f546f6b656e20646f6573206e6f7420657869737400000000000000000000000081525060200191505060405180910390fd5b6001878154811061140657fe5b9060005260206000209060020201600001546001888154811061142557fe5b906000526020600020906002020160010160009054906101000a900467ffffffffffffffff166001898154811061145857fe5b906000526020600020906002020160010160089054906101000a900463ffffffff1660018a8154811061148757fe5b9060005260206000209060020201600101600c9054906101000a900463ffffffff1660018b815481106114b657fe5b906000526020600020906002020160010160109054906101000a900461ffff16600260008d815260200190815260200160002060009054906101000a900473ffffffffffffffffffffffffffffffffffffffff168467ffffffffffffffff1694508363ffffffff1693508263ffffffff1692508161ffff16915095509550955095509550955091939550919395565b6000600560008473ffffffffffffffffffffffffffffffffffffffff1673ffffffffffffffffffffffffffffffffffffffff16815260200190815260200160002060008373ffffffffffffffffffffffffffffffffffffffff1673ffffffffffffffffffffffffffffffffffffffff16815260200190815260200160002060009054906101000a900460ff16905092915050565b60006002600083815260200190815260200160002060009054906101000a900473ffffffffffffffffffffffffffffffffffffffff1673ffffffffffffffffffffffffffffffffffffffff168373ffffffffffffffffffffffffffffffffffffffff1614905092915050565b816004600083815260200190815260200160002060006101000a81548173ffffffffffffffffffffffffffffffffffffffff021916908373ffffffffffffffffffffffffffffffffffffffff160217905550808273ffffffffffffffffffffffffffffffffffffffff163373ffffffffffffffffffffffffffffffffffffffff167f8c5be1e5ebec7d5bd14f71427d1e84f3dd0314c0f7b2291e5b200ac8c7c3b92560405160405180910390a45050565b60006004600083815260200190815260200160002060009054906101000a900473ffffffffffffffffffffffffffffffffffffffff1673ffffffffffffffffffffffffffffffffffffffff168373ffffffffffffffffffffffffffffffffffffffff1614905092915050565b6000600560008473ffffffffffffffffffffffffffffffffffffffff1673ffffffffffffffffffffffffffffffffffffffff16815260200190815260200160002060008373ffffffffffffffffffffffffffffffffffffffff1673ffffffffffffffffffffffffffffffffffffffff16815260200190815260200160002060009054906101000a900460ff16905092915050565b6118496001600360008573ffffffffffffffffffffffffffffffffffffffff1673ffffffffffffffffffffffffffffffffffffffff16815260200190815260200160002054611f5e90919063ffffffff16565b600360008473ffffffffffffffffffffffffffffffffffffffff1673ffffffffffffffffffffffffffffffffffffffff16815260200190815260200160002081905550816002600083815260200190815260200160002060006101000a81548173ffffffffffffffffffffffffffffffffffffffff021916908373ffffffffffffffffffffffffffffffffffffffff160217905550600073ffffffffffffffffffffffffffffffffffffffff168373ffffffffffffffffffffffffffffffffffffffff16146119df576119656001600360008673ffffffffffffffffffffffffffffffffffffffff1673ffffffffffffffffffffffffffffffffffffffff16815260200190815260200160002054611fe690919063ffffffff16565b600360008573ffffffffffffffffffffffffffffffffffffffff1673ffffffffffffffffffffffffffffffffffffffff168152602001908152602001600020819055506004600082815260200190815260200160002060006101000a81549073ffffffffffffffffffffffffffffffffffffffff02191690555b808273ffffffffffffffffffffffffffffffffffffffff168473ffffffffffffffffffffffffffffffffffffffff167fddf252ad1be2c89b69c2b068fc378daa952ba7f163c4a11628f55a4df523b3ef60405160405180910390a4505050565b600073ffffffffffffffffffffffffffffffffffffffff168273ffffffffffffffffffffffffffffffffffffffff161415611ae2576040517f08c379a000000000000000000000000000000000000000000000000000000000815260040180806020018281038252601c8152602001807f43616e6e6f74207472616e7366657220746f203020616464726573730000000081525060200191505060405180910390fd5b6001805490508110611b5c576040517f08c379a00000000000000000000000000000000000000000000000000000000081526004018080602001828103825260148152602001807f546f6b656e20646f6573206e6f7420657869737400000000000000000000000081525060200191505060405180910390fd5b8273ffffffffffffffffffffffffffffffffffffffff163373ffffffffffffffffffffffffffffffffffffffff161480611b9c5750611b9b33826116f6565b5b80611bad5750611bac8333611762565b5b611c02576040517f08c379a00000000000000000000000000000000000000000000000000000000081526004018080602001828103825260488152602001806123fc6048913960600191505060405180910390fd5b611c0c83826115d9565b611c61576040517f08c379a00000000000000000000000000000000000000000000000000000000081526004018080602001828103825260278152602001806123896027913960400191505060405180910390fd5b505050565b611c718484846117f6565b611c7d84848484612030565b611c8657600080fd5b50505050565b6000611c966122ed565b6040518060a001604052808881526020014267ffffffffffffffff1681526020018763ffffffff1681526020018663ffffffff1681526020018561ffff1681525090506000600180549050905060018083908060018154018082558091505090600182039060005260206000209060020201600090919290919091506000820151816000015560208201518160010160006101000a81548167ffffffffffffffff021916908367ffffffffffffffff16021790555060408201518160010160086101000a81548163ffffffff021916908363ffffffff160217905550606082015181600101600c6101000a81548163ffffffff021916908363ffffffff16021790555060808201518160010160106101000a81548161ffff021916908361ffff160217905550505050507f0a5311bd2a6608f08a180df2ee7c5946819a649b204b554bb8e39825b2c50ad584828a898b604051808673ffffffffffffffffffffffffffffffffffffffff1673ffffffffffffffffffffffffffffffffffffffff1681526020018581526020018481526020018381526020018281526020019550505050505060405180910390a1611e4f600085836117f6565b809250505095945050505050565b80600560003373ffffffffffffffffffffffffffffffffffffffff1673ffffffffffffffffffffffffffffffffffffffff16815260200190815260200160002060008473ffffffffffffffffffffffffffffffffffffffff1673ffffffffffffffffffffffffffffffffffffffff16815260200190815260200160002060006101000a81548160ff0219169083151502179055508173ffffffffffffffffffffffffffffffffffffffff163373ffffffffffffffffffffffffffffffffffffffff167f17307eab39ab6107e8899845ad3d59bd9653f200f220920489ca2b5937696c3183604051808215151515815260200191505060405180910390a35050565b600080828401905083811015611fdc576040517f08c379a000000000000000000000000000000000000000000000000000000000815260040180806020018281038252601b8152602001807f536166654d6174683a206164646974696f6e206f766572666c6f77000000000081525060200191505060405180910390fd5b8091505092915050565b600061202883836040518060400160405280601e81526020017f536166654d6174683a207375627472616374696f6e206f766572666c6f770000815250612214565b905092915050565b600061203b846122d4565b612048576001905061220c565b60008473ffffffffffffffffffffffffffffffffffffffff1663150b7a02338887876040518563ffffffff1660e01b8152600401808573ffffffffffffffffffffffffffffffffffffffff1673ffffffffffffffffffffffffffffffffffffffff1681526020018473ffffffffffffffffffffffffffffffffffffffff1673ffffffffffffffffffffffffffffffffffffffff16815260200183815260200180602001828103825283818151815260200191508051906020019080838360005b83811015612123578082015181840152602081019050612108565b50505050905090810190601f1680156121505780820380516001836020036101000a031916815260200191505b5095505050505050602060405180830381600087803b15801561217257600080fd5b505af1158015612186573d6000803e3d6000fd5b505050506040513d602081101561219c57600080fd5b810190808051906020019092919050505090506040518080612337602f9139602f01905060405180910390207bffffffffffffffffffffffffffffffffffffffffffffffffffffffff1916817bffffffffffffffffffffffffffffffffffffffffffffffffffffffff1916149150505b949350505050565b60008383111582906122c1576040517f08c379a00000000000000000000000000000000000000000000000000000000081526004018080602001828103825283818151815260200191508051906020019080838360005b8381101561228657808201518184015260208101905061226b565b50505050905090810190601f1680156122b35780820380516001836020036101000a031916815260200191505b509250505060405180910390fd5b5060008385039050809150509392505050565b600080823b905060008163ffffffff1611915050919050565b6040518060a0016040528060008152602001600067ffffffffffffffff168152602001600063ffffffff168152602001600063ffffffff168152602001600061ffff168152509056fe6f6e455243373231526563656976656428616464726573732c616464726573732c75696e743235362c627974657329596f752063616e6e6f742073657420796f757273656c66206173206f70657261746f72546f6b656e206d757374206265206f776e65642062792074686520616464726573732066726f6d596f7520617265206e6f7420746865206f776e6572206f66207468697320636f6e7472616374596f7520617265206e6f7420746865206f776e6572206f66207468697320746f6b656e204944546865206f776e6572206d7573742062652074686520616464726573732066726f6d2c20617070726f766564206f7220616e206f70657261746f72206f6620746865206f776e657254686520617070726f7665642063616e6e6f742062652074686520302061646472657373546865206c696d6974206f662067656e65726174696f6e203020647261676f6e732069733a2031304f70657261746f722063616e6e6f742062652074686520636f6e74726163742061646472657373546f6b656e206d757374206265206f776e656420627920616464726573732066726f6da265627a7a7231582019ce3f9f15dab40191efed96516b9ecf7d4446f2d58d080c8a09b931511fefdb64736f6c634300050c0032",
  "source": "pragma solidity ^0.5.12;\n\nimport \"./IERC721.sol\";\nimport \"./IERC721Receiver.sol\";\nimport \"./Safemath.sol\";\nimport \"./Ownable.sol\";\n\ncontract Dragoncontract is IERC721, Ownable {\n\n  using SafeMath for uint256;\n\n  uint256 public constant gen0CreationLimit = 10;\n  string private constant nameOfToken = \"MarkusDragons\";\n  string private constant symbolOfToken = \"MD\";\n\n  bytes4 private constant ERC721VerificationNum = bytes4(keccak256(\"onERC721Received(address,address,uint256,bytes)\"));\n\n  event Birth(\n    address owner,\n    uint256 dragonId,\n    uint256 genes,\n    uint256 dadId,\n    uint256 momId\n  );\n\n  struct Dragon {\n    uint256 genes;\n    uint64 birthTime;\n    uint32 dadId;\n    uint32 momId;\n    uint16 generation;\n  }\n\n  Dragon[] private dragons;\n\n  mapping(uint256 => address) private dragonOwners;\n  mapping(address => uint256) private tokenBalances;\n\n  mapping(uint256 => address) private approvedByDragonIndex;\n  mapping(address => mapping(address => bool)) private operatorApproval;\n\n  uint256 public gen0Total;\n\n  function getDragon(uint256 _tokenId) external view returns (\n    uint256 genes,\n    uint256 birthTime,\n    uint256 dadId,\n    uint256 momId,\n    uint256 generation,\n    address owner) {\n      require(_tokenId < dragons.length, \"Token does not exist\");\n      return (\n        dragons[_tokenId].genes,\n        dragons[_tokenId].birthTime,\n        dragons[_tokenId].dadId,\n        dragons[_tokenId].momId,\n        dragons[_tokenId].generation,\n        dragonOwners[_tokenId]\n      );\n    }\n\n    function allOwnedDragons() external view returns(uint256[] memory) {\n        uint256[] memory ownedDragons = new uint256[](tokenBalances[msg.sender]);\n        for(uint256 i = 0; i < dragons.length; i++) {\n          if(dragonOwners[i] == msg.sender) {\n            ownedDragons[i] = i;\n          }\n        }\n        return ownedDragons;\n    }\n\n  function createDragonGen0(uint256 _genes) external onlyOwner {\n    require(gen0Total < gen0CreationLimit, \"The limit of generation 0 dragons is: 10\");\n\n    gen0Total++;\n\n    _createDragon(_genes, 0, 0, 0, msg.sender);\n  }\n\n  function _createDragon(\n    uint256 _genes,\n    uint256 _dadId,\n    uint256 _momId,\n    uint256 _generation,\n    address _owner\n  ) private returns (uint256) {\n      Dragon memory _dragon = Dragon(_genes, uint64(now), uint32(_dadId), uint32(_momId), uint16(_generation));\n\n      uint256 newDragonId = dragons.length;\n      dragons.push(_dragon) - 1;\n\n      emit Birth(_owner, newDragonId, _genes, _momId, _dadId);\n\n      _transfer(address(0), _owner, newDragonId);\n\n      return newDragonId;\n  }\n\n  function name() external view returns (string memory tokenName) {\n    return nameOfToken;\n  }\n\n  function symbol() external view returns (string memory tokenSymbol) {\n    return symbolOfToken;\n  }\n\n  function balanceOf(address _owner) external view returns (uint256 balance) {\n    return tokenBalances[_owner];\n  }\n\n  function totalSupply() external view returns (uint256 total) {\n    return dragons.length;\n  }\n\n  function ownerOf(uint256 _tokenId) external view returns (address owner) {\n    require(_tokenId < dragons.length, \"Token does not exist\");\n    return dragonOwners[_tokenId];\n  }\n\n  function transfer(address _to, uint256 _tokenId) external {\n    require(_owns(msg.sender, _tokenId), \"Token must be owned by sender\");\n\n    _transfer(msg.sender, _to, _tokenId);\n  }\n\n  function _transfer(address _from, address _to, uint256 _tokenId) private {\n    tokenBalances[_to] = tokenBalances[_to].add(1);\n\n    dragonOwners[_tokenId] = _to;\n\n    if (_from != address(0)) {\n      tokenBalances[_from] = tokenBalances[_from].sub(1);\n      delete approvedByDragonIndex[_tokenId];\n    }\n\n    emit Transfer(_from, _to, _tokenId);\n  }\n\n  function approve(address _approved, uint256 _tokenId) external {\n    require(_approved != address(0), \"The approved cannot be the 0 address\");\n    require(_tokenId < dragons.length, \"Token does not exist\");\n    require(_owns(msg.sender, _tokenId), \"You are not the owner of this token ID\");\n\n    _approve(_approved, _tokenId);\n  }\n\n  function _approve(address _approved, uint256 _tokenId) private {\n\n    approvedByDragonIndex[_tokenId] = _approved;\n\n    emit Approval(msg.sender, _approved, _tokenId);\n  }\n\n  function setApprovalForAll(address _operator, bool _approved) external onlyOwner {\n    require(_operator != msg.sender, \"You cannot set yourself as operator\");\n    require(_operator != address(0), \"Operator cannot be the 0 address\");\n    require(_operator != address(this), \"Operator cannot be the contract address\");\n\n    _setApprovalForAll(_operator, _approved);\n  }\n\n  function _setApprovalForAll(address _operator, bool _approved) private {\n    operatorApproval[msg.sender][_operator] = _approved;\n\n    emit ApprovalForAll(msg.sender, _operator, _approved);\n  }\n\n  function getApproved(uint256 _tokenId) external view returns (address) {\n    require(_tokenId < dragons.length, \"Token does not exist\");\n\n    return approvedByDragonIndex[_tokenId];\n  }\n\n  function isApprovedForAll(address _owner, address _operator) external view returns (bool) {\n    return operatorApproval[_owner][_operator];\n  }\n\n  function safeTransferFrom(address _from, address _to, uint256 _tokenId, bytes calldata _data) external {\n    _safeTransferRequire(_from, _to, _tokenId);\n\n    _safeTransfer(_from, _to, _tokenId, _data);\n  }\n\n  function safeTransferFrom(address _from, address _to, uint256 _tokenId) external {\n    _safeTransferRequire(_from, _to, _tokenId);\n\n    _safeTransfer(_from, _to, _tokenId, \"\");\n  }\n\n  function _safeTransfer(address _from, address _to, uint256 _tokenId, bytes memory _data) private {\n    _transfer(_from, _to, _tokenId);\n    require(_checkERC721Support(_from, _to, _tokenId, _data));\n  }\n\n  function transferFrom(address _from, address _to, uint256 _tokenId) external {\n    require(_to != address(0), \"Cannot transfer to zero address\");\n    require(_tokenId < dragons.length, \"Token does not exist\");\n    require(msg.sender == _from || _isApproved(msg.sender, _tokenId) || _isApprovedForAll(_from, msg.sender), \"The owner must be the address from, approved or an operator of the owner\");\n    require(_owns(_from, _tokenId), \"Token must be owned by address from\");\n\n    _transfer(_from, _to, _tokenId);\n  }\n\n  function _isApproved(address _claimant, uint256 _tokenId) private view returns (bool) {\n    return _claimant == approvedByDragonIndex[_tokenId];\n  }\n\n  function _isApprovedForAll(address _owner, address _operator) private view returns (bool) {\n    return operatorApproval[_owner][_operator];\n  }\n\n  function _checkERC721Support(address _from, address _to, uint256 _tokenId, bytes memory _data) private returns (bool) {\n    if(!_isContract(_to)) {\n      return true;\n    }\n    else {\n      bytes4 returnData = IERC721Receiver(_to).onERC721Received(msg.sender, _from, _tokenId, _data);\n      return returnData == ERC721VerificationNum;\n    }\n  }\n\n  function _isContract(address _to) private view returns (bool) {\n    uint32 size;\n    assembly{\n      size := extcodesize(_to)\n    }\n    return size > 0;\n  }\n\n  function _safeTransferRequire(address _from, address _to, uint256 _tokenId) private view {\n    require(_to != address(0), \"Cannot transfer to 0 address\");\n    require(_tokenId < dragons.length, \"Token does not exist\");\n    require(msg.sender == _from || _isApproved(msg.sender, _tokenId) || _isApprovedForAll(_from, msg.sender), \"The owner must be the address from, approved or an operator of the owner\");\n    require(_owns(_from, _tokenId), \"Token must be owned by the address from\");\n  }\n\n  function _owns(address _claimant, uint256 _tokenId) private view returns (bool) {\n    return _claimant == dragonOwners[_tokenId];\n  }\n}\n",
  "sourcePath": "/Users/markusbielaszka/Documents/Crypto-Dragons/contracts/Dragoncontract.sol",
  "compiler": {
    "name": "solc",
    "version": "0.5.12+commit.7709ece9.Emscripten.clang"
  },
  "schemaVersion": "3.2.0",
  "updatedAt": "2021-04-28T17:03:44.946Z",
  "devdoc": {
    "methods": {}
  },
  "userdoc": {
    "methods": {}
  }
}