{
  "contractName": "DragonMarketplace",
  "abi": [
    {
      "inputs": [
        {
          "internalType": "address",
          "name": "dragonContract",
          "type": "address"
        },
        {
          "internalType": "address",
          "name": "paymentGateway",
          "type": "address"
        }
      ],
      "stateMutability": "nonpayable",
      "type": "constructor"
    },
    {
      "anonymous": false,
      "inputs": [
        {
          "indexed": false,
          "internalType": "string",
          "name": "TxType",
          "type": "string"
        },
        {
          "indexed": false,
          "internalType": "address",
          "name": "owner",
          "type": "address"
        },
        {
          "indexed": false,
          "internalType": "uint256",
          "name": "tokenId",
          "type": "uint256"
        }
      ],
      "name": "MarketTransaction",
      "type": "event"
    },
    {
      "anonymous": false,
      "inputs": [
        {
          "indexed": true,
          "internalType": "address",
          "name": "previousOwner",
          "type": "address"
        },
        {
          "indexed": true,
          "internalType": "address",
          "name": "newOwner",
          "type": "address"
        }
      ],
      "name": "OwnershipTransferred",
      "type": "event"
    },
    {
      "inputs": [],
      "name": "owner",
      "outputs": [
        {
          "internalType": "address",
          "name": "",
          "type": "address"
        }
      ],
      "stateMutability": "view",
      "type": "function",
      "constant": true
    },
    {
      "inputs": [],
      "name": "renounceOwnership",
      "outputs": [],
      "stateMutability": "nonpayable",
      "type": "function"
    },
    {
      "inputs": [
        {
          "internalType": "address",
          "name": "newOwner",
          "type": "address"
        }
      ],
      "name": "transferOwnership",
      "outputs": [],
      "stateMutability": "nonpayable",
      "type": "function"
    },
    {
      "inputs": [
        {
          "internalType": "address",
          "name": "_dragonContractAddress",
          "type": "address"
        }
      ],
      "name": "setDragonContract",
      "outputs": [],
      "stateMutability": "nonpayable",
      "type": "function"
    },
    {
      "inputs": [
        {
          "internalType": "address",
          "name": "_paymentGatewayAddress",
          "type": "address"
        }
      ],
      "name": "setPaymentGateway",
      "outputs": [],
      "stateMutability": "nonpayable",
      "type": "function"
    },
    {
      "inputs": [
        {
          "internalType": "uint256",
          "name": "_tokenId",
          "type": "uint256"
        }
      ],
      "name": "getOffer",
      "outputs": [
        {
          "internalType": "address",
          "name": "seller",
          "type": "address"
        },
        {
          "internalType": "uint256",
          "name": "price",
          "type": "uint256"
        },
        {
          "internalType": "uint256",
          "name": "index",
          "type": "uint256"
        },
        {
          "internalType": "uint256",
          "name": "tokenId",
          "type": "uint256"
        },
        {
          "internalType": "bool",
          "name": "active",
          "type": "bool"
        }
      ],
      "stateMutability": "view",
      "type": "function",
      "constant": true
    },
    {
      "inputs": [
        {
          "internalType": "uint256",
          "name": "_tokenId",
          "type": "uint256"
        }
      ],
      "name": "getActiveStatus",
      "outputs": [
        {
          "internalType": "bool",
          "name": "active",
          "type": "bool"
        }
      ],
      "stateMutability": "view",
      "type": "function",
      "constant": true
    },
    {
      "inputs": [],
      "name": "getAllTokenOnSale",
      "outputs": [
        {
          "internalType": "uint256[]",
          "name": "listOfOffers",
          "type": "uint256[]"
        }
      ],
      "stateMutability": "view",
      "type": "function",
      "constant": true
    },
    {
      "inputs": [
        {
          "internalType": "uint256",
          "name": "_price",
          "type": "uint256"
        },
        {
          "internalType": "uint256",
          "name": "_tokenId",
          "type": "uint256"
        }
      ],
      "name": "setOffer",
      "outputs": [],
      "stateMutability": "nonpayable",
      "type": "function"
    },
    {
      "inputs": [
        {
          "internalType": "uint256",
          "name": "_tokenId",
          "type": "uint256"
        }
      ],
      "name": "removeOffer",
      "outputs": [],
      "stateMutability": "nonpayable",
      "type": "function"
    },
    {
      "inputs": [
        {
          "internalType": "uint256",
          "name": "_tokenId",
          "type": "uint256"
        },
        {
          "internalType": "uint256",
          "name": "_price",
          "type": "uint256"
        }
      ],
      "name": "buyDragon",
      "outputs": [],
      "stateMutability": "payable",
      "type": "function",
      "payable": true
    }
  ],
  "bytecode": "0x60806040523480156200001157600080fd5b506040516200203338038062002033833981810160405281019062000037919062000333565b620000576200004b6200008160201b60201c565b6200008960201b60201c565b62000068826200014d60201b60201c565b62000079816200022060201b60201c565b505062000450565b600033905090565b60008060009054906101000a900473ffffffffffffffffffffffffffffffffffffffff169050816000806101000a81548173ffffffffffffffffffffffffffffffffffffffff021916908373ffffffffffffffffffffffffffffffffffffffff1602179055508173ffffffffffffffffffffffffffffffffffffffff168173ffffffffffffffffffffffffffffffffffffffff167f8be0079c531659141344cd1fd0a4f28419497f9722a3daafe3b4186f6b6457e060405160405180910390a35050565b6200015d6200008160201b60201c565b73ffffffffffffffffffffffffffffffffffffffff1662000183620002f360201b60201c565b73ffffffffffffffffffffffffffffffffffffffff1614620001dc576040517f08c379a0000000000000000000000000000000000000000000000000000000008152600401620001d390620003a1565b60405180910390fd5b80600160006101000a81548173ffffffffffffffffffffffffffffffffffffffff021916908373ffffffffffffffffffffffffffffffffffffffff16021790555050565b620002306200008160201b60201c565b73ffffffffffffffffffffffffffffffffffffffff1662000256620002f360201b60201c565b73ffffffffffffffffffffffffffffffffffffffff1614620002af576040517f08c379a0000000000000000000000000000000000000000000000000000000008152600401620002a690620003a1565b60405180910390fd5b80600260006101000a81548173ffffffffffffffffffffffffffffffffffffffff021916908373ffffffffffffffffffffffffffffffffffffffff16021790555050565b60008060009054906101000a900473ffffffffffffffffffffffffffffffffffffffff16905090565b6000815190506200032d8162000436565b92915050565b600080604083850312156200034d576200034c62000408565b5b60006200035d858286016200031c565b925050602062000370858286016200031c565b9150509250929050565b600062000389602083620003c3565b915062000396826200040d565b602082019050919050565b60006020820190508181036000830152620003bc816200037a565b9050919050565b600082825260208201905092915050565b6000620003e182620003e8565b9050919050565b600073ffffffffffffffffffffffffffffffffffffffff82169050919050565b600080fd5b7f4f776e61626c653a2063616c6c6572206973206e6f7420746865206f776e6572600082015250565b6200044181620003d4565b81146200044d57600080fd5b50565b611bd380620004606000396000f3fe60806040526004361061009c5760003560e01c8063941b055b11610064578063941b055b1461017857806395a0f9c7146101a1578063c007ae75146101ca578063ecc6b2fd146101e6578063f2fde38b14610223578063fd01a7ee1461024c5761009c565b8063039f14b0146100a15780634579268a146100ca57806349b3709f1461010b578063715018a6146101365780638da5cb5b1461014d575b600080fd5b3480156100ad57600080fd5b506100c860048036038101906100c391906110f7565b610275565b005b3480156100d657600080fd5b506100f160048036038101906100ec9190611151565b610335565b6040516101029594939291906114a4565b60405180910390f35b34801561011757600080fd5b506101206103f0565b60405161012d91906114f7565b60405180910390f35b34801561014257600080fd5b5061014b610504565b005b34801561015957600080fd5b5061016261058c565b60405161016f9190611400565b60405180910390f35b34801561018457600080fd5b5061019f600480360381019061019a919061117e565b6105b5565b005b3480156101ad57600080fd5b506101c860048036038101906101c39190611151565b6109c7565b005b6101e460048036038101906101df919061117e565b610b30565b005b3480156101f257600080fd5b5061020d60048036038101906102089190611151565b610d47565b60405161021a9190611519565b60405180910390f35b34801561022f57600080fd5b5061024a600480360381019061024591906110f7565b610d74565b005b34801561025857600080fd5b50610273600480360381019061026e91906110f7565b610e6c565b005b61027d610f2c565b73ffffffffffffffffffffffffffffffffffffffff1661029b61058c565b73ffffffffffffffffffffffffffffffffffffffff16146102f1576040517f08c379a00000000000000000000000000000000000000000000000000000000081526004016102e89061164c565b60405180910390fd5b80600160006101000a81548173ffffffffffffffffffffffffffffffffffffffff021916908373ffffffffffffffffffffffffffffffffffffffff16021790555050565b60008060008060006004600087815260200190815260200160002060000160009054906101000a900473ffffffffffffffffffffffffffffffffffffffff1660046000888152602001908152602001600020600101546004600089815260200190815260200160002060020154600460008a815260200190815260200160002060030154600460008b815260200190815260200160002060040160009054906101000a900460ff169450945094509450945091939590929450565b6060600060038054905067ffffffffffffffff81111561041357610412611857565b5b6040519080825280602002602001820160405280156104415781602001602082028036833780820191505090505b5090506000805b6003805490508110156104fb57600115156003828154811061046d5761046c611828565b5b906000526020600020906005020160040160009054906101000a900460ff16151514156104e857600381815481106104a8576104a7611828565b5b9060005260206000209060050201600301548383815181106104cd576104cc611828565b5b60200260200101818152505081806104e4906117b0565b9250505b80806104f3906117b0565b915050610448565b50819250505090565b61050c610f2c565b73ffffffffffffffffffffffffffffffffffffffff1661052a61058c565b73ffffffffffffffffffffffffffffffffffffffff1614610580576040517f08c379a00000000000000000000000000000000000000000000000000000000081526004016105779061164c565b60405180910390fd5b61058a6000610f34565b565b60008060009054906101000a900473ffffffffffffffffffffffffffffffffffffffff16905090565b600160009054906101000a900473ffffffffffffffffffffffffffffffffffffffff1673ffffffffffffffffffffffffffffffffffffffff1663e21fd9fc33836040518363ffffffff1660e01b815260040161061292919061147b565b60206040518083038186803b15801561062a57600080fd5b505afa15801561063e573d6000803e3d6000fd5b505050506040513d601f19601f820116820180604052508101906106629190611124565b6106a1576040517f08c379a00000000000000000000000000000000000000000000000000000000081526004016106989061162c565b60405180910390fd5b6004600082815260200190815260200160002060040160009054906101000a900460ff1615610705576040517f08c379a00000000000000000000000000000000000000000000000000000000081526004016106fc906115ec565b60405180910390fd5b600160009054906101000a900473ffffffffffffffffffffffffffffffffffffffff1673ffffffffffffffffffffffffffffffffffffffff1663e985e9c533306040518363ffffffff1660e01b8152600401610762929190611452565b60206040518083038186803b15801561077a57600080fd5b505afa15801561078e573d6000803e3d6000fd5b505050506040513d601f19601f820116820180604052508101906107b29190611124565b6107f1576040517f08c379a00000000000000000000000000000000000000000000000000000000081526004016107e89061166c565b60405180910390fd5b60006040518060a001604052803373ffffffffffffffffffffffffffffffffffffffff1681526020018481526020016003805490508152602001838152602001600115158152509050806004600084815260200190815260200160002060008201518160000160006101000a81548173ffffffffffffffffffffffffffffffffffffffff021916908373ffffffffffffffffffffffffffffffffffffffff16021790555060208201518160010155604082015181600201556060820151816003015560808201518160040160006101000a81548160ff021916908315150217905550905050600381908060018154018082558091505060019003906000526020600020906005020160009091909190915060008201518160000160006101000a81548173ffffffffffffffffffffffffffffffffffffffff021916908373ffffffffffffffffffffffffffffffffffffffff16021790555060208201518160010155604082015181600201556060820151816003015560808201518160040160006101000a81548160ff02191690831515021790555050507fd99e4fad9ad6313b1feb588fa8e605e3a9873172f2024330c35dd2b4041a438633836040516109ba92919061168c565b60405180910390a1505050565b6000600460008381526020019081526020016000206040518060a00160405290816000820160009054906101000a900473ffffffffffffffffffffffffffffffffffffffff1673ffffffffffffffffffffffffffffffffffffffff1673ffffffffffffffffffffffffffffffffffffffff1681526020016001820154815260200160028201548152602001600382015481526020016004820160009054906101000a900460ff16151515158152505090503373ffffffffffffffffffffffffffffffffffffffff16816000015173ffffffffffffffffffffffffffffffffffffffff1614610aea576040517f08c379a0000000000000000000000000000000000000000000000000000000008152600401610ae19061160c565b60405180910390fd5b610af382610ff8565b7fd99e4fad9ad6313b1feb588fa8e605e3a9873172f2024330c35dd2b4041a43863383604051610b249291906115b0565b60405180910390a15050565b6000600460008481526020019081526020016000206040518060a00160405290816000820160009054906101000a900473ffffffffffffffffffffffffffffffffffffffff1673ffffffffffffffffffffffffffffffffffffffff1673ffffffffffffffffffffffffffffffffffffffff1681526020016001820154815260200160028201548152602001600382015481526020016004820160009054906101000a900460ff161515151581525050905081816020015114610c27576040517f08c379a0000000000000000000000000000000000000000000000000000000008152600401610c1e906116c8565b60405180910390fd5b8060800151610c6b576040517f08c379a0000000000000000000000000000000000000000000000000000000008152600401610c6290611534565b60405180910390fd5b610c7483610ff8565b600160009054906101000a900473ffffffffffffffffffffffffffffffffffffffff1673ffffffffffffffffffffffffffffffffffffffff166323b872dd826000015133866040518463ffffffff1660e01b8152600401610cd79392919061141b565b600060405180830381600087803b158015610cf157600080fd5b505af1158015610d05573d6000803e3d6000fd5b505050507fd99e4fad9ad6313b1feb588fa8e605e3a9873172f2024330c35dd2b4041a43863384604051610d3a929190611574565b60405180910390a1505050565b60006004600083815260200190815260200160002060040160009054906101000a900460ff169050919050565b610d7c610f2c565b73ffffffffffffffffffffffffffffffffffffffff16610d9a61058c565b73ffffffffffffffffffffffffffffffffffffffff1614610df0576040517f08c379a0000000000000000000000000000000000000000000000000000000008152600401610de79061164c565b60405180910390fd5b600073ffffffffffffffffffffffffffffffffffffffff168173ffffffffffffffffffffffffffffffffffffffff161415610e60576040517f08c379a0000000000000000000000000000000000000000000000000000000008152600401610e5790611554565b60405180910390fd5b610e6981610f34565b50565b610e74610f2c565b73ffffffffffffffffffffffffffffffffffffffff16610e9261058c565b73ffffffffffffffffffffffffffffffffffffffff1614610ee8576040517f08c379a0000000000000000000000000000000000000000000000000000000008152600401610edf9061164c565b60405180910390fd5b80600260006101000a81548173ffffffffffffffffffffffffffffffffffffffff021916908373ffffffffffffffffffffffffffffffffffffffff16021790555050565b600033905090565b60008060009054906101000a900473ffffffffffffffffffffffffffffffffffffffff169050816000806101000a81548173ffffffffffffffffffffffffffffffffffffffff021916908373ffffffffffffffffffffffffffffffffffffffff1602179055508173ffffffffffffffffffffffffffffffffffffffff168173ffffffffffffffffffffffffffffffffffffffff167f8be0079c531659141344cd1fd0a4f28419497f9722a3daafe3b4186f6b6457e060405160405180910390a35050565b6000600360046000848152602001908152602001600020600201548154811061102457611023611828565b5b906000526020600020906005020160040160006101000a81548160ff02191690831515021790555060046000828152602001908152602001600020600080820160006101000a81549073ffffffffffffffffffffffffffffffffffffffff02191690556001820160009055600282016000905560038201600090556004820160006101000a81549060ff0219169055505050565b6000813590506110c781611b58565b92915050565b6000815190506110dc81611b6f565b92915050565b6000813590506110f181611b86565b92915050565b60006020828403121561110d5761110c611886565b5b600061111b848285016110b8565b91505092915050565b60006020828403121561113a57611139611886565b5b6000611148848285016110cd565b91505092915050565b60006020828403121561116757611166611886565b5b6000611175848285016110e2565b91505092915050565b6000806040838503121561119557611194611886565b5b60006111a3858286016110e2565b92505060206111b4858286016110e2565b9150509250929050565b60006111ca83836113e2565b60208301905092915050565b6111df8161177a565b82525050565b6111ee81611732565b82525050565b60006111ff826116f8565b6112098185611710565b9350611214836116e8565b8060005b8381101561124557815161122c88826111be565b975061123783611703565b925050600181019050611218565b5085935050505092915050565b61125b81611744565b82525050565b600061126e602383611721565b91506112798261188b565b604082019050919050565b6000611291602683611721565b915061129c826118da565b604082019050919050565b60006112b4601283611721565b91506112bf82611929565b602082019050919050565b60006112d7600d83611721565b91506112e282611952565b602082019050919050565b60006112fa603983611721565b91506113058261197b565b604082019050919050565b600061131d603383611721565b9150611328826119ca565b604082019050919050565b6000611340602483611721565b915061134b82611a19565b604082019050919050565b6000611363602083611721565b915061136e82611a68565b602082019050919050565b6000611386603083611721565b915061139182611a91565b604082019050919050565b60006113a9600d83611721565b91506113b482611ae0565b602082019050919050565b60006113cc603483611721565b91506113d782611b09565b604082019050919050565b6113eb81611770565b82525050565b6113fa81611770565b82525050565b600060208201905061141560008301846111e5565b92915050565b600060608201905061143060008301866111d6565b61143d60208301856111e5565b61144a60408301846113f1565b949350505050565b600060408201905061146760008301856111e5565b61147460208301846111e5565b9392505050565b600060408201905061149060008301856111e5565b61149d60208301846113f1565b9392505050565b600060a0820190506114b960008301886111e5565b6114c660208301876113f1565b6114d360408301866113f1565b6114e060608301856113f1565b6114ed6080830184611252565b9695505050505050565b6000602082019050818103600083015261151181846111f4565b905092915050565b600060208201905061152e6000830184611252565b92915050565b6000602082019050818103600083015261154d81611261565b9050919050565b6000602082019050818103600083015261156d81611284565b9050919050565b6000606082019050818103600083015261158d816112a7565b905061159c60208301856111e5565b6115a960408301846113f1565b9392505050565b600060608201905081810360008301526115c9816112ca565b90506115d860208301856111e5565b6115e560408301846113f1565b9392505050565b60006020820190508181036000830152611605816112ed565b9050919050565b6000602082019050818103600083015261162581611310565b9050919050565b6000602082019050818103600083015261164581611333565b9050919050565b6000602082019050818103600083015261166581611356565b9050919050565b6000602082019050818103600083015261168581611379565b9050919050565b600060608201905081810360008301526116a58161139c565b90506116b460208301856111e5565b6116c160408301846113f1565b9392505050565b600060208201905081810360008301526116e1816113bf565b9050919050565b6000819050602082019050919050565b600081519050919050565b6000602082019050919050565b600082825260208201905092915050565b600082825260208201905092915050565b600061173d82611750565b9050919050565b60008115159050919050565b600073ffffffffffffffffffffffffffffffffffffffff82169050919050565b6000819050919050565b60006117858261178c565b9050919050565b60006117978261179e565b9050919050565b60006117a982611750565b9050919050565b60006117bb82611770565b91507fffffffffffffffffffffffffffffffffffffffffffffffffffffffffffffffff8214156117ee576117ed6117f9565b5b600182019050919050565b7f4e487b7100000000000000000000000000000000000000000000000000000000600052601160045260246000fd5b7f4e487b7100000000000000000000000000000000000000000000000000000000600052603260045260246000fd5b7f4e487b7100000000000000000000000000000000000000000000000000000000600052604160045260246000fd5b600080fd5b7f5468657265206973206e6f206f6666657220666f72207468697320746f6b656e60008201527f2049440000000000000000000000000000000000000000000000000000000000602082015250565b7f4f776e61626c653a206e6577206f776e657220697320746865207a65726f206160008201527f6464726573730000000000000000000000000000000000000000000000000000602082015250565b7f546f6b656e204944207075726368617365640000000000000000000000000000600082015250565b7f4f666665722072656d6f76656400000000000000000000000000000000000000600082015250565b7f596f752063616e6e6f742068617665206d6f7265207468656e206f6e65206f6660008201527f66657220666f72206120746f6b656e20617420612074696d6500000000000000602082015250565b7f4f6e6c79207468652073656c6c6572206f662074686520546f6b656e2049642060008201527f63616e2072656d6f766520616e206f6666657200000000000000000000000000602082015250565b7f596f7520617265206e6f7420746865206f776e6572206f662074686520746f6b60008201527f656e496400000000000000000000000000000000000000000000000000000000602082015250565b7f4f776e61626c653a2063616c6c6572206973206e6f7420746865206f776e6572600082015250565b7f4d61726b6574706c61636520636f6e7472616374206973206e6f7420616e206160008201527f7070726f766564206f70657261746f7200000000000000000000000000000000602082015250565b7f4f66666572204372656174656400000000000000000000000000000000000000600082015250565b7f546865207072696365206e6565647320746f20626520657175616c20746f207460008201527f6865206f66666572206f6620546f6b656e204944000000000000000000000000602082015250565b611b6181611732565b8114611b6c57600080fd5b50565b611b7881611744565b8114611b8357600080fd5b50565b611b8f81611770565b8114611b9a57600080fd5b5056fea2646970667358221220d9e95d67a901a3375c8c474ce859d41842abe06dc125bf53faa2b90e27fc1f7664736f6c63430008060033",
  "immutableReferences": {},
  "source": "// SPDX-License-Identifier: UNLICENSED\r\n\r\npragma solidity ^0.8.6;\r\n\r\nimport \"./Dragoncontract.sol\";\r\nimport \"@openzeppelin/contracts/access/Ownable.sol\";\r\nimport \"./IDragonMarketplace.sol\";\r\nimport \"./PaymentGateway.sol\";\r\n\r\ncontract DragonMarketplace is Ownable, IDragonMarketplace {\r\n  Dragoncontract private _dragonContract;\r\n  PaymentGateway private _paymentGateway;\r\n\r\n  struct Offer {\r\n    address payable seller;\r\n    uint256 price;\r\n    uint256 index;\r\n    uint256 tokenId;\r\n    bool active;\r\n  }\r\n\r\n  constructor(address dragonContract, address paymentGateway) {\r\n    setDragonContract(dragonContract);\r\n    setPaymentGateway(paymentGateway);\r\n  }\r\n\r\n  Offer[] offers;\r\n\r\n  mapping(uint256 => Offer) tokenIdToOffer;\r\n\r\n  function setDragonContract(address _dragonContractAddress) override public onlyOwner {\r\n    _dragonContract = Dragoncontract(_dragonContractAddress);\r\n  }\r\n\r\n  function setPaymentGateway(address _paymentGatewayAddress) public onlyOwner {\r\n    _paymentGateway = PaymentGateway(_paymentGatewayAddress);\r\n  }\r\n\r\n  function getOffer(uint256 _tokenId) override external view returns (address seller, uint256 price, uint256 index, uint256 tokenId, bool active) {\r\n    return (tokenIdToOffer[_tokenId].seller, tokenIdToOffer[_tokenId].price, tokenIdToOffer[_tokenId].index, tokenIdToOffer[_tokenId].tokenId, tokenIdToOffer[_tokenId].active);\r\n  }\r\n\r\n  function getActiveStatus(uint256 _tokenId) external view returns (bool active) {\r\n    return tokenIdToOffer[_tokenId].active;\r\n  }\r\n\r\n  function getAllTokenOnSale() override external view returns(uint256[] memory listOfOffers) {\r\n    uint256[] memory tokensForSale = new uint256[](offers.length);\r\n    uint256 counter = 0;\r\n    for(uint256 i = 0; i < offers.length; i++) {\r\n      if(offers[i].active == true) {\r\n        tokensForSale[counter] = offers[i].tokenId;\r\n        counter++;\r\n      }\r\n    }\r\n    return tokensForSale;\r\n  }\r\n\r\n  function setOffer(uint256 _price, uint256 _tokenId) override external {\r\n    require(_dragonContract._owns(msg.sender, _tokenId), \"You are not the owner of the tokenId\");\r\n    require(!tokenIdToOffer[_tokenId].active, \"You cannot have more then one offer for a token at a time\");\r\n    require(_dragonContract.isApprovedForAll(msg.sender, address(this)), \"Marketplace contract is not an approved operator\");\r\n\r\n    Offer memory _newOffer = Offer(payable(msg.sender), _price, offers.length, _tokenId, true);\r\n    tokenIdToOffer[_tokenId] = _newOffer;\r\n    offers.push(_newOffer);\r\n\r\n    emit MarketTransaction(\"Offer Created\", msg.sender, _tokenId);\r\n  }\r\n\r\n  function removeOffer(uint256 _tokenId) override external {\r\n    Offer memory offer = tokenIdToOffer[_tokenId];\r\n\r\n    require(offer.seller == msg.sender, \"Only the seller of the Token Id can remove an offer\");\r\n\r\n    _offerRemove(_tokenId);\r\n\r\n    emit MarketTransaction(\"Offer removed\", msg.sender, _tokenId);\r\n  }\r\n\r\n  function buyDragon(uint256 _tokenId, uint256 _price) override external payable {\r\n    Offer memory offer = tokenIdToOffer[_tokenId];\r\n\r\n    require(offer.price == _price, \"The price needs to be equal to the offer of Token ID\");\r\n    require(offer.active, \"There is no offer for this token ID\");\r\n\r\n    _offerRemove(_tokenId);\r\n    _dragonContract.transferFrom(offer.seller, msg.sender, _tokenId);\r\n\r\n    emit MarketTransaction(\"Token ID purchased\", msg.sender, _tokenId);\r\n  }\r\n\r\n  function _offerRemove(uint256 _tokenId) private {\r\n    offers[tokenIdToOffer[_tokenId].index].active = false;\r\n    delete tokenIdToOffer[_tokenId];\r\n  }\r\n}\r\n",
  "sourcePath": "C:\\Markus-Dragons\\contracts\\DragonMarketplace.sol",
  "compiler": {
    "name": "solc",
    "version": "0.8.6+commit.11564f7e.Emscripten.clang"
  },
  "schemaVersion": "3.2.0",
  "updatedAt": "2021-07-08T15:34:50.855Z",
  "networkType": "ethereum",
  "devdoc": {
    "kind": "dev",
    "methods": {
      "owner()": {
        "details": "Returns the address of the current owner."
      },
      "renounceOwnership()": {
        "details": "Leaves the contract without owner. It will not be possible to call `onlyOwner` functions anymore. Can only be called by the current owner. NOTE: Renouncing ownership will leave the contract without an owner, thereby removing any functionality that is only available to the owner."
      },
      "transferOwnership(address)": {
        "details": "Transfers ownership of the contract to a new account (`newOwner`). Can only be called by the current owner."
      }
    },
    "version": 1
  },
  "userdoc": {
    "kind": "user",
    "methods": {
      "buyDragon(uint256,uint256)": {
        "notice": "Executes the purchase of _tokenId. Sends the funds to the seller and transfers the token using transferFrom in Dragoncontract. Emits the MarketTransaction event with txType \"Buy\". Requirement: The msg.value needs to equal the price of _tokenId Requirement: There must be an active offer for _tokenId"
      },
      "getAllTokenOnSale()": {
        "notice": "Get all tokenId's that are currently for sale. Returns an empty arror if none exist."
      },
      "getOffer(uint256)": {
        "notice": "Get the details about a offer for _tokenId. Throws an error if there is no active offer for _tokenId."
      },
      "removeOffer(uint256)": {
        "notice": "Removes an existing offer. Emits the MarketTransaction event with txType \"Remove offer\" Requirement: Only the seller of _tokenId can remove an offer."
      },
      "setDragonContract(address)": {
        "notice": "Set the current DragonContract address and initialize the instance of Dragoncontract. Requirement: Only the contract owner can call."
      },
      "setOffer(uint256,uint256)": {
        "notice": "Creates a new offer for _tokenId for the price _price. Emits the MarketTransaction event with txType \"Create offer\" Requirement: Only the owner of _tokenId can create an offer. Requirement: There can only be one active offer for a token at a time. Requirement: Marketplace contract (this) needs to be an approved operator when the offer is created."
      }
    },
    "version": 1
  }
}