{
  "contractName": "DragonMarketplace",
  "abi": [
    {
      "inputs": [
        {
          "internalType": "address",
          "name": "dragonContract",
          "type": "address"
        }
      ],
      "stateMutability": "nonpayable",
      "type": "constructor"
    },
    {
      "anonymous": false,
      "inputs": [
        {
          "indexed": false,
          "internalType": "string",
          "name": "TxType",
          "type": "string"
        },
        {
          "indexed": false,
          "internalType": "address",
          "name": "owner",
          "type": "address"
        },
        {
          "indexed": false,
          "internalType": "uint256",
          "name": "tokenId",
          "type": "uint256"
        }
      ],
      "name": "MarketTransaction",
      "type": "event"
    },
    {
      "anonymous": false,
      "inputs": [
        {
          "indexed": true,
          "internalType": "address",
          "name": "previousOwner",
          "type": "address"
        },
        {
          "indexed": true,
          "internalType": "address",
          "name": "newOwner",
          "type": "address"
        }
      ],
      "name": "OwnershipTransferred",
      "type": "event"
    },
    {
      "inputs": [],
      "name": "owner",
      "outputs": [
        {
          "internalType": "address",
          "name": "",
          "type": "address"
        }
      ],
      "stateMutability": "view",
      "type": "function",
      "constant": true
    },
    {
      "inputs": [],
      "name": "renounceOwnership",
      "outputs": [],
      "stateMutability": "nonpayable",
      "type": "function"
    },
    {
      "inputs": [
        {
          "internalType": "address",
          "name": "newOwner",
          "type": "address"
        }
      ],
      "name": "transferOwnership",
      "outputs": [],
      "stateMutability": "nonpayable",
      "type": "function"
    },
    {
      "inputs": [
        {
          "internalType": "address",
          "name": "_dragonContractAddress",
          "type": "address"
        }
      ],
      "name": "setDragonContract",
      "outputs": [],
      "stateMutability": "nonpayable",
      "type": "function"
    },
    {
      "inputs": [
        {
          "internalType": "uint256",
          "name": "_tokenId",
          "type": "uint256"
        }
      ],
      "name": "getOffer",
      "outputs": [
        {
          "internalType": "address",
          "name": "seller",
          "type": "address"
        },
        {
          "internalType": "uint256",
          "name": "price",
          "type": "uint256"
        },
        {
          "internalType": "uint256",
          "name": "index",
          "type": "uint256"
        },
        {
          "internalType": "uint256",
          "name": "tokenId",
          "type": "uint256"
        },
        {
          "internalType": "bool",
          "name": "active",
          "type": "bool"
        }
      ],
      "stateMutability": "view",
      "type": "function",
      "constant": true
    },
    {
      "inputs": [
        {
          "internalType": "uint256",
          "name": "_tokenId",
          "type": "uint256"
        }
      ],
      "name": "getActiveStatus",
      "outputs": [
        {
          "internalType": "bool",
          "name": "active",
          "type": "bool"
        }
      ],
      "stateMutability": "view",
      "type": "function",
      "constant": true
    },
    {
      "inputs": [],
      "name": "getAllTokenOnSale",
      "outputs": [
        {
          "internalType": "uint256[]",
          "name": "listOfOffers",
          "type": "uint256[]"
        }
      ],
      "stateMutability": "view",
      "type": "function",
      "constant": true
    },
    {
      "inputs": [
        {
          "internalType": "uint256",
          "name": "_price",
          "type": "uint256"
        },
        {
          "internalType": "uint256",
          "name": "_tokenId",
          "type": "uint256"
        }
      ],
      "name": "setOffer",
      "outputs": [],
      "stateMutability": "nonpayable",
      "type": "function"
    },
    {
      "inputs": [
        {
          "internalType": "uint256",
          "name": "_tokenId",
          "type": "uint256"
        }
      ],
      "name": "removeOffer",
      "outputs": [],
      "stateMutability": "nonpayable",
      "type": "function"
    },
    {
      "inputs": [
        {
          "internalType": "uint256",
          "name": "_tokenId",
          "type": "uint256"
        },
        {
          "internalType": "address payable",
          "name": "_seller",
          "type": "address"
        }
      ],
      "name": "buyDragon",
      "outputs": [],
      "stateMutability": "payable",
      "type": "function",
      "payable": true
    },
    {
      "inputs": [
        {
          "internalType": "address payable",
          "name": "_payee",
          "type": "address"
        },
        {
          "internalType": "uint256",
          "name": "_amount",
          "type": "uint256"
        }
      ],
      "name": "sendPayment",
      "outputs": [],
      "stateMutability": "payable",
      "type": "function",
      "payable": true
    },
    {
      "inputs": [
        {
          "internalType": "address payable",
          "name": "_payee",
          "type": "address"
        }
      ],
      "name": "withdraw",
      "outputs": [],
      "stateMutability": "nonpayable",
      "type": "function"
    },
    {
      "inputs": [
        {
          "internalType": "address",
          "name": "_payee",
          "type": "address"
        }
      ],
      "name": "balance",
      "outputs": [
        {
          "internalType": "uint256",
          "name": "userBalance",
          "type": "uint256"
        }
      ],
      "stateMutability": "view",
      "type": "function",
      "constant": true
    }
  ],
  "bytecode": "0x60806040523480156200001157600080fd5b5060405162002fa238038062002fa28339818101604052810190620000379190620002c8565b620000576200004b620000db60201b60201c565b620000e360201b60201c565b6040516200006590620002a3565b604051809103906000f08015801562000082573d6000803e3d6000fd5b50600260006101000a81548173ffffffffffffffffffffffffffffffffffffffff021916908373ffffffffffffffffffffffffffffffffffffffff160217905550620000d481620001a760201b60201c565b50620003d0565b600033905090565b60008060009054906101000a900473ffffffffffffffffffffffffffffffffffffffff169050816000806101000a81548173ffffffffffffffffffffffffffffffffffffffff021916908373ffffffffffffffffffffffffffffffffffffffff1602179055508173ffffffffffffffffffffffffffffffffffffffff168173ffffffffffffffffffffffffffffffffffffffff167f8be0079c531659141344cd1fd0a4f28419497f9722a3daafe3b4186f6b6457e060405160405180910390a35050565b620001b7620000db60201b60201c565b73ffffffffffffffffffffffffffffffffffffffff16620001dd6200027a60201b60201c565b73ffffffffffffffffffffffffffffffffffffffff161462000236576040517f08c379a00000000000000000000000000000000000000000000000000000000081526004016200022d9062000321565b60405180910390fd5b80600160006101000a81548173ffffffffffffffffffffffffffffffffffffffff021916908373ffffffffffffffffffffffffffffffffffffffff16021790555050565b60008060009054906101000a900473ffffffffffffffffffffffffffffffffffffffff16905090565b610d16806200228c83390190565b600081519050620002c281620003b6565b92915050565b600060208284031215620002e157620002e062000388565b5b6000620002f184828501620002b1565b91505092915050565b60006200030960208362000343565b915062000316826200038d565b602082019050919050565b600060208201905081810360008301526200033c81620002fa565b9050919050565b600082825260208201905092915050565b6000620003618262000368565b9050919050565b600073ffffffffffffffffffffffffffffffffffffffff82169050919050565b600080fd5b7f4f776e61626c653a2063616c6c6572206973206e6f7420746865206f776e6572600082015250565b620003c18162000354565b8114620003cd57600080fd5b50565b611eac80620003e06000396000f3fe6080604052600436106100c25760003560e01c80638da5cb5b1161007f57806395a0f9c71161005957806395a0f9c714610228578063e3d670d714610251578063ecc6b2fd1461028e578063f2fde38b146102cb576100c2565b80638da5cb5b146101b8578063935f4c18146101e3578063941b055b146101ff576100c2565b8063039f14b0146100c75780633ef10162146100f05780634579268a1461010c57806349b3709f1461014d57806351cff8d914610178578063715018a6146101a1575b600080fd5b3480156100d357600080fd5b506100ee60048036038101906100e991906112b9565b6102f4565b005b61010a600480360381019061010591906113da565b6103b4565b005b34801561011857600080fd5b50610133600480360381019061012e9190611380565b6105d5565b604051610144959493929190611785565b60405180910390f35b34801561015957600080fd5b50610162610690565b60405161016f91906117d8565b60405180910390f35b34801561018457600080fd5b5061019f600480360381019061019a91906112e6565b61079d565b005b3480156101ad57600080fd5b506101b661082d565b005b3480156101c457600080fd5b506101cd6108b5565b6040516101da91906116ab565b60405180910390f35b6101fd60048036038101906101f89190611313565b6108de565b005b34801561020b57600080fd5b506102266004803603810190610221919061141a565b610970565b005b34801561023457600080fd5b5061024f600480360381019061024a9190611380565b610d82565b005b34801561025d57600080fd5b50610278600480360381019061027391906112b9565b610eeb565b60405161028591906119c9565b60405180910390f35b34801561029a57600080fd5b506102b560048036038101906102b09190611380565b610f9f565b6040516102c291906117fa565b60405180910390f35b3480156102d757600080fd5b506102f260048036038101906102ed91906112b9565b610fcc565b005b6102fc6110c4565b73ffffffffffffffffffffffffffffffffffffffff1661031a6108b5565b73ffffffffffffffffffffffffffffffffffffffff1614610370576040517f08c379a00000000000000000000000000000000000000000000000000000000081526004016103679061194d565b60405180910390fd5b80600160006101000a81548173ffffffffffffffffffffffffffffffffffffffff021916908373ffffffffffffffffffffffffffffffffffffffff16021790555050565b6000600460008481526020019081526020016000206040518060a00160405290816000820160009054906101000a900473ffffffffffffffffffffffffffffffffffffffff1673ffffffffffffffffffffffffffffffffffffffff1673ffffffffffffffffffffffffffffffffffffffff1681526020016001820154815260200160028201548152602001600382015481526020016004820160009054906101000a900460ff1615151515815250509050348160200151146104ab576040517f08c379a00000000000000000000000000000000000000000000000000000000081526004016104a290611815565b60405180910390fd5b80608001516104ef576040517f08c379a00000000000000000000000000000000000000000000000000000000081526004016104e6906118b1565b60405180910390fd5b6104f8836110cc565b61050282346108de565b600160009054906101000a900473ffffffffffffffffffffffffffffffffffffffff1673ffffffffffffffffffffffffffffffffffffffff166323b872dd826000015133866040518463ffffffff1660e01b8152600401610565939291906116fc565b600060405180830381600087803b15801561057f57600080fd5b505af1158015610593573d6000803e3d6000fd5b505050507fd99e4fad9ad6313b1feb588fa8e605e3a9873172f2024330c35dd2b4041a438633846040516105c89291906118f1565b60405180910390a1505050565b60008060008060006004600087815260200190815260200160002060000160009054906101000a900473ffffffffffffffffffffffffffffffffffffffff1660046000888152602001908152602001600020600101546004600089815260200190815260200160002060020154600460008a815260200190815260200160002060030154600460008b815260200190815260200160002060040160009054906101000a900460ff169450945094509450945091939590929450565b6060600060038054905067ffffffffffffffff8111156106b3576106b2611b65565b5b6040519080825280602002602001820160405280156106e15781602001602082028036833780820191505090505b5090506000805b600380549050811015610794576003818154811061070957610708611b36565b5b906000526020600020906005020160040160009054906101000a900460ff1615610781576003818154811061074157610740611b36565b5b90600052602060002090600502016003015483838151811061076657610765611b36565b5b602002602001018181525050818061077d90611abe565b9250505b808061078c90611abe565b9150506106e8565b50819250505090565b600260009054906101000a900473ffffffffffffffffffffffffffffffffffffffff1673ffffffffffffffffffffffffffffffffffffffff166351cff8d9826040518263ffffffff1660e01b81526004016107f891906116e1565b600060405180830381600087803b15801561081257600080fd5b505af1158015610826573d6000803e3d6000fd5b5050505050565b6108356110c4565b73ffffffffffffffffffffffffffffffffffffffff166108536108b5565b73ffffffffffffffffffffffffffffffffffffffff16146108a9576040517f08c379a00000000000000000000000000000000000000000000000000000000081526004016108a09061194d565b60405180910390fd5b6108b3600061118c565b565b60008060009054906101000a900473ffffffffffffffffffffffffffffffffffffffff16905090565b600260009054906101000a900473ffffffffffffffffffffffffffffffffffffffff1673ffffffffffffffffffffffffffffffffffffffff1663f340fa0182846040518363ffffffff1660e01b815260040161093a91906116c6565b6000604051808303818588803b15801561095357600080fd5b505af1158015610967573d6000803e3d6000fd5b50505050505050565b600160009054906101000a900473ffffffffffffffffffffffffffffffffffffffff1673ffffffffffffffffffffffffffffffffffffffff1663e21fd9fc33836040518363ffffffff1660e01b81526004016109cd92919061175c565b60206040518083038186803b1580156109e557600080fd5b505afa1580156109f9573d6000803e3d6000fd5b505050506040513d601f19601f82011682018060405250810190610a1d9190611353565b610a5c576040517f08c379a0000000000000000000000000000000000000000000000000000000008152600401610a539061192d565b60405180910390fd5b6004600082815260200190815260200160002060040160009054906101000a900460ff1615610ac0576040517f08c379a0000000000000000000000000000000000000000000000000000000008152600401610ab7906118d1565b60405180910390fd5b600160009054906101000a900473ffffffffffffffffffffffffffffffffffffffff1673ffffffffffffffffffffffffffffffffffffffff1663e985e9c533306040518363ffffffff1660e01b8152600401610b1d929190611733565b60206040518083038186803b158015610b3557600080fd5b505afa158015610b49573d6000803e3d6000fd5b505050506040513d601f19601f82011682018060405250810190610b6d9190611353565b610bac576040517f08c379a0000000000000000000000000000000000000000000000000000000008152600401610ba39061196d565b60405180910390fd5b60006040518060a001604052803373ffffffffffffffffffffffffffffffffffffffff1681526020018481526020016003805490508152602001838152602001600115158152509050806004600084815260200190815260200160002060008201518160000160006101000a81548173ffffffffffffffffffffffffffffffffffffffff021916908373ffffffffffffffffffffffffffffffffffffffff16021790555060208201518160010155604082015181600201556060820151816003015560808201518160040160006101000a81548160ff021916908315150217905550905050600381908060018154018082558091505060019003906000526020600020906005020160009091909190915060008201518160000160006101000a81548173ffffffffffffffffffffffffffffffffffffffff021916908373ffffffffffffffffffffffffffffffffffffffff16021790555060208201518160010155604082015181600201556060820151816003015560808201518160040160006101000a81548160ff02191690831515021790555050507fd99e4fad9ad6313b1feb588fa8e605e3a9873172f2024330c35dd2b4041a43863383604051610d7592919061198d565b60405180910390a1505050565b6000600460008381526020019081526020016000206040518060a00160405290816000820160009054906101000a900473ffffffffffffffffffffffffffffffffffffffff1673ffffffffffffffffffffffffffffffffffffffff1673ffffffffffffffffffffffffffffffffffffffff1681526020016001820154815260200160028201548152602001600382015481526020016004820160009054906101000a900460ff16151515158152505090503373ffffffffffffffffffffffffffffffffffffffff16816000015173ffffffffffffffffffffffffffffffffffffffff1614610ea5576040517f08c379a0000000000000000000000000000000000000000000000000000000008152600401610e9c90611855565b60405180910390fd5b610eae826110cc565b7fd99e4fad9ad6313b1feb588fa8e605e3a9873172f2024330c35dd2b4041a43863383604051610edf929190611875565b60405180910390a15050565b6000600260009054906101000a900473ffffffffffffffffffffffffffffffffffffffff1673ffffffffffffffffffffffffffffffffffffffff1663e3a9db1a836040518263ffffffff1660e01b8152600401610f4891906116ab565b60206040518083038186803b158015610f6057600080fd5b505afa158015610f74573d6000803e3d6000fd5b505050506040513d601f19601f82011682018060405250810190610f9891906113ad565b9050919050565b60006004600083815260200190815260200160002060040160009054906101000a900460ff169050919050565b610fd46110c4565b73ffffffffffffffffffffffffffffffffffffffff16610ff26108b5565b73ffffffffffffffffffffffffffffffffffffffff1614611048576040517f08c379a000000000000000000000000000000000000000000000000000000000815260040161103f9061194d565b60405180910390fd5b600073ffffffffffffffffffffffffffffffffffffffff168173ffffffffffffffffffffffffffffffffffffffff1614156110b8576040517f08c379a00000000000000000000000000000000000000000000000000000000081526004016110af90611835565b60405180910390fd5b6110c18161118c565b50565b600033905090565b600060036004600084815260200190815260200160002060020154815481106110f8576110f7611b36565b5b906000526020600020906005020160040160006101000a81548160ff02191690831515021790555060046000828152602001908152602001600020600080820160006101000a81549073ffffffffffffffffffffffffffffffffffffffff02191690556001820160009055600282016000905560038201600090556004820160006101000a81549060ff0219169055505050565b60008060009054906101000a900473ffffffffffffffffffffffffffffffffffffffff169050816000806101000a81548173ffffffffffffffffffffffffffffffffffffffff021916908373ffffffffffffffffffffffffffffffffffffffff1602179055508173ffffffffffffffffffffffffffffffffffffffff168173ffffffffffffffffffffffffffffffffffffffff167f8be0079c531659141344cd1fd0a4f28419497f9722a3daafe3b4186f6b6457e060405160405180910390a35050565b60008135905061125f81611e1a565b92915050565b60008135905061127481611e31565b92915050565b60008151905061128981611e48565b92915050565b60008135905061129e81611e5f565b92915050565b6000815190506112b381611e5f565b92915050565b6000602082840312156112cf576112ce611b94565b5b60006112dd84828501611250565b91505092915050565b6000602082840312156112fc576112fb611b94565b5b600061130a84828501611265565b91505092915050565b6000806040838503121561132a57611329611b94565b5b600061133885828601611265565b92505060206113498582860161128f565b9150509250929050565b60006020828403121561136957611368611b94565b5b60006113778482850161127a565b91505092915050565b60006020828403121561139657611395611b94565b5b60006113a48482850161128f565b91505092915050565b6000602082840312156113c3576113c2611b94565b5b60006113d1848285016112a4565b91505092915050565b600080604083850312156113f1576113f0611b94565b5b60006113ff8582860161128f565b925050602061141085828601611265565b9150509250929050565b6000806040838503121561143157611430611b94565b5b600061143f8582860161128f565b92505060206114508582860161128f565b9150509250929050565b6000611466838361168d565b60208301905092915050565b61147b81611a88565b82525050565b61148a81611a40565b82525050565b61149981611a2e565b82525050565b60006114aa826119f4565b6114b48185611a0c565b93506114bf836119e4565b8060005b838110156114f05781516114d7888261145a565b97506114e2836119ff565b9250506001810190506114c3565b5085935050505092915050565b61150681611a52565b82525050565b6000611519602383611a1d565b915061152482611b99565b604082019050919050565b600061153c602683611a1d565b915061154782611be8565b604082019050919050565b600061155f602983611a1d565b915061156a82611c37565b604082019050919050565b6000611582600d83611a1d565b915061158d82611c86565b602082019050919050565b60006115a5602083611a1d565b91506115b082611caf565b602082019050919050565b60006115c8603983611a1d565b91506115d382611cd8565b604082019050919050565b60006115eb600f83611a1d565b91506115f682611d27565b602082019050919050565b600061160e601b83611a1d565b915061161982611d50565b602082019050919050565b6000611631602083611a1d565b915061163c82611d79565b602082019050919050565b6000611654603083611a1d565b915061165f82611da2565b604082019050919050565b6000611677600d83611a1d565b915061168282611df1565b602082019050919050565b61169681611a7e565b82525050565b6116a581611a7e565b82525050565b60006020820190506116c06000830184611490565b92915050565b60006020820190506116db6000830184611472565b92915050565b60006020820190506116f66000830184611481565b92915050565b60006060820190506117116000830186611472565b61171e6020830185611490565b61172b604083018461169c565b949350505050565b60006040820190506117486000830185611490565b6117556020830184611490565b9392505050565b60006040820190506117716000830185611490565b61177e602083018461169c565b9392505050565b600060a08201905061179a6000830188611490565b6117a7602083018761169c565b6117b4604083018661169c565b6117c1606083018561169c565b6117ce60808301846114fd565b9695505050505050565b600060208201905081810360008301526117f2818461149f565b905092915050565b600060208201905061180f60008301846114fd565b92915050565b6000602082019050818103600083015261182e8161150c565b9050919050565b6000602082019050818103600083015261184e8161152f565b9050919050565b6000602082019050818103600083015261186e81611552565b9050919050565b6000606082019050818103600083015261188e81611575565b905061189d6020830185611490565b6118aa604083018461169c565b9392505050565b600060208201905081810360008301526118ca81611598565b9050919050565b600060208201905081810360008301526118ea816115bb565b9050919050565b6000606082019050818103600083015261190a816115de565b90506119196020830185611490565b611926604083018461169c565b9392505050565b6000602082019050818103600083015261194681611601565b9050919050565b6000602082019050818103600083015261196681611624565b9050919050565b6000602082019050818103600083015261198681611647565b9050919050565b600060608201905081810360008301526119a68161166a565b90506119b56020830185611490565b6119c2604083018461169c565b9392505050565b60006020820190506119de600083018461169c565b92915050565b6000819050602082019050919050565b600081519050919050565b6000602082019050919050565b600082825260208201905092915050565b600082825260208201905092915050565b6000611a3982611a5e565b9050919050565b6000611a4b82611a5e565b9050919050565b60008115159050919050565b600073ffffffffffffffffffffffffffffffffffffffff82169050919050565b6000819050919050565b6000611a9382611a9a565b9050919050565b6000611aa582611aac565b9050919050565b6000611ab782611a5e565b9050919050565b6000611ac982611a7e565b91507fffffffffffffffffffffffffffffffffffffffffffffffffffffffffffffffff821415611afc57611afb611b07565b5b600182019050919050565b7f4e487b7100000000000000000000000000000000000000000000000000000000600052601160045260246000fd5b7f4e487b7100000000000000000000000000000000000000000000000000000000600052603260045260246000fd5b7f4e487b7100000000000000000000000000000000000000000000000000000000600052604160045260246000fd5b600080fd5b7f546865207072696365206f6620746865206f6666657220697320696e636f727260008201527f6563740000000000000000000000000000000000000000000000000000000000602082015250565b7f4f776e61626c653a206e6577206f776e657220697320746865207a65726f206160008201527f6464726573730000000000000000000000000000000000000000000000000000602082015250565b7f4f6e6c792074686520746f6b656e2073656c6c65722063616e2072656d6f766560008201527f20616e206f666665720000000000000000000000000000000000000000000000602082015250565b7f4f666665722072656d6f76656400000000000000000000000000000000000000600082015250565b7f5468657265206973206e6f206f6666657220666f72207468697320746f6b656e600082015250565b7f596f752063616e6e6f742068617665206d6f7265207468656e206f6e65206f6660008201527f66657220666f72206120746f6b656e20617420612074696d6500000000000000602082015250565b7f546f6b656e207075726368617365640000000000000000000000000000000000600082015250565b7f596f7520617265206e6f742074686520746f6b656e206f776e65720000000000600082015250565b7f4f776e61626c653a2063616c6c6572206973206e6f7420746865206f776e6572600082015250565b7f4d61726b6574706c61636520636f6e7472616374206973206e6f7420616e206160008201527f7070726f766564206f70657261746f7200000000000000000000000000000000602082015250565b7f4f66666572204372656174656400000000000000000000000000000000000000600082015250565b611e2381611a2e565b8114611e2e57600080fd5b50565b611e3a81611a40565b8114611e4557600080fd5b50565b611e5181611a52565b8114611e5c57600080fd5b50565b611e6881611a7e565b8114611e7357600080fd5b5056fea2646970667358221220a5e84d07238a3530fe4bb7c07a117eb0d2c8c961a6fd28bb70033e65e58de7b964736f6c63430008060033608060405234801561001057600080fd5b5061002d61002261003260201b60201c565b61003a60201b60201c565b6100fe565b600033905090565b60008060009054906101000a900473ffffffffffffffffffffffffffffffffffffffff169050816000806101000a81548173ffffffffffffffffffffffffffffffffffffffff021916908373ffffffffffffffffffffffffffffffffffffffff1602179055508173ffffffffffffffffffffffffffffffffffffffff168173ffffffffffffffffffffffffffffffffffffffff167f8be0079c531659141344cd1fd0a4f28419497f9722a3daafe3b4186f6b6457e060405160405180910390a35050565b610c098061010d6000396000f3fe6080604052600436106100555760003560e01c806351cff8d91461005a578063715018a6146100835780638da5cb5b1461009a578063e3a9db1a146100c5578063f2fde38b14610102578063f340fa011461012b575b600080fd5b34801561006657600080fd5b50610081600480360381019061007c91906107f9565b610147565b005b34801561008f57600080fd5b506100986102c7565b005b3480156100a657600080fd5b506100af61034f565b6040516100bc9190610908565b60405180910390f35b3480156100d157600080fd5b506100ec60048036038101906100e791906107cc565b610378565b6040516100f991906109a3565b60405180910390f35b34801561010e57600080fd5b50610129600480360381019061012491906107cc565b6103c1565b005b610145600480360381019061014091906107cc565b6104b9565b005b61014f6105e2565b73ffffffffffffffffffffffffffffffffffffffff1661016d61034f565b73ffffffffffffffffffffffffffffffffffffffff16146101c3576040517f08c379a00000000000000000000000000000000000000000000000000000000081526004016101ba90610983565b60405180910390fd5b6000600160008373ffffffffffffffffffffffffffffffffffffffff1673ffffffffffffffffffffffffffffffffffffffff1681526020019081526020016000205490506000600160008473ffffffffffffffffffffffffffffffffffffffff1673ffffffffffffffffffffffffffffffffffffffff16815260200190815260200160002081905550610275818373ffffffffffffffffffffffffffffffffffffffff166105ea90919063ffffffff16565b8173ffffffffffffffffffffffffffffffffffffffff167f7084f5476618d8e60b11ef0d7d3f06914655adb8793e28ff7f018d4c76d505d5826040516102bb91906109a3565b60405180910390a25050565b6102cf6105e2565b73ffffffffffffffffffffffffffffffffffffffff166102ed61034f565b73ffffffffffffffffffffffffffffffffffffffff1614610343576040517f08c379a000000000000000000000000000000000000000000000000000000000815260040161033a90610983565b60405180910390fd5b61034d60006106de565b565b60008060009054906101000a900473ffffffffffffffffffffffffffffffffffffffff16905090565b6000600160008373ffffffffffffffffffffffffffffffffffffffff1673ffffffffffffffffffffffffffffffffffffffff168152602001908152602001600020549050919050565b6103c96105e2565b73ffffffffffffffffffffffffffffffffffffffff166103e761034f565b73ffffffffffffffffffffffffffffffffffffffff161461043d576040517f08c379a000000000000000000000000000000000000000000000000000000000815260040161043490610983565b60405180910390fd5b600073ffffffffffffffffffffffffffffffffffffffff168173ffffffffffffffffffffffffffffffffffffffff1614156104ad576040517f08c379a00000000000000000000000000000000000000000000000000000000081526004016104a490610923565b60405180910390fd5b6104b6816106de565b50565b6104c16105e2565b73ffffffffffffffffffffffffffffffffffffffff166104df61034f565b73ffffffffffffffffffffffffffffffffffffffff1614610535576040517f08c379a000000000000000000000000000000000000000000000000000000000815260040161052c90610983565b60405180910390fd5b600034905080600160008473ffffffffffffffffffffffffffffffffffffffff1673ffffffffffffffffffffffffffffffffffffffff168152602001908152602001600020600082825461058991906109da565b925050819055508173ffffffffffffffffffffffffffffffffffffffff167f2da466a7b24304f47e87fa2e1e5a81b9831ce54fec19055ce277ca2f39ba42c4826040516105d691906109a3565b60405180910390a25050565b600033905090565b8047101561062d576040517f08c379a000000000000000000000000000000000000000000000000000000000815260040161062490610963565b60405180910390fd5b60008273ffffffffffffffffffffffffffffffffffffffff1682604051610653906108f3565b60006040518083038185875af1925050503d8060008114610690576040519150601f19603f3d011682016040523d82523d6000602084013e610695565b606091505b50509050806106d9576040517f08c379a00000000000000000000000000000000000000000000000000000000081526004016106d090610943565b60405180910390fd5b505050565b60008060009054906101000a900473ffffffffffffffffffffffffffffffffffffffff169050816000806101000a81548173ffffffffffffffffffffffffffffffffffffffff021916908373ffffffffffffffffffffffffffffffffffffffff1602179055508173ffffffffffffffffffffffffffffffffffffffff168173ffffffffffffffffffffffffffffffffffffffff167f8be0079c531659141344cd1fd0a4f28419497f9722a3daafe3b4186f6b6457e060405160405180910390a35050565b6000813590506107b181610ba5565b92915050565b6000813590506107c681610bbc565b92915050565b6000602082840312156107e2576107e1610aad565b5b60006107f0848285016107a2565b91505092915050565b60006020828403121561080f5761080e610aad565b5b600061081d848285016107b7565b91505092915050565b61082f81610a30565b82525050565b60006108426026836109c9565b915061084d82610ab2565b604082019050919050565b6000610865603a836109c9565b915061087082610b01565b604082019050919050565b6000610888601d836109c9565b915061089382610b50565b602082019050919050565b60006108ab6020836109c9565b91506108b682610b79565b602082019050919050565b60006108ce6000836109be565b91506108d982610ba2565b600082019050919050565b6108ed81610a74565b82525050565b60006108fe826108c1565b9150819050919050565b600060208201905061091d6000830184610826565b92915050565b6000602082019050818103600083015261093c81610835565b9050919050565b6000602082019050818103600083015261095c81610858565b9050919050565b6000602082019050818103600083015261097c8161087b565b9050919050565b6000602082019050818103600083015261099c8161089e565b9050919050565b60006020820190506109b860008301846108e4565b92915050565b600081905092915050565b600082825260208201905092915050565b60006109e582610a74565b91506109f083610a74565b9250827fffffffffffffffffffffffffffffffffffffffffffffffffffffffffffffffff03821115610a2557610a24610a7e565b5b828201905092915050565b6000610a3b82610a54565b9050919050565b6000610a4d82610a54565b9050919050565b600073ffffffffffffffffffffffffffffffffffffffff82169050919050565b6000819050919050565b7f4e487b7100000000000000000000000000000000000000000000000000000000600052601160045260246000fd5b600080fd5b7f4f776e61626c653a206e6577206f776e657220697320746865207a65726f206160008201527f6464726573730000000000000000000000000000000000000000000000000000602082015250565b7f416464726573733a20756e61626c6520746f2073656e642076616c75652c207260008201527f6563697069656e74206d61792068617665207265766572746564000000000000602082015250565b7f416464726573733a20696e73756666696369656e742062616c616e6365000000600082015250565b7f4f776e61626c653a2063616c6c6572206973206e6f7420746865206f776e6572600082015250565b50565b610bae81610a30565b8114610bb957600080fd5b50565b610bc581610a42565b8114610bd057600080fd5b5056fea26469706673582212203baefec478c62758b78e35a6d49512af1453071cd5bda34fd952fd10119031d764736f6c63430008060033",
  "immutableReferences": {},
  "source": "// SPDX-License-Identifier: UNLICENSED\r\n\r\npragma solidity ^0.8.6;\r\n\r\nimport \"./Dragoncontract.sol\";\r\nimport \"@openzeppelin/contracts/access/Ownable.sol\";\r\nimport \"@openzeppelin/contracts/utils/escrow/Escrow.sol\";\r\nimport \"./IDragonMarketplace.sol\";\r\n\r\ncontract DragonMarketplace is Ownable, IDragonMarketplace {\r\n  Dragoncontract private _dragonContract;\r\n  Escrow private _escrowContract;\r\n\r\n  struct Offer {\r\n    address payable seller;\r\n    uint256 price;\r\n    uint256 index;\r\n    uint256 tokenId;\r\n    bool active;\r\n  }\r\n\r\n  constructor(address dragonContract) {\r\n    _escrowContract = new Escrow();\r\n    setDragonContract(dragonContract);\r\n  }\r\n\r\n  Offer[] offers;\r\n\r\n  mapping(uint256 => Offer) tokenIdToOffer;\r\n\r\n  function setDragonContract(address _dragonContractAddress) override public onlyOwner {\r\n    _dragonContract = Dragoncontract(_dragonContractAddress);\r\n  }\r\n\r\n  function getOffer(uint256 _tokenId) override external view returns (address seller, uint256 price, uint256 index, uint256 tokenId, bool active) {\r\n    return (tokenIdToOffer[_tokenId].seller, tokenIdToOffer[_tokenId].price, tokenIdToOffer[_tokenId].index, tokenIdToOffer[_tokenId].tokenId, tokenIdToOffer[_tokenId].active);\r\n  }\r\n\r\n  function getActiveStatus(uint256 _tokenId) external view returns (bool active) {\r\n    return tokenIdToOffer[_tokenId].active;\r\n  }\r\n\r\n  function getAllTokenOnSale() override external view returns(uint256[] memory listOfOffers) {\r\n    uint256[] memory tokensForSale = new uint256[](offers.length);\r\n    uint256 counter = 0;\r\n    for(uint256 i = 0; i < offers.length; i++) {\r\n      if(offers[i].active) {\r\n        tokensForSale[counter] = offers[i].tokenId;\r\n        counter++;\r\n      }\r\n    }\r\n    return tokensForSale;\r\n  }\r\n\r\n  function setOffer(uint256 _price, uint256 _tokenId) override external {\r\n    require(_dragonContract._owns(msg.sender, _tokenId), \"You are not the token owner\");\r\n    require(!tokenIdToOffer[_tokenId].active, \"You cannot have more then one offer for a token at a time\");\r\n    require(_dragonContract.isApprovedForAll(msg.sender, address(this)), \"Marketplace contract is not an approved operator\");\r\n\r\n    Offer memory _newOffer = Offer(payable(msg.sender), _price, offers.length, _tokenId, true);\r\n    tokenIdToOffer[_tokenId] = _newOffer;\r\n    offers.push(_newOffer);\r\n\r\n    emit MarketTransaction(\"Offer Created\", msg.sender, _tokenId);\r\n  }\r\n\r\n  function removeOffer(uint256 _tokenId) override external {\r\n    Offer memory offer = tokenIdToOffer[_tokenId];\r\n\r\n    require(offer.seller == msg.sender, \"Only the token seller can remove an offer\");\r\n\r\n    _offerRemove(_tokenId);\r\n\r\n    emit MarketTransaction(\"Offer removed\", msg.sender, _tokenId);\r\n  }\r\n\r\n  function buyDragon(uint256 _tokenId, address payable _seller) override external payable {\r\n    Offer memory offer = tokenIdToOffer[_tokenId];\r\n\r\n    require(offer.price == msg.value, \"The price of the offer is incorrect\");\r\n    require(offer.active, \"There is no offer for this token\");\r\n\r\n    _offerRemove(_tokenId);\r\n\r\n    sendPayment(_seller, msg.value);\r\n    _dragonContract.transferFrom(offer.seller, msg.sender, _tokenId);\r\n\r\n    emit MarketTransaction(\"Token purchased\", msg.sender, _tokenId);\r\n  }\r\n\r\n  function sendPayment(address payable _payee, uint256 _amount) public payable {\r\n    _escrowContract.deposit{value: _amount}(_payee);\r\n  }\r\n\r\n  function withdraw(address payable _payee) external {\r\n    _escrowContract.withdraw(_payee);\r\n  }\r\n\r\n  function balance(address _payee) external view returns (uint256 userBalance) {\r\n    return _escrowContract.depositsOf(_payee);\r\n  }\r\n\r\n  function _offerRemove(uint256 _tokenId) private {\r\n    offers[tokenIdToOffer[_tokenId].index].active = false;\r\n    delete tokenIdToOffer[_tokenId];\r\n  }\r\n}\r\n",
  "sourcePath": "C:\\Markus-Dragons\\contracts\\DragonMarketplace.sol",
  "compiler": {
    "name": "solc",
    "version": "0.8.6+commit.11564f7e.Emscripten.clang"
  },
  "schemaVersion": "3.2.0",
  "updatedAt": "2021-07-22T08:20:51.785Z",
  "networkType": "ethereum",
  "devdoc": {
    "kind": "dev",
    "methods": {
      "owner()": {
        "details": "Returns the address of the current owner."
      },
      "renounceOwnership()": {
        "details": "Leaves the contract without owner. It will not be possible to call `onlyOwner` functions anymore. Can only be called by the current owner. NOTE: Renouncing ownership will leave the contract without an owner, thereby removing any functionality that is only available to the owner."
      },
      "transferOwnership(address)": {
        "details": "Transfers ownership of the contract to a new account (`newOwner`). Can only be called by the current owner."
      }
    },
    "version": 1
  },
  "userdoc": {
    "kind": "user",
    "methods": {
      "buyDragon(uint256,address)": {
        "notice": "Executes the purchase of _tokenId. Sends the funds to the seller and transfers the token using transferFrom in Dragoncontract. Emits the MarketTransaction event with txType \"Buy\". Requirement: The msg.value needs to equal the price of _tokenId Requirement: There must be an active offer for _tokenId"
      },
      "getAllTokenOnSale()": {
        "notice": "Get all tokenId's that are currently for sale. Returns an empty arror if none exist."
      },
      "getOffer(uint256)": {
        "notice": "Get the details about a offer for _tokenId. Throws an error if there is no active offer for _tokenId."
      },
      "removeOffer(uint256)": {
        "notice": "Removes an existing offer. Emits the MarketTransaction event with txType \"Remove offer\" Requirement: Only the seller of _tokenId can remove an offer."
      },
      "setDragonContract(address)": {
        "notice": "Set the current DragonContract address and initialize the instance of Dragoncontract. Requirement: Only the contract owner can call."
      },
      "setOffer(uint256,uint256)": {
        "notice": "Creates a new offer for _tokenId for the price _price. Emits the MarketTransaction event with txType \"Create offer\" Requirement: Only the owner of _tokenId can create an offer. Requirement: There can only be one active offer for a token at a time. Requirement: Marketplace contract (this) needs to be an approved operator when the offer is created."
      }
    },
    "version": 1
  }
}