{
  "contractName": "Dragoncontract",
  "abi": [
    {
      "anonymous": false,
      "inputs": [
        {
          "indexed": false,
          "internalType": "address",
          "name": "owner",
          "type": "address"
        },
        {
          "indexed": false,
          "internalType": "uint256",
          "name": "dragonId",
          "type": "uint256"
        },
        {
          "indexed": false,
          "internalType": "uint256",
          "name": "genes",
          "type": "uint256"
        },
        {
          "indexed": false,
          "internalType": "uint256",
          "name": "dadId",
          "type": "uint256"
        },
        {
          "indexed": false,
          "internalType": "uint256",
          "name": "momId",
          "type": "uint256"
        }
      ],
      "name": "Birth",
      "type": "event"
    },
    {
      "anonymous": false,
      "inputs": [
        {
          "indexed": true,
          "internalType": "address",
          "name": "from",
          "type": "address"
        },
        {
          "indexed": true,
          "internalType": "address",
          "name": "to",
          "type": "address"
        },
        {
          "indexed": true,
          "internalType": "uint256",
          "name": "tokenId",
          "type": "uint256"
        }
      ],
      "name": "Transfer",
      "type": "event"
    },
    {
      "constant": true,
      "inputs": [],
      "name": "gen0CreationLimit",
      "outputs": [
        {
          "internalType": "uint256",
          "name": "",
          "type": "uint256"
        }
      ],
      "payable": false,
      "stateMutability": "view",
      "type": "function"
    },
    {
      "constant": true,
      "inputs": [],
      "name": "gen0Total",
      "outputs": [
        {
          "internalType": "uint256",
          "name": "",
          "type": "uint256"
        }
      ],
      "payable": false,
      "stateMutability": "view",
      "type": "function"
    },
    {
      "constant": true,
      "inputs": [
        {
          "internalType": "uint256",
          "name": "_tokenId",
          "type": "uint256"
        }
      ],
      "name": "getDragon",
      "outputs": [
        {
          "internalType": "uint256",
          "name": "genes",
          "type": "uint256"
        },
        {
          "internalType": "uint256",
          "name": "birthTime",
          "type": "uint256"
        },
        {
          "internalType": "uint256",
          "name": "dadId",
          "type": "uint256"
        },
        {
          "internalType": "uint256",
          "name": "momId",
          "type": "uint256"
        },
        {
          "internalType": "uint256",
          "name": "generation",
          "type": "uint256"
        },
        {
          "internalType": "address",
          "name": "owner",
          "type": "address"
        }
      ],
      "payable": false,
      "stateMutability": "view",
      "type": "function"
    },
    {
      "constant": true,
      "inputs": [],
      "name": "allOwnedDragons",
      "outputs": [
        {
          "internalType": "uint256[]",
          "name": "",
          "type": "uint256[]"
        }
      ],
      "payable": false,
      "stateMutability": "view",
      "type": "function"
    },
    {
      "constant": false,
      "inputs": [
        {
          "internalType": "uint256",
          "name": "_genes",
          "type": "uint256"
        }
      ],
      "name": "createDragonGen0",
      "outputs": [],
      "payable": false,
      "stateMutability": "nonpayable",
      "type": "function"
    },
    {
      "constant": true,
      "inputs": [],
      "name": "name",
      "outputs": [
        {
          "internalType": "string",
          "name": "tokenName",
          "type": "string"
        }
      ],
      "payable": false,
      "stateMutability": "view",
      "type": "function"
    },
    {
      "constant": true,
      "inputs": [],
      "name": "symbol",
      "outputs": [
        {
          "internalType": "string",
          "name": "tokenSymbol",
          "type": "string"
        }
      ],
      "payable": false,
      "stateMutability": "view",
      "type": "function"
    },
    {
      "constant": true,
      "inputs": [
        {
          "internalType": "address",
          "name": "_owner",
          "type": "address"
        }
      ],
      "name": "balanceOf",
      "outputs": [
        {
          "internalType": "uint256",
          "name": "balance",
          "type": "uint256"
        }
      ],
      "payable": false,
      "stateMutability": "view",
      "type": "function"
    },
    {
      "constant": true,
      "inputs": [],
      "name": "totalSupply",
      "outputs": [
        {
          "internalType": "uint256",
          "name": "total",
          "type": "uint256"
        }
      ],
      "payable": false,
      "stateMutability": "view",
      "type": "function"
    },
    {
      "constant": true,
      "inputs": [
        {
          "internalType": "uint256",
          "name": "_tokenId",
          "type": "uint256"
        }
      ],
      "name": "ownerOf",
      "outputs": [
        {
          "internalType": "address",
          "name": "owner",
          "type": "address"
        }
      ],
      "payable": false,
      "stateMutability": "view",
      "type": "function"
    },
    {
      "constant": false,
      "inputs": [
        {
          "internalType": "address",
          "name": "_to",
          "type": "address"
        },
        {
          "internalType": "uint256",
          "name": "_tokenId",
          "type": "uint256"
        }
      ],
      "name": "transfer",
      "outputs": [],
      "payable": false,
      "stateMutability": "nonpayable",
      "type": "function"
    }
  ],
  "bytecode": "0x6080604052336000806101000a81548173ffffffffffffffffffffffffffffffffffffffff021916908373ffffffffffffffffffffffffffffffffffffffff160217905550611271806100536000396000f3fe608060405234801561001057600080fd5b50600436106100a95760003560e01c806370a082311161007157806370a08231146101f957806395d89b41146102515780639c542e1c146102d4578063a9059cbb14610302578063d72cfb8c14610350578063e0bb933b146103af576100a9565b806306fdde03146100ae57806318160ddd146101315780631e19fa331461014f578063404d0e3e1461016d5780636352211e1461018b575b600080fd5b6100b6610440565b6040518080602001828103825283818151815260200191508051906020019080838360005b838110156100f65780820151818401526020810190506100db565b50505050905090810190601f1680156101235780820380516001836020036101000a031916815260200191505b509250505060405180910390f35b61013961047d565b6040518082815260200191505060405180910390f35b61015761048a565b6040518082815260200191505060405180910390f35b610175610490565b6040518082815260200191505060405180910390f35b6101b7600480360360208110156101a157600080fd5b8101908080359060200190929190505050610495565b604051808273ffffffffffffffffffffffffffffffffffffffff1673ffffffffffffffffffffffffffffffffffffffff16815260200191505060405180910390f35b61023b6004803603602081101561020f57600080fd5b81019080803573ffffffffffffffffffffffffffffffffffffffff16906020019092919050505061054c565b6040518082815260200191505060405180910390f35b610259610595565b6040518080602001828103825283818151815260200191508051906020019080838360005b8381101561029957808201518184015260208101905061027e565b50505050905090810190601f1680156102c65780820380516001836020036101000a031916815260200191505b509250505060405180910390f35b610300600480360360208110156102ea57600080fd5b81019080803590602001909291905050506105d2565b005b61034e6004803603604081101561031857600080fd5b81019080803573ffffffffffffffffffffffffffffffffffffffff169060200190929190803590602001909291905050506106f7565b005b61035861088d565b6040518080602001828103825283818151815260200191508051906020019060200280838360005b8381101561039b578082015181840152602081019050610380565b505050509050019250505060405180910390f35b6103db600480360360208110156103c557600080fd5b81019080803590602001909291905050506109aa565b604051808781526020018681526020018581526020018481526020018381526020018273ffffffffffffffffffffffffffffffffffffffff1673ffffffffffffffffffffffffffffffffffffffff168152602001965050505050505060405180910390f35b60606040518060400160405280600d81526020017f4d61726b7573447261676f6e7300000000000000000000000000000000000000815250905090565b6000600180549050905090565b60045481565b600a81565b60006001805490508210610511576040517f08c379a00000000000000000000000000000000000000000000000000000000081526004018080602001828103825260148152602001807f546f6b656e20646f6573206e6f7420657869737400000000000000000000000081525060200191505060405180910390fd5b6002600083815260200190815260200160002060009054906101000a900473ffffffffffffffffffffffffffffffffffffffff169050919050565b6000600360008373ffffffffffffffffffffffffffffffffffffffff1673ffffffffffffffffffffffffffffffffffffffff168152602001908152602001600020549050919050565b60606040518060400160405280600281526020017f4d44000000000000000000000000000000000000000000000000000000000000815250905090565b3373ffffffffffffffffffffffffffffffffffffffff166000809054906101000a900473ffffffffffffffffffffffffffffffffffffffff1673ffffffffffffffffffffffffffffffffffffffff1614610677576040517f08c379a00000000000000000000000000000000000000000000000000000000081526004018080602001828103825260268152602001806111a56026913960400191505060405180910390fd5b600a600454106106d2576040517f08c379a00000000000000000000000000000000000000000000000000000000081526004018080602001828103825260288152602001806111cb6028913960400191505060405180910390fd5b6004600081548092919060010191905055506106f381600080600033610b79565b5050565b600073ffffffffffffffffffffffffffffffffffffffff168273ffffffffffffffffffffffffffffffffffffffff16141561077d576040517f08c379a00000000000000000000000000000000000000000000000000000000081526004018080602001828103825260238152602001806111f36023913960400191505060405180910390fd5b3073ffffffffffffffffffffffffffffffffffffffff168273ffffffffffffffffffffffffffffffffffffffff161415610802576040517f08c379a00000000000000000000000000000000000000000000000000000000081526004018080602001828103825260278152602001806112166027913960400191505060405180910390fd5b61080c3382610d4a565b61087e576040517f08c379a000000000000000000000000000000000000000000000000000000000815260040180806020018281038252601d8152602001807f746f6b656e206d757374206265206f776e65642062792073656e64657200000081525060200191505060405180910390fd5b610889338383610db6565b5050565b606080600360003373ffffffffffffffffffffffffffffffffffffffff1673ffffffffffffffffffffffffffffffffffffffff168152602001908152602001600020546040519080825280602002602001820160405280156108fe5781602001602082028038833980820191505090505b50905060008090505b6001805490508110156109a2573373ffffffffffffffffffffffffffffffffffffffff166002600083815260200190815260200160002060009054906101000a900473ffffffffffffffffffffffffffffffffffffffff1673ffffffffffffffffffffffffffffffffffffffff161415610995578082828151811061098857fe5b6020026020010181815250505b8080600101915050610907565b508091505090565b6000806000806000806001805490508710610a2d576040517f08c379a00000000000000000000000000000000000000000000000000000000081526004018080602001828103825260148152602001807f546f6b656e20646f6573206e6f7420657869737400000000000000000000000081525060200191505060405180910390fd5b60018781548110610a3a57fe5b90600052602060002090600202016000015460018881548110610a5957fe5b906000526020600020906002020160010160009054906101000a900467ffffffffffffffff1660018981548110610a8c57fe5b906000526020600020906002020160010160089054906101000a900463ffffffff1660018a81548110610abb57fe5b9060005260206000209060020201600101600c9054906101000a900463ffffffff1660018b81548110610aea57fe5b906000526020600020906002020160010160109054906101000a900461ffff16600260008d815260200190815260200160002060009054906101000a900473ffffffffffffffffffffffffffffffffffffffff168467ffffffffffffffff1694508363ffffffff1693508263ffffffff1692508161ffff16915095509550955095509550955091939550919395565b6000610b8361115b565b6040518060a001604052808881526020014267ffffffffffffffff1681526020018763ffffffff1681526020018663ffffffff1681526020018561ffff1681525090506000600180549050905060018083908060018154018082558091505090600182039060005260206000209060020201600090919290919091506000820151816000015560208201518160010160006101000a81548167ffffffffffffffff021916908367ffffffffffffffff16021790555060408201518160010160086101000a81548163ffffffff021916908363ffffffff160217905550606082015181600101600c6101000a81548163ffffffff021916908363ffffffff16021790555060808201518160010160106101000a81548161ffff021916908361ffff160217905550505050507f0a5311bd2a6608f08a180df2ee7c5946819a649b204b554bb8e39825b2c50ad584828a898b604051808673ffffffffffffffffffffffffffffffffffffffff1673ffffffffffffffffffffffffffffffffffffffff1681526020018581526020018481526020018381526020018281526020019550505050505060405180910390a1610d3c60008583610db6565b809250505095945050505050565b60006002600083815260200190815260200160002060009054906101000a900473ffffffffffffffffffffffffffffffffffffffff1673ffffffffffffffffffffffffffffffffffffffff168373ffffffffffffffffffffffffffffffffffffffff1614905092915050565b610e096001600360008573ffffffffffffffffffffffffffffffffffffffff1673ffffffffffffffffffffffffffffffffffffffff16815260200190815260200160002054610fc990919063ffffffff16565b600360008473ffffffffffffffffffffffffffffffffffffffff1673ffffffffffffffffffffffffffffffffffffffff16815260200190815260200160002081905550816002600083815260200190815260200160002060006101000a81548173ffffffffffffffffffffffffffffffffffffffff021916908373ffffffffffffffffffffffffffffffffffffffff160217905550600073ffffffffffffffffffffffffffffffffffffffff168373ffffffffffffffffffffffffffffffffffffffff1614610f6957610f256001600360008673ffffffffffffffffffffffffffffffffffffffff1673ffffffffffffffffffffffffffffffffffffffff1681526020019081526020016000205461105190919063ffffffff16565b600360008573ffffffffffffffffffffffffffffffffffffffff1673ffffffffffffffffffffffffffffffffffffffff168152602001908152602001600020819055505b808273ffffffffffffffffffffffffffffffffffffffff168473ffffffffffffffffffffffffffffffffffffffff167fddf252ad1be2c89b69c2b068fc378daa952ba7f163c4a11628f55a4df523b3ef60405160405180910390a4505050565b600080828401905083811015611047576040517f08c379a000000000000000000000000000000000000000000000000000000000815260040180806020018281038252601b8152602001807f536166654d6174683a206164646974696f6e206f766572666c6f77000000000081525060200191505060405180910390fd5b8091505092915050565b600061109383836040518060400160405280601e81526020017f536166654d6174683a207375627472616374696f6e206f766572666c6f77000081525061109b565b905092915050565b6000838311158290611148576040517f08c379a00000000000000000000000000000000000000000000000000000000081526004018080602001828103825283818151815260200191508051906020019080838360005b8381101561110d5780820151818401526020810190506110f2565b50505050905090810190601f16801561113a5780820380516001836020036101000a031916815260200191505b509250505060405180910390fd5b5060008385039050809150509392505050565b6040518060a0016040528060008152602001600067ffffffffffffffff168152602001600063ffffffff168152602001600063ffffffff168152602001600061ffff168152509056fe596f7520617265206e6f7420746865206f776e6572206f66207468697320636f6e7472616374546865206c696d6974206f662067656e65726174696f6e203020647261676f6e732069733a20313063616e6e6f74207472616e7366657220746f20746865207a65726f206164647265737363616e6e6f74207472616e7366657220746f2074686520636f6e74726163742061646472657373a265627a7a72315820784cae0b7d6a5ba084033e3393ee2437a9575b817c83fff86ff8e9b86bbd736d64736f6c634300050c0032",
  "source": "pragma solidity ^0.5.12;\n\nimport \"./IERC721.sol\";\nimport \"./Safemath.sol\";\nimport \"./Ownable.sol\";\n\ncontract Dragoncontract is IERC721, Ownable {\n\n  using SafeMath for uint256;\n\n  uint256 public constant gen0CreationLimit = 10;\n  string private constant nameOfToken = \"MarkusDragons\";\n  string private constant symbolOfToken = \"MD\";\n\n  event Birth(\n    address owner,\n    uint256 dragonId,\n    uint256 genes,\n    uint256 dadId,\n    uint256 momId\n  );\n\n  struct Dragon {\n    uint256 genes;\n    uint64 birthTime;\n    uint32 dadId;\n    uint32 momId;\n    uint16 generation;\n  }\n\n  Dragon[] private dragons;\n\n  mapping(uint256 => address) private dragonOwners;\n  mapping(address => uint256) private tokenBalances;\n\n  uint256 public gen0Total;\n\n  function getDragon(uint256 _tokenId) external view returns (\n    uint256 genes,\n    uint256 birthTime,\n    uint256 dadId,\n    uint256 momId,\n    uint256 generation,\n    address owner) {\n      require(_tokenId < dragons.length, \"Token does not exist\");\n      return (\n        dragons[_tokenId].genes,\n        dragons[_tokenId].birthTime,\n        dragons[_tokenId].dadId,\n        dragons[_tokenId].momId,\n        dragons[_tokenId].generation,\n        dragonOwners[_tokenId]\n      );\n    }\n\n    function allOwnedDragons() external view returns(uint256[] memory) {\n        uint256[] memory ownedDragons = new uint256[](tokenBalances[msg.sender]);\n        for(uint256 i = 0; i < dragons.length; i++) {\n          if(dragonOwners[i] == msg.sender) {\n            ownedDragons[i] = i;\n          }\n        }\n        return ownedDragons;\n    }\n\n  function createDragonGen0(uint256 _genes) external onlyOwner {\n    require(gen0Total < gen0CreationLimit, \"The limit of generation 0 dragons is: 10\");\n\n    gen0Total++;\n\n    _createDragon(_genes, 0, 0, 0, msg.sender);\n  }\n\n  function _createDragon(\n    uint256 _genes,\n    uint256 _dadId,\n    uint256 _momId,\n    uint256 _generation,\n    address _owner\n  ) private returns (uint256) {\n      Dragon memory _dragon = Dragon(_genes, uint64(now), uint32(_dadId), uint32(_momId), uint16(_generation));\n\n      uint256 newDragonId = dragons.length;\n      dragons.push(_dragon) - 1;\n\n      emit Birth(_owner, newDragonId, _genes, _momId, _dadId);\n\n      _transfer(address(0), _owner, newDragonId);\n\n      return newDragonId;\n  }\n\n  function name() external view returns (string memory tokenName) {\n    return nameOfToken;\n  }\n\n  function symbol() external view returns (string memory tokenSymbol) {\n    return symbolOfToken;\n  }\n\n  function balanceOf(address _owner) external view returns (uint256 balance) {\n    return tokenBalances[_owner];\n  }\n\n  function totalSupply() external view returns (uint256 total) {\n    return dragons.length;\n  }\n\n  function ownerOf(uint256 _tokenId) external view returns (address owner) {\n    require(_tokenId < dragons.length, \"Token does not exist\");\n    return dragonOwners[_tokenId];\n  }\n\n  function transfer(address _to, uint256 _tokenId) external {\n    require(_to != address(0), \"cannot transfer to the zero address\");\n    require(_to != address(this), \"cannot transfer to the contract address\");\n    require(_owns(msg.sender, _tokenId), \"token must be owned by sender\");\n\n    _transfer(msg.sender, _to, _tokenId);\n  }\n\n  function _transfer(address _from, address _to, uint256 _tokenId) private {\n    tokenBalances[_to] = tokenBalances[_to].add(1);\n\n    dragonOwners[_tokenId] = _to;\n\n    if (_from != address(0)) {\n      tokenBalances[_from] = tokenBalances[_from].sub(1);\n    }\n\n    emit Transfer(_from, _to, _tokenId);\n  }\n\n  function _owns(address _claimant, uint256 _tokenId) private view returns (bool) {\n    return _claimant == dragonOwners[_tokenId];\n  }\n}\n",
  "sourcePath": "C:\\Crypto-Dragons\\contracts\\Dragoncontract.sol",
  "compiler": {
    "name": "solc",
    "version": "0.5.12+commit.7709ece9.Emscripten.clang"
  },
  "schemaVersion": "3.2.0",
  "updatedAt": "2021-03-26T12:49:09.258Z",
  "networkType": "ethereum",
  "devdoc": {
    "methods": {}
  },
  "userdoc": {
    "methods": {}
  }
}