{
  "contractName": "DragonMarketplace",
  "abi": [
    {
      "inputs": [
        {
          "internalType": "address",
          "name": "dragonContract",
          "type": "address"
        }
      ],
      "stateMutability": "nonpayable",
      "type": "constructor"
    },
    {
      "anonymous": false,
      "inputs": [
        {
          "indexed": false,
          "internalType": "string",
          "name": "TxType",
          "type": "string"
        },
        {
          "indexed": false,
          "internalType": "address",
          "name": "owner",
          "type": "address"
        },
        {
          "indexed": false,
          "internalType": "uint256",
          "name": "tokenId",
          "type": "uint256"
        }
      ],
      "name": "MarketTransaction",
      "type": "event"
    },
    {
      "anonymous": false,
      "inputs": [
        {
          "indexed": true,
          "internalType": "address",
          "name": "previousOwner",
          "type": "address"
        },
        {
          "indexed": true,
          "internalType": "address",
          "name": "newOwner",
          "type": "address"
        }
      ],
      "name": "OwnershipTransferred",
      "type": "event"
    },
    {
      "inputs": [],
      "name": "owner",
      "outputs": [
        {
          "internalType": "address",
          "name": "",
          "type": "address"
        }
      ],
      "stateMutability": "view",
      "type": "function",
      "constant": true
    },
    {
      "inputs": [],
      "name": "renounceOwnership",
      "outputs": [],
      "stateMutability": "nonpayable",
      "type": "function"
    },
    {
      "inputs": [
        {
          "internalType": "address",
          "name": "newOwner",
          "type": "address"
        }
      ],
      "name": "transferOwnership",
      "outputs": [],
      "stateMutability": "nonpayable",
      "type": "function"
    },
    {
      "inputs": [
        {
          "internalType": "address",
          "name": "_dragonContractAddress",
          "type": "address"
        }
      ],
      "name": "setDragonContract",
      "outputs": [],
      "stateMutability": "nonpayable",
      "type": "function"
    },
    {
      "inputs": [
        {
          "internalType": "uint256",
          "name": "_tokenId",
          "type": "uint256"
        }
      ],
      "name": "getOffer",
      "outputs": [
        {
          "internalType": "address",
          "name": "seller",
          "type": "address"
        },
        {
          "internalType": "uint256",
          "name": "price",
          "type": "uint256"
        },
        {
          "internalType": "uint256",
          "name": "index",
          "type": "uint256"
        },
        {
          "internalType": "uint256",
          "name": "tokenId",
          "type": "uint256"
        },
        {
          "internalType": "bool",
          "name": "active",
          "type": "bool"
        }
      ],
      "stateMutability": "view",
      "type": "function",
      "constant": true
    },
    {
      "inputs": [
        {
          "internalType": "uint256",
          "name": "_tokenId",
          "type": "uint256"
        }
      ],
      "name": "getActiveStatus",
      "outputs": [
        {
          "internalType": "bool",
          "name": "active",
          "type": "bool"
        }
      ],
      "stateMutability": "view",
      "type": "function",
      "constant": true
    },
    {
      "inputs": [],
      "name": "getAllTokenOnSale",
      "outputs": [
        {
          "internalType": "uint256[]",
          "name": "listOfOffers",
          "type": "uint256[]"
        }
      ],
      "stateMutability": "view",
      "type": "function",
      "constant": true
    },
    {
      "inputs": [
        {
          "internalType": "uint256",
          "name": "_price",
          "type": "uint256"
        },
        {
          "internalType": "uint256",
          "name": "_tokenId",
          "type": "uint256"
        }
      ],
      "name": "setOffer",
      "outputs": [],
      "stateMutability": "nonpayable",
      "type": "function"
    },
    {
      "inputs": [
        {
          "internalType": "uint256",
          "name": "_tokenId",
          "type": "uint256"
        }
      ],
      "name": "removeOffer",
      "outputs": [],
      "stateMutability": "nonpayable",
      "type": "function"
    },
    {
      "inputs": [
        {
          "internalType": "uint256",
          "name": "_tokenId",
          "type": "uint256"
        }
      ],
      "name": "buyDragon",
      "outputs": [],
      "stateMutability": "payable",
      "type": "function",
      "payable": true
    }
  ],
  "bytecode": "0x60806040523480156200001157600080fd5b5060405162001ea138038062001ea183398181016040528101906200003791906200024e565b620000576200004b6200006f60201b60201c565b6200007760201b60201c565b62000068816200013b60201b60201c565b5062000356565b600033905090565b60008060009054906101000a900473ffffffffffffffffffffffffffffffffffffffff169050816000806101000a81548173ffffffffffffffffffffffffffffffffffffffff021916908373ffffffffffffffffffffffffffffffffffffffff1602179055508173ffffffffffffffffffffffffffffffffffffffff168173ffffffffffffffffffffffffffffffffffffffff167f8be0079c531659141344cd1fd0a4f28419497f9722a3daafe3b4186f6b6457e060405160405180910390a35050565b6200014b6200006f60201b60201c565b73ffffffffffffffffffffffffffffffffffffffff16620001716200020e60201b60201c565b73ffffffffffffffffffffffffffffffffffffffff1614620001ca576040517f08c379a0000000000000000000000000000000000000000000000000000000008152600401620001c190620002a7565b60405180910390fd5b80600160006101000a81548173ffffffffffffffffffffffffffffffffffffffff021916908373ffffffffffffffffffffffffffffffffffffffff16021790555050565b60008060009054906101000a900473ffffffffffffffffffffffffffffffffffffffff16905090565b60008151905062000248816200033c565b92915050565b6000602082840312156200026757620002666200030e565b5b6000620002778482850162000237565b91505092915050565b60006200028f602083620002c9565b91506200029c8262000313565b602082019050919050565b60006020820190508181036000830152620002c28162000280565b9050919050565b600082825260208201905092915050565b6000620002e782620002ee565b9050919050565b600073ffffffffffffffffffffffffffffffffffffffff82169050919050565b600080fd5b7f4f776e61626c653a2063616c6c6572206973206e6f7420746865206f776e6572600082015250565b6200034781620002da565b81146200035357600080fd5b50565b611b3b80620003666000396000f3fe6080604052600436106100915760003560e01c80638da5cb5b116100595780638da5cb5b1461015e578063941b055b1461018957806395a0f9c7146101b2578063ecc6b2fd146101db578063f2fde38b1461021857610091565b8063039f14b0146100965780634579268a146100bf57806349b3709f14610100578063715018a61461012b5780638d15978714610142575b600080fd5b3480156100a257600080fd5b506100bd60048036038101906100b8919061105f565b610241565b005b3480156100cb57600080fd5b506100e660048036038101906100e191906110b9565b610301565b6040516100f795949392919061140c565b60405180910390f35b34801561010c57600080fd5b506101156103bc565b604051610122919061145f565b60405180910390f35b34801561013757600080fd5b506101406104d0565b005b61015c600480360381019061015791906110b9565b610558565b005b34801561016a57600080fd5b506101736107cb565b6040516101809190611368565b60405180910390f35b34801561019557600080fd5b506101b060048036038101906101ab91906110e6565b6107f4565b005b3480156101be57600080fd5b506101d960048036038101906101d491906110b9565b610c06565b005b3480156101e757600080fd5b5061020260048036038101906101fd91906110b9565b610d6f565b60405161020f9190611481565b60405180910390f35b34801561022457600080fd5b5061023f600480360381019061023a919061105f565b610d9c565b005b610249610e94565b73ffffffffffffffffffffffffffffffffffffffff166102676107cb565b73ffffffffffffffffffffffffffffffffffffffff16146102bd576040517f08c379a00000000000000000000000000000000000000000000000000000000081526004016102b4906115b4565b60405180910390fd5b80600160006101000a81548173ffffffffffffffffffffffffffffffffffffffff021916908373ffffffffffffffffffffffffffffffffffffffff16021790555050565b60008060008060006003600087815260200190815260200160002060000160009054906101000a900473ffffffffffffffffffffffffffffffffffffffff1660036000888152602001908152602001600020600101546003600089815260200190815260200160002060020154600360008a815260200190815260200160002060030154600360008b815260200190815260200160002060040160009054906101000a900460ff169450945094509450945091939590929450565b6060600060028054905067ffffffffffffffff8111156103df576103de6117bf565b5b60405190808252806020026020018201604052801561040d5781602001602082028036833780820191505090505b5090506000805b6002805490508110156104c757600115156002828154811061043957610438611790565b5b906000526020600020906005020160040160009054906101000a900460ff16151514156104b4576002818154811061047457610473611790565b5b90600052602060002090600502016003015483838151811061049957610498611790565b5b60200260200101818152505081806104b090611718565b9250505b80806104bf90611718565b915050610414565b50819250505090565b6104d8610e94565b73ffffffffffffffffffffffffffffffffffffffff166104f66107cb565b73ffffffffffffffffffffffffffffffffffffffff161461054c576040517f08c379a0000000000000000000000000000000000000000000000000000000008152600401610543906115b4565b60405180910390fd5b6105566000610e9c565b565b6000600360008381526020019081526020016000206040518060a00160405290816000820160009054906101000a900473ffffffffffffffffffffffffffffffffffffffff1673ffffffffffffffffffffffffffffffffffffffff1673ffffffffffffffffffffffffffffffffffffffff1681526020016001820154815260200160028201548152602001600382015481526020016004820160009054906101000a900460ff16151515158152505090503481602001511461064f576040517f08c379a000000000000000000000000000000000000000000000000000000000815260040161064690611630565b60405180910390fd5b8060800151610693576040517f08c379a000000000000000000000000000000000000000000000000000000000815260040161068a9061149c565b60405180910390fd5b61069c82610f60565b6000816020015111156106f957806000015173ffffffffffffffffffffffffffffffffffffffff166108fc82602001519081150290604051600060405180830381858888f193505050501580156106f7573d6000803e3d6000fd5b505b600160009054906101000a900473ffffffffffffffffffffffffffffffffffffffff1673ffffffffffffffffffffffffffffffffffffffff166342842e0e826000015133856040518463ffffffff1660e01b815260040161075c93929190611383565b600060405180830381600087803b15801561077657600080fd5b505af115801561078a573d6000803e3d6000fd5b505050507fd99e4fad9ad6313b1feb588fa8e605e3a9873172f2024330c35dd2b4041a438633836040516107bf9291906114dc565b60405180910390a15050565b60008060009054906101000a900473ffffffffffffffffffffffffffffffffffffffff16905090565b600160009054906101000a900473ffffffffffffffffffffffffffffffffffffffff1673ffffffffffffffffffffffffffffffffffffffff1663e21fd9fc33836040518363ffffffff1660e01b81526004016108519291906113e3565b60206040518083038186803b15801561086957600080fd5b505afa15801561087d573d6000803e3d6000fd5b505050506040513d601f19601f820116820180604052508101906108a1919061108c565b6108e0576040517f08c379a00000000000000000000000000000000000000000000000000000000081526004016108d790611594565b60405180910390fd5b6003600082815260200190815260200160002060040160009054906101000a900460ff1615610944576040517f08c379a000000000000000000000000000000000000000000000000000000000815260040161093b90611554565b60405180910390fd5b600160009054906101000a900473ffffffffffffffffffffffffffffffffffffffff1673ffffffffffffffffffffffffffffffffffffffff1663e985e9c533306040518363ffffffff1660e01b81526004016109a19291906113ba565b60206040518083038186803b1580156109b957600080fd5b505afa1580156109cd573d6000803e3d6000fd5b505050506040513d601f19601f820116820180604052508101906109f1919061108c565b610a30576040517f08c379a0000000000000000000000000000000000000000000000000000000008152600401610a27906115d4565b60405180910390fd5b60006040518060a001604052803373ffffffffffffffffffffffffffffffffffffffff1681526020018481526020016002805490508152602001838152602001600115158152509050806003600084815260200190815260200160002060008201518160000160006101000a81548173ffffffffffffffffffffffffffffffffffffffff021916908373ffffffffffffffffffffffffffffffffffffffff16021790555060208201518160010155604082015181600201556060820151816003015560808201518160040160006101000a81548160ff021916908315150217905550905050600281908060018154018082558091505060019003906000526020600020906005020160009091909190915060008201518160000160006101000a81548173ffffffffffffffffffffffffffffffffffffffff021916908373ffffffffffffffffffffffffffffffffffffffff16021790555060208201518160010155604082015181600201556060820151816003015560808201518160040160006101000a81548160ff02191690831515021790555050507fd99e4fad9ad6313b1feb588fa8e605e3a9873172f2024330c35dd2b4041a43863383604051610bf99291906115f4565b60405180910390a1505050565b6000600360008381526020019081526020016000206040518060a00160405290816000820160009054906101000a900473ffffffffffffffffffffffffffffffffffffffff1673ffffffffffffffffffffffffffffffffffffffff1673ffffffffffffffffffffffffffffffffffffffff1681526020016001820154815260200160028201548152602001600382015481526020016004820160009054906101000a900460ff16151515158152505090503373ffffffffffffffffffffffffffffffffffffffff16816000015173ffffffffffffffffffffffffffffffffffffffff1614610d29576040517f08c379a0000000000000000000000000000000000000000000000000000000008152600401610d2090611574565b60405180910390fd5b610d3282610f60565b7fd99e4fad9ad6313b1feb588fa8e605e3a9873172f2024330c35dd2b4041a43863383604051610d63929190611518565b60405180910390a15050565b60006003600083815260200190815260200160002060040160009054906101000a900460ff169050919050565b610da4610e94565b73ffffffffffffffffffffffffffffffffffffffff16610dc26107cb565b73ffffffffffffffffffffffffffffffffffffffff1614610e18576040517f08c379a0000000000000000000000000000000000000000000000000000000008152600401610e0f906115b4565b60405180910390fd5b600073ffffffffffffffffffffffffffffffffffffffff168173ffffffffffffffffffffffffffffffffffffffff161415610e88576040517f08c379a0000000000000000000000000000000000000000000000000000000008152600401610e7f906114bc565b60405180910390fd5b610e9181610e9c565b50565b600033905090565b60008060009054906101000a900473ffffffffffffffffffffffffffffffffffffffff169050816000806101000a81548173ffffffffffffffffffffffffffffffffffffffff021916908373ffffffffffffffffffffffffffffffffffffffff1602179055508173ffffffffffffffffffffffffffffffffffffffff168173ffffffffffffffffffffffffffffffffffffffff167f8be0079c531659141344cd1fd0a4f28419497f9722a3daafe3b4186f6b6457e060405160405180910390a35050565b60006002600360008481526020019081526020016000206002015481548110610f8c57610f8b611790565b5b906000526020600020906005020160040160006101000a81548160ff02191690831515021790555060036000828152602001908152602001600020600080820160006101000a81549073ffffffffffffffffffffffffffffffffffffffff02191690556001820160009055600282016000905560038201600090556004820160006101000a81549060ff0219169055505050565b60008135905061102f81611ac0565b92915050565b60008151905061104481611ad7565b92915050565b60008135905061105981611aee565b92915050565b600060208284031215611075576110746117ee565b5b600061108384828501611020565b91505092915050565b6000602082840312156110a2576110a16117ee565b5b60006110b084828501611035565b91505092915050565b6000602082840312156110cf576110ce6117ee565b5b60006110dd8482850161104a565b91505092915050565b600080604083850312156110fd576110fc6117ee565b5b600061110b8582860161104a565b925050602061111c8582860161104a565b9150509250929050565b6000611132838361134a565b60208301905092915050565b611147816116e2565b82525050565b6111568161169a565b82525050565b600061116782611660565b6111718185611678565b935061117c83611650565b8060005b838110156111ad5781516111948882611126565b975061119f8361166b565b925050600181019050611180565b5085935050505092915050565b6111c3816116ac565b82525050565b60006111d6602383611689565b91506111e1826117f3565b604082019050919050565b60006111f9602683611689565b915061120482611842565b604082019050919050565b600061121c601283611689565b915061122782611891565b602082019050919050565b600061123f600d83611689565b915061124a826118ba565b602082019050919050565b6000611262603983611689565b915061126d826118e3565b604082019050919050565b6000611285603383611689565b915061129082611932565b604082019050919050565b60006112a8602483611689565b91506112b382611981565b604082019050919050565b60006112cb602083611689565b91506112d6826119d0565b602082019050919050565b60006112ee603083611689565b91506112f9826119f9565b604082019050919050565b6000611311600d83611689565b915061131c82611a48565b602082019050919050565b6000611334603483611689565b915061133f82611a71565b604082019050919050565b611353816116d8565b82525050565b611362816116d8565b82525050565b600060208201905061137d600083018461114d565b92915050565b6000606082019050611398600083018661113e565b6113a5602083018561114d565b6113b26040830184611359565b949350505050565b60006040820190506113cf600083018561114d565b6113dc602083018461114d565b9392505050565b60006040820190506113f8600083018561114d565b6114056020830184611359565b9392505050565b600060a082019050611421600083018861114d565b61142e6020830187611359565b61143b6040830186611359565b6114486060830185611359565b61145560808301846111ba565b9695505050505050565b60006020820190508181036000830152611479818461115c565b905092915050565b600060208201905061149660008301846111ba565b92915050565b600060208201905081810360008301526114b5816111c9565b9050919050565b600060208201905081810360008301526114d5816111ec565b9050919050565b600060608201905081810360008301526114f58161120f565b9050611504602083018561114d565b6115116040830184611359565b9392505050565b6000606082019050818103600083015261153181611232565b9050611540602083018561114d565b61154d6040830184611359565b9392505050565b6000602082019050818103600083015261156d81611255565b9050919050565b6000602082019050818103600083015261158d81611278565b9050919050565b600060208201905081810360008301526115ad8161129b565b9050919050565b600060208201905081810360008301526115cd816112be565b9050919050565b600060208201905081810360008301526115ed816112e1565b9050919050565b6000606082019050818103600083015261160d81611304565b905061161c602083018561114d565b6116296040830184611359565b9392505050565b6000602082019050818103600083015261164981611327565b9050919050565b6000819050602082019050919050565b600081519050919050565b6000602082019050919050565b600082825260208201905092915050565b600082825260208201905092915050565b60006116a5826116b8565b9050919050565b60008115159050919050565b600073ffffffffffffffffffffffffffffffffffffffff82169050919050565b6000819050919050565b60006116ed826116f4565b9050919050565b60006116ff82611706565b9050919050565b6000611711826116b8565b9050919050565b6000611723826116d8565b91507fffffffffffffffffffffffffffffffffffffffffffffffffffffffffffffffff82141561175657611755611761565b5b600182019050919050565b7f4e487b7100000000000000000000000000000000000000000000000000000000600052601160045260246000fd5b7f4e487b7100000000000000000000000000000000000000000000000000000000600052603260045260246000fd5b7f4e487b7100000000000000000000000000000000000000000000000000000000600052604160045260246000fd5b600080fd5b7f5468657265206973206e6f206f6666657220666f72207468697320746f6b656e60008201527f2049440000000000000000000000000000000000000000000000000000000000602082015250565b7f4f776e61626c653a206e6577206f776e657220697320746865207a65726f206160008201527f6464726573730000000000000000000000000000000000000000000000000000602082015250565b7f546f6b656e204944207075726368617365640000000000000000000000000000600082015250565b7f4f666665722072656d6f76656400000000000000000000000000000000000000600082015250565b7f596f752063616e6e6f742068617665206d6f7265207468656e206f6e65206f6660008201527f66657220666f72206120746f6b656e20617420612074696d6500000000000000602082015250565b7f4f6e6c79207468652073656c6c6572206f662074686520546f6b656e2049642060008201527f63616e2072656d6f766520616e206f6666657200000000000000000000000000602082015250565b7f596f7520617265206e6f7420746865206f776e6572206f662074686520746f6b60008201527f656e496400000000000000000000000000000000000000000000000000000000602082015250565b7f4f776e61626c653a2063616c6c6572206973206e6f7420746865206f776e6572600082015250565b7f4d61726b6574706c61636520636f6e7472616374206973206e6f7420616e206160008201527f7070726f766564206f70657261746f7200000000000000000000000000000000602082015250565b7f4f66666572204372656174656400000000000000000000000000000000000000600082015250565b7f546865207072696365206e6565647320746f20626520657175616c20746f207460008201527f6865206f66666572206f6620546f6b656e204944000000000000000000000000602082015250565b611ac98161169a565b8114611ad457600080fd5b50565b611ae0816116ac565b8114611aeb57600080fd5b50565b611af7816116d8565b8114611b0257600080fd5b5056fea26469706673582212206ce82714566b223bb151e033cb76eea0a58f7ccac2ae8d8833fb267be46af66b64736f6c63430008060033",
  "immutableReferences": {},
  "source": "// SPDX-License-Identifier: UNLICENSED\r\n\r\npragma solidity ^0.8.6;\r\n\r\nimport \"./Dragoncontract.sol\";\r\nimport \"@openzeppelin/contracts/access/Ownable.sol\";\r\nimport \"./IDragonMarketplace.sol\";\r\nimport \"./PaymentGateway.sol\";\r\n\r\ncontract DragonMarketplace is Ownable, IDragonMarketplace {\r\n  Dragoncontract private _dragonContract;\r\n\r\n  struct Offer {\r\n    address payable seller;\r\n    uint256 price;\r\n    uint256 index;\r\n    uint256 tokenId;\r\n    bool active;\r\n  }\r\n\r\n  constructor(address dragonContract) {\r\n    setDragonContract(dragonContract);\r\n  }\r\n\r\n  Offer[] offers;\r\n\r\n  mapping(uint256 => Offer) tokenIdToOffer;\r\n\r\n  function setDragonContract(address _dragonContractAddress) override public onlyOwner {\r\n    _dragonContract = Dragoncontract(_dragonContractAddress);\r\n  }\r\n\r\n  function getOffer(uint256 _tokenId) override external view returns (address seller, uint256 price, uint256 index, uint256 tokenId, bool active) {\r\n    return (tokenIdToOffer[_tokenId].seller, tokenIdToOffer[_tokenId].price, tokenIdToOffer[_tokenId].index, tokenIdToOffer[_tokenId].tokenId, tokenIdToOffer[_tokenId].active);\r\n  }\r\n\r\n  function getActiveStatus(uint256 _tokenId) external view returns (bool active) {\r\n    return tokenIdToOffer[_tokenId].active;\r\n  }\r\n\r\n  function getAllTokenOnSale() override external view returns(uint256[] memory listOfOffers) {\r\n    uint256[] memory tokensForSale = new uint256[](offers.length);\r\n    uint256 counter = 0;\r\n    for(uint256 i = 0; i < offers.length; i++) {\r\n      if(offers[i].active == true) {\r\n        tokensForSale[counter] = offers[i].tokenId;\r\n        counter++;\r\n      }\r\n    }\r\n    return tokensForSale;\r\n  }\r\n\r\n  function setOffer(uint256 _price, uint256 _tokenId) override external {\r\n    require(_dragonContract._owns(msg.sender, _tokenId), \"You are not the owner of the tokenId\");\r\n    require(!tokenIdToOffer[_tokenId].active, \"You cannot have more then one offer for a token at a time\");\r\n    require(_dragonContract.isApprovedForAll(msg.sender, address(this)), \"Marketplace contract is not an approved operator\");\r\n\r\n    Offer memory _newOffer = Offer(payable(msg.sender), _price, offers.length, _tokenId, true);\r\n    tokenIdToOffer[_tokenId] = _newOffer;\r\n    offers.push(_newOffer);\r\n\r\n    emit MarketTransaction(\"Offer Created\", msg.sender, _tokenId);\r\n  }\r\n\r\n    function removeOffer(uint256 _tokenId) override external {\r\n      Offer memory offer = tokenIdToOffer[_tokenId];\r\n\r\n      require(offer.seller == msg.sender, \"Only the seller of the Token Id can remove an offer\");\r\n\r\n      _offerRemove(_tokenId);\r\n\r\n      emit MarketTransaction(\"Offer removed\", msg.sender, _tokenId);\r\n    }\r\n\r\n    function buyDragon(uint256 _tokenId) override external payable {\r\n      Offer memory offer = tokenIdToOffer[_tokenId];\r\n\r\n      require(offer.price == msg.value, \"The price needs to be equal to the offer of Token ID\");\r\n      require(offer.active, \"There is no offer for this token ID\");\r\n\r\n      _offerRemove(_tokenId);\r\n\r\n      if(offer.price > 0) {\r\n        offer.seller.transfer(offer.price);\r\n      }\r\n\r\n      _dragonContract.safeTransferFrom(offer.seller, msg.sender, _tokenId);\r\n\r\n      emit MarketTransaction(\"Token ID purchased\", msg.sender, _tokenId);\r\n    }\r\n\r\n    function _offerRemove(uint256 _tokenId) private {\r\n      offers[tokenIdToOffer[_tokenId].index].active = false;\r\n      delete tokenIdToOffer[_tokenId];\r\n    }\r\n}\r\n",
  "sourcePath": "C:\\Markus-Dragons\\contracts\\DragonMarketplace.sol",
  "compiler": {
    "name": "solc",
    "version": "0.8.6+commit.11564f7e.Emscripten.clang"
  },
  "schemaVersion": "3.2.0",
  "updatedAt": "2021-07-03T20:34:48.805Z",
  "networkType": "ethereum",
  "devdoc": {
    "kind": "dev",
    "methods": {
      "owner()": {
        "details": "Returns the address of the current owner."
      },
      "renounceOwnership()": {
        "details": "Leaves the contract without owner. It will not be possible to call `onlyOwner` functions anymore. Can only be called by the current owner. NOTE: Renouncing ownership will leave the contract without an owner, thereby removing any functionality that is only available to the owner."
      },
      "transferOwnership(address)": {
        "details": "Transfers ownership of the contract to a new account (`newOwner`). Can only be called by the current owner."
      }
    },
    "version": 1
  },
  "userdoc": {
    "kind": "user",
    "methods": {
      "buyDragon(uint256)": {
        "notice": "Executes the purchase of _tokenId. Sends the funds to the seller and transfers the token using transferFrom in Dragoncontract. Emits the MarketTransaction event with txType \"Buy\". Requirement: The msg.value needs to equal the price of _tokenId Requirement: There must be an active offer for _tokenId"
      },
      "getAllTokenOnSale()": {
        "notice": "Get all tokenId's that are currently for sale. Returns an empty arror if none exist."
      },
      "getOffer(uint256)": {
        "notice": "Get the details about a offer for _tokenId. Throws an error if there is no active offer for _tokenId."
      },
      "removeOffer(uint256)": {
        "notice": "Removes an existing offer. Emits the MarketTransaction event with txType \"Remove offer\" Requirement: Only the seller of _tokenId can remove an offer."
      },
      "setDragonContract(address)": {
        "notice": "Set the current DragonContract address and initialize the instance of Dragoncontract. Requirement: Only the contract owner can call."
      },
      "setOffer(uint256,uint256)": {
        "notice": "Creates a new offer for _tokenId for the price _price. Emits the MarketTransaction event with txType \"Create offer\" Requirement: Only the owner of _tokenId can create an offer. Requirement: There can only be one active offer for a token at a time. Requirement: Marketplace contract (this) needs to be an approved operator when the offer is created."
      }
    },
    "version": 1
  }
}