{
  "contractName": "DragonMarketplace",
  "abi": [
    {
      "inputs": [
        {
          "internalType": "address",
          "name": "dragonContract",
          "type": "address"
        }
      ],
      "stateMutability": "nonpayable",
      "type": "constructor"
    },
    {
      "anonymous": false,
      "inputs": [
        {
          "indexed": false,
          "internalType": "string",
          "name": "TxType",
          "type": "string"
        },
        {
          "indexed": false,
          "internalType": "address",
          "name": "owner",
          "type": "address"
        },
        {
          "indexed": false,
          "internalType": "uint256",
          "name": "tokenId",
          "type": "uint256"
        }
      ],
      "name": "MarketTransaction",
      "type": "event"
    },
    {
      "anonymous": false,
      "inputs": [
        {
          "indexed": true,
          "internalType": "address",
          "name": "previousOwner",
          "type": "address"
        },
        {
          "indexed": true,
          "internalType": "address",
          "name": "newOwner",
          "type": "address"
        }
      ],
      "name": "OwnershipTransferred",
      "type": "event"
    },
    {
      "inputs": [],
      "name": "owner",
      "outputs": [
        {
          "internalType": "address",
          "name": "",
          "type": "address"
        }
      ],
      "stateMutability": "view",
      "type": "function",
      "constant": true
    },
    {
      "inputs": [],
      "name": "renounceOwnership",
      "outputs": [],
      "stateMutability": "nonpayable",
      "type": "function"
    },
    {
      "inputs": [
        {
          "internalType": "address",
          "name": "newOwner",
          "type": "address"
        }
      ],
      "name": "transferOwnership",
      "outputs": [],
      "stateMutability": "nonpayable",
      "type": "function"
    },
    {
      "inputs": [
        {
          "internalType": "address",
          "name": "_dragonContractAddress",
          "type": "address"
        }
      ],
      "name": "setDragonContract",
      "outputs": [],
      "stateMutability": "nonpayable",
      "type": "function"
    },
    {
      "inputs": [
        {
          "internalType": "uint256",
          "name": "_tokenId",
          "type": "uint256"
        }
      ],
      "name": "getOffer",
      "outputs": [
        {
          "internalType": "address",
          "name": "seller",
          "type": "address"
        },
        {
          "internalType": "uint256",
          "name": "price",
          "type": "uint256"
        },
        {
          "internalType": "uint256",
          "name": "index",
          "type": "uint256"
        },
        {
          "internalType": "uint256",
          "name": "tokenId",
          "type": "uint256"
        },
        {
          "internalType": "bool",
          "name": "active",
          "type": "bool"
        }
      ],
      "stateMutability": "view",
      "type": "function",
      "constant": true
    },
    {
      "inputs": [
        {
          "internalType": "uint256",
          "name": "_tokenId",
          "type": "uint256"
        }
      ],
      "name": "getActiveStatus",
      "outputs": [
        {
          "internalType": "bool",
          "name": "active",
          "type": "bool"
        }
      ],
      "stateMutability": "view",
      "type": "function",
      "constant": true
    },
    {
      "inputs": [],
      "name": "getAllTokenOnSale",
      "outputs": [
        {
          "internalType": "uint256[]",
          "name": "listOfOffers",
          "type": "uint256[]"
        }
      ],
      "stateMutability": "view",
      "type": "function",
      "constant": true
    },
    {
      "inputs": [
        {
          "internalType": "uint256",
          "name": "_price",
          "type": "uint256"
        },
        {
          "internalType": "uint256",
          "name": "_tokenId",
          "type": "uint256"
        }
      ],
      "name": "setOffer",
      "outputs": [],
      "stateMutability": "nonpayable",
      "type": "function"
    },
    {
      "inputs": [
        {
          "internalType": "uint256",
          "name": "_tokenId",
          "type": "uint256"
        }
      ],
      "name": "removeOffer",
      "outputs": [],
      "stateMutability": "nonpayable",
      "type": "function"
    },
    {
      "inputs": [
        {
          "internalType": "uint256",
          "name": "_tokenId",
          "type": "uint256"
        },
        {
          "internalType": "address payable",
          "name": "_seller",
          "type": "address"
        }
      ],
      "name": "buyDragon",
      "outputs": [],
      "stateMutability": "payable",
      "type": "function",
      "payable": true
    },
    {
      "inputs": [
        {
          "internalType": "address payable",
          "name": "_payee",
          "type": "address"
        },
        {
          "internalType": "uint256",
          "name": "_amount",
          "type": "uint256"
        }
      ],
      "name": "sendPayment",
      "outputs": [],
      "stateMutability": "payable",
      "type": "function",
      "payable": true
    },
    {
      "inputs": [
        {
          "internalType": "address payable",
          "name": "_payee",
          "type": "address"
        }
      ],
      "name": "withdraw",
      "outputs": [],
      "stateMutability": "nonpayable",
      "type": "function"
    },
    {
      "inputs": [
        {
          "internalType": "address",
          "name": "_payee",
          "type": "address"
        }
      ],
      "name": "balance",
      "outputs": [
        {
          "internalType": "uint256",
          "name": "balanceOf",
          "type": "uint256"
        }
      ],
      "stateMutability": "view",
      "type": "function",
      "constant": true
    }
  ],
  "bytecode": "0x60806040523480156200001157600080fd5b5060405162002fa938038062002fa98339818101604052810190620000379190620002c8565b620000576200004b620000db60201b60201c565b620000e360201b60201c565b6040516200006590620002a3565b604051809103906000f08015801562000082573d6000803e3d6000fd5b50600260006101000a81548173ffffffffffffffffffffffffffffffffffffffff021916908373ffffffffffffffffffffffffffffffffffffffff160217905550620000d481620001a760201b60201c565b50620003d0565b600033905090565b60008060009054906101000a900473ffffffffffffffffffffffffffffffffffffffff169050816000806101000a81548173ffffffffffffffffffffffffffffffffffffffff021916908373ffffffffffffffffffffffffffffffffffffffff1602179055508173ffffffffffffffffffffffffffffffffffffffff168173ffffffffffffffffffffffffffffffffffffffff167f8be0079c531659141344cd1fd0a4f28419497f9722a3daafe3b4186f6b6457e060405160405180910390a35050565b620001b7620000db60201b60201c565b73ffffffffffffffffffffffffffffffffffffffff16620001dd6200027a60201b60201c565b73ffffffffffffffffffffffffffffffffffffffff161462000236576040517f08c379a00000000000000000000000000000000000000000000000000000000081526004016200022d9062000321565b60405180910390fd5b80600160006101000a81548173ffffffffffffffffffffffffffffffffffffffff021916908373ffffffffffffffffffffffffffffffffffffffff16021790555050565b60008060009054906101000a900473ffffffffffffffffffffffffffffffffffffffff16905090565b610d16806200229383390190565b600081519050620002c281620003b6565b92915050565b600060208284031215620002e157620002e062000388565b5b6000620002f184828501620002b1565b91505092915050565b60006200030960208362000343565b915062000316826200038d565b602082019050919050565b600060208201905081810360008301526200033c81620002fa565b9050919050565b600082825260208201905092915050565b6000620003618262000368565b9050919050565b600073ffffffffffffffffffffffffffffffffffffffff82169050919050565b600080fd5b7f4f776e61626c653a2063616c6c6572206973206e6f7420746865206f776e6572600082015250565b620003c18162000354565b8114620003cd57600080fd5b50565b611eb380620003e06000396000f3fe6080604052600436106100c25760003560e01c80638da5cb5b1161007f57806395a0f9c71161005957806395a0f9c714610228578063e3d670d714610251578063ecc6b2fd1461028e578063f2fde38b146102cb576100c2565b80638da5cb5b146101b8578063935f4c18146101e3578063941b055b146101ff576100c2565b8063039f14b0146100c75780633ef10162146100f05780634579268a1461010c57806349b3709f1461014d57806351cff8d914610178578063715018a6146101a1575b600080fd5b3480156100d357600080fd5b506100ee60048036038101906100e991906112c0565b6102f4565b005b61010a600480360381019061010591906113e1565b6103b4565b005b34801561011857600080fd5b50610133600480360381019061012e9190611387565b6105d5565b60405161014495949392919061178c565b60405180910390f35b34801561015957600080fd5b50610162610690565b60405161016f91906117df565b60405180910390f35b34801561018457600080fd5b5061019f600480360381019061019a91906112ed565b6107a4565b005b3480156101ad57600080fd5b506101b6610834565b005b3480156101c457600080fd5b506101cd6108bc565b6040516101da91906116b2565b60405180910390f35b6101fd60048036038101906101f8919061131a565b6108e5565b005b34801561020b57600080fd5b5061022660048036038101906102219190611421565b610977565b005b34801561023457600080fd5b5061024f600480360381019061024a9190611387565b610d89565b005b34801561025d57600080fd5b50610278600480360381019061027391906112c0565b610ef2565b60405161028591906119d0565b60405180910390f35b34801561029a57600080fd5b506102b560048036038101906102b09190611387565b610fa6565b6040516102c29190611801565b60405180910390f35b3480156102d757600080fd5b506102f260048036038101906102ed91906112c0565b610fd3565b005b6102fc6110cb565b73ffffffffffffffffffffffffffffffffffffffff1661031a6108bc565b73ffffffffffffffffffffffffffffffffffffffff1614610370576040517f08c379a000000000000000000000000000000000000000000000000000000000815260040161036790611954565b60405180910390fd5b80600160006101000a81548173ffffffffffffffffffffffffffffffffffffffff021916908373ffffffffffffffffffffffffffffffffffffffff16021790555050565b6000600460008481526020019081526020016000206040518060a00160405290816000820160009054906101000a900473ffffffffffffffffffffffffffffffffffffffff1673ffffffffffffffffffffffffffffffffffffffff1673ffffffffffffffffffffffffffffffffffffffff1681526020016001820154815260200160028201548152602001600382015481526020016004820160009054906101000a900460ff1615151515815250509050348160200151146104ab576040517f08c379a00000000000000000000000000000000000000000000000000000000081526004016104a29061181c565b60405180910390fd5b80608001516104ef576040517f08c379a00000000000000000000000000000000000000000000000000000000081526004016104e6906118b8565b60405180910390fd5b6104f8836110d3565b61050282346108e5565b600160009054906101000a900473ffffffffffffffffffffffffffffffffffffffff1673ffffffffffffffffffffffffffffffffffffffff166323b872dd826000015133866040518463ffffffff1660e01b815260040161056593929190611703565b600060405180830381600087803b15801561057f57600080fd5b505af1158015610593573d6000803e3d6000fd5b505050507fd99e4fad9ad6313b1feb588fa8e605e3a9873172f2024330c35dd2b4041a438633846040516105c89291906118f8565b60405180910390a1505050565b60008060008060006004600087815260200190815260200160002060000160009054906101000a900473ffffffffffffffffffffffffffffffffffffffff1660046000888152602001908152602001600020600101546004600089815260200190815260200160002060020154600460008a815260200190815260200160002060030154600460008b815260200190815260200160002060040160009054906101000a900460ff169450945094509450945091939590929450565b6060600060038054905067ffffffffffffffff8111156106b3576106b2611b6c565b5b6040519080825280602002602001820160405280156106e15781602001602082028036833780820191505090505b5090506000805b60038054905081101561079b57600115156003828154811061070d5761070c611b3d565b5b906000526020600020906005020160040160009054906101000a900460ff1615151415610788576003818154811061074857610747611b3d565b5b90600052602060002090600502016003015483838151811061076d5761076c611b3d565b5b602002602001018181525050818061078490611ac5565b9250505b808061079390611ac5565b9150506106e8565b50819250505090565b600260009054906101000a900473ffffffffffffffffffffffffffffffffffffffff1673ffffffffffffffffffffffffffffffffffffffff166351cff8d9826040518263ffffffff1660e01b81526004016107ff91906116e8565b600060405180830381600087803b15801561081957600080fd5b505af115801561082d573d6000803e3d6000fd5b5050505050565b61083c6110cb565b73ffffffffffffffffffffffffffffffffffffffff1661085a6108bc565b73ffffffffffffffffffffffffffffffffffffffff16146108b0576040517f08c379a00000000000000000000000000000000000000000000000000000000081526004016108a790611954565b60405180910390fd5b6108ba6000611193565b565b60008060009054906101000a900473ffffffffffffffffffffffffffffffffffffffff16905090565b600260009054906101000a900473ffffffffffffffffffffffffffffffffffffffff1673ffffffffffffffffffffffffffffffffffffffff1663f340fa0182846040518363ffffffff1660e01b815260040161094191906116cd565b6000604051808303818588803b15801561095a57600080fd5b505af115801561096e573d6000803e3d6000fd5b50505050505050565b600160009054906101000a900473ffffffffffffffffffffffffffffffffffffffff1673ffffffffffffffffffffffffffffffffffffffff1663e21fd9fc33836040518363ffffffff1660e01b81526004016109d4929190611763565b60206040518083038186803b1580156109ec57600080fd5b505afa158015610a00573d6000803e3d6000fd5b505050506040513d601f19601f82011682018060405250810190610a24919061135a565b610a63576040517f08c379a0000000000000000000000000000000000000000000000000000000008152600401610a5a90611934565b60405180910390fd5b6004600082815260200190815260200160002060040160009054906101000a900460ff1615610ac7576040517f08c379a0000000000000000000000000000000000000000000000000000000008152600401610abe906118d8565b60405180910390fd5b600160009054906101000a900473ffffffffffffffffffffffffffffffffffffffff1673ffffffffffffffffffffffffffffffffffffffff1663e985e9c533306040518363ffffffff1660e01b8152600401610b2492919061173a565b60206040518083038186803b158015610b3c57600080fd5b505afa158015610b50573d6000803e3d6000fd5b505050506040513d601f19601f82011682018060405250810190610b74919061135a565b610bb3576040517f08c379a0000000000000000000000000000000000000000000000000000000008152600401610baa90611974565b60405180910390fd5b60006040518060a001604052803373ffffffffffffffffffffffffffffffffffffffff1681526020018481526020016003805490508152602001838152602001600115158152509050806004600084815260200190815260200160002060008201518160000160006101000a81548173ffffffffffffffffffffffffffffffffffffffff021916908373ffffffffffffffffffffffffffffffffffffffff16021790555060208201518160010155604082015181600201556060820151816003015560808201518160040160006101000a81548160ff021916908315150217905550905050600381908060018154018082558091505060019003906000526020600020906005020160009091909190915060008201518160000160006101000a81548173ffffffffffffffffffffffffffffffffffffffff021916908373ffffffffffffffffffffffffffffffffffffffff16021790555060208201518160010155604082015181600201556060820151816003015560808201518160040160006101000a81548160ff02191690831515021790555050507fd99e4fad9ad6313b1feb588fa8e605e3a9873172f2024330c35dd2b4041a43863383604051610d7c929190611994565b60405180910390a1505050565b6000600460008381526020019081526020016000206040518060a00160405290816000820160009054906101000a900473ffffffffffffffffffffffffffffffffffffffff1673ffffffffffffffffffffffffffffffffffffffff1673ffffffffffffffffffffffffffffffffffffffff1681526020016001820154815260200160028201548152602001600382015481526020016004820160009054906101000a900460ff16151515158152505090503373ffffffffffffffffffffffffffffffffffffffff16816000015173ffffffffffffffffffffffffffffffffffffffff1614610eac576040517f08c379a0000000000000000000000000000000000000000000000000000000008152600401610ea39061185c565b60405180910390fd5b610eb5826110d3565b7fd99e4fad9ad6313b1feb588fa8e605e3a9873172f2024330c35dd2b4041a43863383604051610ee692919061187c565b60405180910390a15050565b6000600260009054906101000a900473ffffffffffffffffffffffffffffffffffffffff1673ffffffffffffffffffffffffffffffffffffffff1663e3a9db1a836040518263ffffffff1660e01b8152600401610f4f91906116b2565b60206040518083038186803b158015610f6757600080fd5b505afa158015610f7b573d6000803e3d6000fd5b505050506040513d601f19601f82011682018060405250810190610f9f91906113b4565b9050919050565b60006004600083815260200190815260200160002060040160009054906101000a900460ff169050919050565b610fdb6110cb565b73ffffffffffffffffffffffffffffffffffffffff16610ff96108bc565b73ffffffffffffffffffffffffffffffffffffffff161461104f576040517f08c379a000000000000000000000000000000000000000000000000000000000815260040161104690611954565b60405180910390fd5b600073ffffffffffffffffffffffffffffffffffffffff168173ffffffffffffffffffffffffffffffffffffffff1614156110bf576040517f08c379a00000000000000000000000000000000000000000000000000000000081526004016110b69061183c565b60405180910390fd5b6110c881611193565b50565b600033905090565b600060036004600084815260200190815260200160002060020154815481106110ff576110fe611b3d565b5b906000526020600020906005020160040160006101000a81548160ff02191690831515021790555060046000828152602001908152602001600020600080820160006101000a81549073ffffffffffffffffffffffffffffffffffffffff02191690556001820160009055600282016000905560038201600090556004820160006101000a81549060ff0219169055505050565b60008060009054906101000a900473ffffffffffffffffffffffffffffffffffffffff169050816000806101000a81548173ffffffffffffffffffffffffffffffffffffffff021916908373ffffffffffffffffffffffffffffffffffffffff1602179055508173ffffffffffffffffffffffffffffffffffffffff168173ffffffffffffffffffffffffffffffffffffffff167f8be0079c531659141344cd1fd0a4f28419497f9722a3daafe3b4186f6b6457e060405160405180910390a35050565b60008135905061126681611e21565b92915050565b60008135905061127b81611e38565b92915050565b60008151905061129081611e4f565b92915050565b6000813590506112a581611e66565b92915050565b6000815190506112ba81611e66565b92915050565b6000602082840312156112d6576112d5611b9b565b5b60006112e484828501611257565b91505092915050565b60006020828403121561130357611302611b9b565b5b60006113118482850161126c565b91505092915050565b6000806040838503121561133157611330611b9b565b5b600061133f8582860161126c565b925050602061135085828601611296565b9150509250929050565b6000602082840312156113705761136f611b9b565b5b600061137e84828501611281565b91505092915050565b60006020828403121561139d5761139c611b9b565b5b60006113ab84828501611296565b91505092915050565b6000602082840312156113ca576113c9611b9b565b5b60006113d8848285016112ab565b91505092915050565b600080604083850312156113f8576113f7611b9b565b5b600061140685828601611296565b92505060206114178582860161126c565b9150509250929050565b6000806040838503121561143857611437611b9b565b5b600061144685828601611296565b925050602061145785828601611296565b9150509250929050565b600061146d8383611694565b60208301905092915050565b61148281611a8f565b82525050565b61149181611a47565b82525050565b6114a081611a35565b82525050565b60006114b1826119fb565b6114bb8185611a13565b93506114c6836119eb565b8060005b838110156114f75781516114de8882611461565b97506114e983611a06565b9250506001810190506114ca565b5085935050505092915050565b61150d81611a59565b82525050565b6000611520602383611a24565b915061152b82611ba0565b604082019050919050565b6000611543602683611a24565b915061154e82611bef565b604082019050919050565b6000611566602983611a24565b915061157182611c3e565b604082019050919050565b6000611589600d83611a24565b915061159482611c8d565b602082019050919050565b60006115ac602083611a24565b91506115b782611cb6565b602082019050919050565b60006115cf603983611a24565b91506115da82611cdf565b604082019050919050565b60006115f2600f83611a24565b91506115fd82611d2e565b602082019050919050565b6000611615601b83611a24565b915061162082611d57565b602082019050919050565b6000611638602083611a24565b915061164382611d80565b602082019050919050565b600061165b603083611a24565b915061166682611da9565b604082019050919050565b600061167e600d83611a24565b915061168982611df8565b602082019050919050565b61169d81611a85565b82525050565b6116ac81611a85565b82525050565b60006020820190506116c76000830184611497565b92915050565b60006020820190506116e26000830184611479565b92915050565b60006020820190506116fd6000830184611488565b92915050565b60006060820190506117186000830186611479565b6117256020830185611497565b61173260408301846116a3565b949350505050565b600060408201905061174f6000830185611497565b61175c6020830184611497565b9392505050565b60006040820190506117786000830185611497565b61178560208301846116a3565b9392505050565b600060a0820190506117a16000830188611497565b6117ae60208301876116a3565b6117bb60408301866116a3565b6117c860608301856116a3565b6117d56080830184611504565b9695505050505050565b600060208201905081810360008301526117f981846114a6565b905092915050565b60006020820190506118166000830184611504565b92915050565b6000602082019050818103600083015261183581611513565b9050919050565b6000602082019050818103600083015261185581611536565b9050919050565b6000602082019050818103600083015261187581611559565b9050919050565b600060608201905081810360008301526118958161157c565b90506118a46020830185611497565b6118b160408301846116a3565b9392505050565b600060208201905081810360008301526118d18161159f565b9050919050565b600060208201905081810360008301526118f1816115c2565b9050919050565b60006060820190508181036000830152611911816115e5565b90506119206020830185611497565b61192d60408301846116a3565b9392505050565b6000602082019050818103600083015261194d81611608565b9050919050565b6000602082019050818103600083015261196d8161162b565b9050919050565b6000602082019050818103600083015261198d8161164e565b9050919050565b600060608201905081810360008301526119ad81611671565b90506119bc6020830185611497565b6119c960408301846116a3565b9392505050565b60006020820190506119e560008301846116a3565b92915050565b6000819050602082019050919050565b600081519050919050565b6000602082019050919050565b600082825260208201905092915050565b600082825260208201905092915050565b6000611a4082611a65565b9050919050565b6000611a5282611a65565b9050919050565b60008115159050919050565b600073ffffffffffffffffffffffffffffffffffffffff82169050919050565b6000819050919050565b6000611a9a82611aa1565b9050919050565b6000611aac82611ab3565b9050919050565b6000611abe82611a65565b9050919050565b6000611ad082611a85565b91507fffffffffffffffffffffffffffffffffffffffffffffffffffffffffffffffff821415611b0357611b02611b0e565b5b600182019050919050565b7f4e487b7100000000000000000000000000000000000000000000000000000000600052601160045260246000fd5b7f4e487b7100000000000000000000000000000000000000000000000000000000600052603260045260246000fd5b7f4e487b7100000000000000000000000000000000000000000000000000000000600052604160045260246000fd5b600080fd5b7f546865207072696365206f6620746865206f6666657220697320696e636f727260008201527f6563740000000000000000000000000000000000000000000000000000000000602082015250565b7f4f776e61626c653a206e6577206f776e657220697320746865207a65726f206160008201527f6464726573730000000000000000000000000000000000000000000000000000602082015250565b7f4f6e6c792074686520746f6b656e2073656c6c65722063616e2072656d6f766560008201527f20616e206f666665720000000000000000000000000000000000000000000000602082015250565b7f4f666665722072656d6f76656400000000000000000000000000000000000000600082015250565b7f5468657265206973206e6f206f6666657220666f72207468697320746f6b656e600082015250565b7f596f752063616e6e6f742068617665206d6f7265207468656e206f6e65206f6660008201527f66657220666f72206120746f6b656e20617420612074696d6500000000000000602082015250565b7f546f6b656e207075726368617365640000000000000000000000000000000000600082015250565b7f596f7520617265206e6f742074686520746f6b656e206f776e65720000000000600082015250565b7f4f776e61626c653a2063616c6c6572206973206e6f7420746865206f776e6572600082015250565b7f4d61726b6574706c61636520636f6e7472616374206973206e6f7420616e206160008201527f7070726f766564206f70657261746f7200000000000000000000000000000000602082015250565b7f4f66666572204372656174656400000000000000000000000000000000000000600082015250565b611e2a81611a35565b8114611e3557600080fd5b50565b611e4181611a47565b8114611e4c57600080fd5b50565b611e5881611a59565b8114611e6357600080fd5b50565b611e6f81611a85565b8114611e7a57600080fd5b5056fea2646970667358221220581e94f6a03994037cb74a01a79aa1722a617115f98be540b582fda24a9621db64736f6c63430008060033608060405234801561001057600080fd5b5061002d61002261003260201b60201c565b61003a60201b60201c565b6100fe565b600033905090565b60008060009054906101000a900473ffffffffffffffffffffffffffffffffffffffff169050816000806101000a81548173ffffffffffffffffffffffffffffffffffffffff021916908373ffffffffffffffffffffffffffffffffffffffff1602179055508173ffffffffffffffffffffffffffffffffffffffff168173ffffffffffffffffffffffffffffffffffffffff167f8be0079c531659141344cd1fd0a4f28419497f9722a3daafe3b4186f6b6457e060405160405180910390a35050565b610c098061010d6000396000f3fe6080604052600436106100555760003560e01c806351cff8d91461005a578063715018a6146100835780638da5cb5b1461009a578063e3a9db1a146100c5578063f2fde38b14610102578063f340fa011461012b575b600080fd5b34801561006657600080fd5b50610081600480360381019061007c91906107f9565b610147565b005b34801561008f57600080fd5b506100986102c7565b005b3480156100a657600080fd5b506100af61034f565b6040516100bc9190610908565b60405180910390f35b3480156100d157600080fd5b506100ec60048036038101906100e791906107cc565b610378565b6040516100f991906109a3565b60405180910390f35b34801561010e57600080fd5b50610129600480360381019061012491906107cc565b6103c1565b005b610145600480360381019061014091906107cc565b6104b9565b005b61014f6105e2565b73ffffffffffffffffffffffffffffffffffffffff1661016d61034f565b73ffffffffffffffffffffffffffffffffffffffff16146101c3576040517f08c379a00000000000000000000000000000000000000000000000000000000081526004016101ba90610983565b60405180910390fd5b6000600160008373ffffffffffffffffffffffffffffffffffffffff1673ffffffffffffffffffffffffffffffffffffffff1681526020019081526020016000205490506000600160008473ffffffffffffffffffffffffffffffffffffffff1673ffffffffffffffffffffffffffffffffffffffff16815260200190815260200160002081905550610275818373ffffffffffffffffffffffffffffffffffffffff166105ea90919063ffffffff16565b8173ffffffffffffffffffffffffffffffffffffffff167f7084f5476618d8e60b11ef0d7d3f06914655adb8793e28ff7f018d4c76d505d5826040516102bb91906109a3565b60405180910390a25050565b6102cf6105e2565b73ffffffffffffffffffffffffffffffffffffffff166102ed61034f565b73ffffffffffffffffffffffffffffffffffffffff1614610343576040517f08c379a000000000000000000000000000000000000000000000000000000000815260040161033a90610983565b60405180910390fd5b61034d60006106de565b565b60008060009054906101000a900473ffffffffffffffffffffffffffffffffffffffff16905090565b6000600160008373ffffffffffffffffffffffffffffffffffffffff1673ffffffffffffffffffffffffffffffffffffffff168152602001908152602001600020549050919050565b6103c96105e2565b73ffffffffffffffffffffffffffffffffffffffff166103e761034f565b73ffffffffffffffffffffffffffffffffffffffff161461043d576040517f08c379a000000000000000000000000000000000000000000000000000000000815260040161043490610983565b60405180910390fd5b600073ffffffffffffffffffffffffffffffffffffffff168173ffffffffffffffffffffffffffffffffffffffff1614156104ad576040517f08c379a00000000000000000000000000000000000000000000000000000000081526004016104a490610923565b60405180910390fd5b6104b6816106de565b50565b6104c16105e2565b73ffffffffffffffffffffffffffffffffffffffff166104df61034f565b73ffffffffffffffffffffffffffffffffffffffff1614610535576040517f08c379a000000000000000000000000000000000000000000000000000000000815260040161052c90610983565b60405180910390fd5b600034905080600160008473ffffffffffffffffffffffffffffffffffffffff1673ffffffffffffffffffffffffffffffffffffffff168152602001908152602001600020600082825461058991906109da565b925050819055508173ffffffffffffffffffffffffffffffffffffffff167f2da466a7b24304f47e87fa2e1e5a81b9831ce54fec19055ce277ca2f39ba42c4826040516105d691906109a3565b60405180910390a25050565b600033905090565b8047101561062d576040517f08c379a000000000000000000000000000000000000000000000000000000000815260040161062490610963565b60405180910390fd5b60008273ffffffffffffffffffffffffffffffffffffffff1682604051610653906108f3565b60006040518083038185875af1925050503d8060008114610690576040519150601f19603f3d011682016040523d82523d6000602084013e610695565b606091505b50509050806106d9576040517f08c379a00000000000000000000000000000000000000000000000000000000081526004016106d090610943565b60405180910390fd5b505050565b60008060009054906101000a900473ffffffffffffffffffffffffffffffffffffffff169050816000806101000a81548173ffffffffffffffffffffffffffffffffffffffff021916908373ffffffffffffffffffffffffffffffffffffffff1602179055508173ffffffffffffffffffffffffffffffffffffffff168173ffffffffffffffffffffffffffffffffffffffff167f8be0079c531659141344cd1fd0a4f28419497f9722a3daafe3b4186f6b6457e060405160405180910390a35050565b6000813590506107b181610ba5565b92915050565b6000813590506107c681610bbc565b92915050565b6000602082840312156107e2576107e1610aad565b5b60006107f0848285016107a2565b91505092915050565b60006020828403121561080f5761080e610aad565b5b600061081d848285016107b7565b91505092915050565b61082f81610a30565b82525050565b60006108426026836109c9565b915061084d82610ab2565b604082019050919050565b6000610865603a836109c9565b915061087082610b01565b604082019050919050565b6000610888601d836109c9565b915061089382610b50565b602082019050919050565b60006108ab6020836109c9565b91506108b682610b79565b602082019050919050565b60006108ce6000836109be565b91506108d982610ba2565b600082019050919050565b6108ed81610a74565b82525050565b60006108fe826108c1565b9150819050919050565b600060208201905061091d6000830184610826565b92915050565b6000602082019050818103600083015261093c81610835565b9050919050565b6000602082019050818103600083015261095c81610858565b9050919050565b6000602082019050818103600083015261097c8161087b565b9050919050565b6000602082019050818103600083015261099c8161089e565b9050919050565b60006020820190506109b860008301846108e4565b92915050565b600081905092915050565b600082825260208201905092915050565b60006109e582610a74565b91506109f083610a74565b9250827fffffffffffffffffffffffffffffffffffffffffffffffffffffffffffffffff03821115610a2557610a24610a7e565b5b828201905092915050565b6000610a3b82610a54565b9050919050565b6000610a4d82610a54565b9050919050565b600073ffffffffffffffffffffffffffffffffffffffff82169050919050565b6000819050919050565b7f4e487b7100000000000000000000000000000000000000000000000000000000600052601160045260246000fd5b600080fd5b7f4f776e61626c653a206e6577206f776e657220697320746865207a65726f206160008201527f6464726573730000000000000000000000000000000000000000000000000000602082015250565b7f416464726573733a20756e61626c6520746f2073656e642076616c75652c207260008201527f6563697069656e74206d61792068617665207265766572746564000000000000602082015250565b7f416464726573733a20696e73756666696369656e742062616c616e6365000000600082015250565b7f4f776e61626c653a2063616c6c6572206973206e6f7420746865206f776e6572600082015250565b50565b610bae81610a30565b8114610bb957600080fd5b50565b610bc581610a42565b8114610bd057600080fd5b5056fea26469706673582212203baefec478c62758b78e35a6d49512af1453071cd5bda34fd952fd10119031d764736f6c63430008060033",
  "immutableReferences": {},
  "source": "// SPDX-License-Identifier: UNLICENSED\r\n\r\npragma solidity ^0.8.6;\r\n\r\nimport \"./Dragoncontract.sol\";\r\nimport \"@openzeppelin/contracts/access/Ownable.sol\";\r\nimport \"@openzeppelin/contracts/utils/escrow/Escrow.sol\";\r\nimport \"./IDragonMarketplace.sol\";\r\n\r\ncontract DragonMarketplace is Ownable, IDragonMarketplace {\r\n  Dragoncontract private _dragonContract;\r\n  Escrow private _escrowContract;\r\n\r\n  struct Offer {\r\n    address payable seller;\r\n    uint256 price;\r\n    uint256 index;\r\n    uint256 tokenId;\r\n    bool active;\r\n  }\r\n\r\n  constructor(address dragonContract) {\r\n    _escrowContract = new Escrow();\r\n    setDragonContract(dragonContract);\r\n  }\r\n\r\n  Offer[] offers;\r\n\r\n  mapping(uint256 => Offer) tokenIdToOffer;\r\n\r\n  function setDragonContract(address _dragonContractAddress) override public onlyOwner {\r\n    _dragonContract = Dragoncontract(_dragonContractAddress);\r\n  }\r\n\r\n  function getOffer(uint256 _tokenId) override external view returns (address seller, uint256 price, uint256 index, uint256 tokenId, bool active) {\r\n    return (tokenIdToOffer[_tokenId].seller, tokenIdToOffer[_tokenId].price, tokenIdToOffer[_tokenId].index, tokenIdToOffer[_tokenId].tokenId, tokenIdToOffer[_tokenId].active);\r\n  }\r\n\r\n  function getActiveStatus(uint256 _tokenId) external view returns (bool active) {\r\n    return tokenIdToOffer[_tokenId].active;\r\n  }\r\n\r\n  function getAllTokenOnSale() override external view returns(uint256[] memory listOfOffers) {\r\n    uint256[] memory tokensForSale = new uint256[](offers.length);\r\n    uint256 counter = 0;\r\n    for(uint256 i = 0; i < offers.length; i++) {\r\n      if(offers[i].active == true) {\r\n        tokensForSale[counter] = offers[i].tokenId;\r\n        counter++;\r\n      }\r\n    }\r\n    return tokensForSale;\r\n  }\r\n\r\n  function setOffer(uint256 _price, uint256 _tokenId) override external {\r\n    require(_dragonContract._owns(msg.sender, _tokenId), \"You are not the token owner\");\r\n    require(!tokenIdToOffer[_tokenId].active, \"You cannot have more then one offer for a token at a time\");\r\n    require(_dragonContract.isApprovedForAll(msg.sender, address(this)), \"Marketplace contract is not an approved operator\");\r\n\r\n    Offer memory _newOffer = Offer(payable(msg.sender), _price, offers.length, _tokenId, true);\r\n    tokenIdToOffer[_tokenId] = _newOffer;\r\n    offers.push(_newOffer);\r\n\r\n    emit MarketTransaction(\"Offer Created\", msg.sender, _tokenId);\r\n  }\r\n\r\n  function removeOffer(uint256 _tokenId) override external {\r\n    Offer memory offer = tokenIdToOffer[_tokenId];\r\n\r\n    require(offer.seller == msg.sender, \"Only the token seller can remove an offer\");\r\n\r\n    _offerRemove(_tokenId);\r\n\r\n    emit MarketTransaction(\"Offer removed\", msg.sender, _tokenId);\r\n  }\r\n\r\n  function buyDragon(uint256 _tokenId, address payable _seller) override external payable {\r\n    Offer memory offer = tokenIdToOffer[_tokenId];\r\n\r\n    require(offer.price == msg.value, \"The price of the offer is incorrect\");\r\n    require(offer.active, \"There is no offer for this token\");\r\n\r\n    _offerRemove(_tokenId);\r\n\r\n    sendPayment(_seller, msg.value);\r\n    _dragonContract.transferFrom(offer.seller, msg.sender, _tokenId);\r\n\r\n    emit MarketTransaction(\"Token purchased\", msg.sender, _tokenId);\r\n  }\r\n\r\n  function sendPayment(address payable _payee, uint256 _amount) public payable {\r\n    _escrowContract.deposit{value: _amount}(_payee);\r\n  }\r\n\r\n  function withdraw(address payable _payee) external {\r\n    _escrowContract.withdraw(_payee);\r\n  }\r\n\r\n  function balance(address _payee) external view returns (uint256 balanceOf) {\r\n    return _escrowContract.depositsOf(_payee);\r\n  }\r\n\r\n  function _offerRemove(uint256 _tokenId) private {\r\n    offers[tokenIdToOffer[_tokenId].index].active = false;\r\n    delete tokenIdToOffer[_tokenId];\r\n  }\r\n}\r\n",
  "sourcePath": "C:\\Markus-Dragons\\contracts\\DragonMarketplace.sol",
  "compiler": {
    "name": "solc",
    "version": "0.8.6+commit.11564f7e.Emscripten.clang"
  },
  "schemaVersion": "3.2.0",
  "updatedAt": "2021-07-12T13:52:50.150Z",
  "networkType": "ethereum",
  "devdoc": {
    "kind": "dev",
    "methods": {
      "owner()": {
        "details": "Returns the address of the current owner."
      },
      "renounceOwnership()": {
        "details": "Leaves the contract without owner. It will not be possible to call `onlyOwner` functions anymore. Can only be called by the current owner. NOTE: Renouncing ownership will leave the contract without an owner, thereby removing any functionality that is only available to the owner."
      },
      "transferOwnership(address)": {
        "details": "Transfers ownership of the contract to a new account (`newOwner`). Can only be called by the current owner."
      }
    },
    "version": 1
  },
  "userdoc": {
    "kind": "user",
    "methods": {
      "buyDragon(uint256,address)": {
        "notice": "Executes the purchase of _tokenId. Sends the funds to the seller and transfers the token using transferFrom in Dragoncontract. Emits the MarketTransaction event with txType \"Buy\". Requirement: The msg.value needs to equal the price of _tokenId Requirement: There must be an active offer for _tokenId"
      },
      "getAllTokenOnSale()": {
        "notice": "Get all tokenId's that are currently for sale. Returns an empty arror if none exist."
      },
      "getOffer(uint256)": {
        "notice": "Get the details about a offer for _tokenId. Throws an error if there is no active offer for _tokenId."
      },
      "removeOffer(uint256)": {
        "notice": "Removes an existing offer. Emits the MarketTransaction event with txType \"Remove offer\" Requirement: Only the seller of _tokenId can remove an offer."
      },
      "setDragonContract(address)": {
        "notice": "Set the current DragonContract address and initialize the instance of Dragoncontract. Requirement: Only the contract owner can call."
      },
      "setOffer(uint256,uint256)": {
        "notice": "Creates a new offer for _tokenId for the price _price. Emits the MarketTransaction event with txType \"Create offer\" Requirement: Only the owner of _tokenId can create an offer. Requirement: There can only be one active offer for a token at a time. Requirement: Marketplace contract (this) needs to be an approved operator when the offer is created."
      }
    },
    "version": 1
  }
}