{
  "contractName": "DragonMarketplace",
  "abi": [
    {
      "inputs": [
        {
          "internalType": "address",
          "name": "dragonContract",
          "type": "address"
        }
      ],
      "payable": false,
      "stateMutability": "nonpayable",
      "type": "constructor"
    },
    {
      "anonymous": false,
      "inputs": [
        {
          "indexed": false,
          "internalType": "string",
          "name": "TxType",
          "type": "string"
        },
        {
          "indexed": false,
          "internalType": "address",
          "name": "owner",
          "type": "address"
        },
        {
          "indexed": false,
          "internalType": "uint256",
          "name": "tokenId",
          "type": "uint256"
        }
      ],
      "name": "MarketTransaction",
      "type": "event"
    },
    {
      "constant": false,
      "inputs": [
        {
          "internalType": "address",
          "name": "_dragonContractAddress",
          "type": "address"
        }
      ],
      "name": "setDragonContract",
      "outputs": [],
      "payable": false,
      "stateMutability": "nonpayable",
      "type": "function"
    },
    {
      "constant": true,
      "inputs": [
        {
          "internalType": "uint256",
          "name": "_tokenId",
          "type": "uint256"
        }
      ],
      "name": "getOffer",
      "outputs": [
        {
          "internalType": "address",
          "name": "seller",
          "type": "address"
        },
        {
          "internalType": "uint256",
          "name": "price",
          "type": "uint256"
        },
        {
          "internalType": "uint256",
          "name": "index",
          "type": "uint256"
        },
        {
          "internalType": "uint256",
          "name": "tokenId",
          "type": "uint256"
        },
        {
          "internalType": "bool",
          "name": "active",
          "type": "bool"
        }
      ],
      "payable": false,
      "stateMutability": "view",
      "type": "function"
    },
    {
      "constant": true,
      "inputs": [],
      "name": "getAllTokenOnSale",
      "outputs": [
        {
          "internalType": "uint256[]",
          "name": "listOfOffers",
          "type": "uint256[]"
        }
      ],
      "payable": false,
      "stateMutability": "view",
      "type": "function"
    },
    {
      "constant": false,
      "inputs": [
        {
          "internalType": "uint256",
          "name": "_price",
          "type": "uint256"
        },
        {
          "internalType": "uint256",
          "name": "_tokenId",
          "type": "uint256"
        }
      ],
      "name": "setOffer",
      "outputs": [],
      "payable": false,
      "stateMutability": "nonpayable",
      "type": "function"
    },
    {
      "constant": false,
      "inputs": [
        {
          "internalType": "uint256",
          "name": "_tokenId",
          "type": "uint256"
        }
      ],
      "name": "removeOffer",
      "outputs": [],
      "payable": false,
      "stateMutability": "nonpayable",
      "type": "function"
    },
    {
      "constant": false,
      "inputs": [
        {
          "internalType": "uint256",
          "name": "_tokenId",
          "type": "uint256"
        }
      ],
      "name": "buyDragon",
      "outputs": [],
      "payable": true,
      "stateMutability": "payable",
      "type": "function"
    }
  ],
  "bytecode": "0x608060405234801561001057600080fd5b506040516114ba3803806114ba8339818101604052602081101561003357600080fd5b8101908080519060200190929190505050336000806101000a81548173ffffffffffffffffffffffffffffffffffffffff021916908373ffffffffffffffffffffffffffffffffffffffff1602179055506100938161009960201b60201c565b50610182565b3373ffffffffffffffffffffffffffffffffffffffff166000809054906101000a900473ffffffffffffffffffffffffffffffffffffffff1673ffffffffffffffffffffffffffffffffffffffff161461013e576040517f08c379a00000000000000000000000000000000000000000000000000000000081526004018080602001828103825260268152602001806114946026913960400191505060405180910390fd5b80600160006101000a81548173ffffffffffffffffffffffffffffffffffffffff021916908373ffffffffffffffffffffffffffffffffffffffff16021790555050565b611303806101916000396000f3fe6080604052600436106100555760003560e01c8063039f14b01461005a5780634579268a146100ab57806349b3709f146101465780638d159787146101b2578063941b055b146101e057806395a0f9c714610225575b600080fd5b34801561006657600080fd5b506100a96004803603602081101561007d57600080fd5b81019080803573ffffffffffffffffffffffffffffffffffffffff169060200190929190505050610260565b005b3480156100b757600080fd5b506100e4600480360360208110156100ce57600080fd5b8101908080359060200190929190505050610349565b604051808673ffffffffffffffffffffffffffffffffffffffff1673ffffffffffffffffffffffffffffffffffffffff168152602001858152602001848152602001838152602001821515151581526020019550505050505060405180910390f35b34801561015257600080fd5b5061015b6103c4565b6040518080602001828103825283818151815260200191508051906020019060200280838360005b8381101561019e578082015181840152602081019050610183565b505050509050019250505060405180910390f35b6101de600480360360208110156101c857600080fd5b8101908080359060200190929190505050610496565b005b3480156101ec57600080fd5b506102236004803603604081101561020357600080fd5b8101908080359060200190929190803590602001909291905050506108e8565b005b34801561023157600080fd5b5061025e6004803603602081101561024857600080fd5b8101908080359060200190929190505050610e4d565b005b3373ffffffffffffffffffffffffffffffffffffffff166000809054906101000a900473ffffffffffffffffffffffffffffffffffffffff1673ffffffffffffffffffffffffffffffffffffffff1614610305576040517f08c379a00000000000000000000000000000000000000000000000000000000081526004018080602001828103825260268152602001806112256026913960400191505060405180910390fd5b80600160006101000a81548173ffffffffffffffffffffffffffffffffffffffff021916908373ffffffffffffffffffffffffffffffffffffffff16021790555050565b6000806000806000806003600088815260200190815260200160002090508060000160009054906101000a900473ffffffffffffffffffffffffffffffffffffffff168160010154826002015483600301548460040160009054906101000a900460ff16849450955095509550955095505091939590929450565b6060806002805490506040519080825280602002602001820160405280156103fb5781602001602082028038833980820191505090505b50905060008090505b60028054905081101561048e57600115156002828154811061042257fe5b906000526020600020906005020160040160009054906101000a900460ff1615151415610481576002818154811061045657fe5b90600052602060002090600502016003015482828151811061047457fe5b6020026020010181815250505b8080600101915050610404565b508091505090565b61049e6111a4565b600360008381526020019081526020016000206040518060a00160405290816000820160009054906101000a900473ffffffffffffffffffffffffffffffffffffffff1673ffffffffffffffffffffffffffffffffffffffff1673ffffffffffffffffffffffffffffffffffffffff1681526020016001820154815260200160028201548152602001600382015481526020016004820160009054906101000a900460ff1615151515815250509050806020015134146105a9576040517f08c379a000000000000000000000000000000000000000000000000000000000815260040180806020018281038252602f8152602001806112a0602f913960400191505060405180910390fd5b600115156003600084815260200190815260200160002060040160009054906101000a900460ff16151514610646576040517f08c379a00000000000000000000000000000000000000000000000000000000081526004018080602001828103825260188152602001807f546f6b656e204944206973206e6f7420666f722073616c65000000000000000081525060200191505060405180910390fd5b60036000838152602001908152602001600020600080820160006101000a81549073ffffffffffffffffffffffffffffffffffffffff02191690556001820160009055600282016000905560038201600090556004820160006101000a81549060ff02191690555050600060028260400151815481106106c257fe5b906000526020600020906005020160040160006101000a81548160ff02191690831515021790555060008160200151111561074757806000015173ffffffffffffffffffffffffffffffffffffffff166108fc82602001519081150290604051600060405180830381858888f19350505050158015610745573d6000803e3d6000fd5b505b600160009054906101000a900473ffffffffffffffffffffffffffffffffffffffff1673ffffffffffffffffffffffffffffffffffffffff166342842e0e826000015133856040518463ffffffff1660e01b8152600401808473ffffffffffffffffffffffffffffffffffffffff1673ffffffffffffffffffffffffffffffffffffffff1681526020018373ffffffffffffffffffffffffffffffffffffffff1673ffffffffffffffffffffffffffffffffffffffff1681526020018281526020019350505050600060405180830381600087803b15801561082857600080fd5b505af115801561083c573d6000803e3d6000fd5b505050507fd99e4fad9ad6313b1feb588fa8e605e3a9873172f2024330c35dd2b4041a4386338360405180806020018473ffffffffffffffffffffffffffffffffffffffff1673ffffffffffffffffffffffffffffffffffffffff168152602001838152602001828103825260038152602001807f4275790000000000000000000000000000000000000000000000000000000000815250602001935050505060405180910390a15050565b600160009054906101000a900473ffffffffffffffffffffffffffffffffffffffff1673ffffffffffffffffffffffffffffffffffffffff1663e21fd9fc33836040518363ffffffff1660e01b8152600401808373ffffffffffffffffffffffffffffffffffffffff1673ffffffffffffffffffffffffffffffffffffffff1681526020018281526020019250505060206040518083038186803b15801561098f57600080fd5b505afa1580156109a3573d6000803e3d6000fd5b505050506040513d60208110156109b957600080fd5b8101908080519060200190929190505050610a1f576040517f08c379a000000000000000000000000000000000000000000000000000000000815260040180806020018281038252602481526020018061127c6024913960400191505060405180910390fd5b600115156003600083815260200190815260200160002060040160009054906101000a900460ff1615151415610aa0576040517f08c379a00000000000000000000000000000000000000000000000000000000081526004018080602001828103825260398152602001806111ec6039913960400191505060405180910390fd5b600160009054906101000a900473ffffffffffffffffffffffffffffffffffffffff1673ffffffffffffffffffffffffffffffffffffffff1663e985e9c533306040518363ffffffff1660e01b8152600401808373ffffffffffffffffffffffffffffffffffffffff1673ffffffffffffffffffffffffffffffffffffffff1681526020018273ffffffffffffffffffffffffffffffffffffffff1673ffffffffffffffffffffffffffffffffffffffff1681526020019250505060206040518083038186803b158015610b7357600080fd5b505afa158015610b87573d6000803e3d6000fd5b505050506040513d6020811015610b9d57600080fd5b8101908080519060200190929190505050610c03576040517f08c379a000000000000000000000000000000000000000000000000000000000815260040180806020018281038252603181526020018061124b6031913960400191505060405180910390fd5b610c0b6111a4565b6040518060a001604052803373ffffffffffffffffffffffffffffffffffffffff1681526020018481526020016002805490508152602001838152602001600115158152509050806003600084815260200190815260200160002060008201518160000160006101000a81548173ffffffffffffffffffffffffffffffffffffffff021916908373ffffffffffffffffffffffffffffffffffffffff16021790555060208201518160010155604082015181600201556060820151816003015560808201518160040160006101000a81548160ff0219169083151502179055509050506002819080600181540180825580915050906001820390600052602060002090600502016000909192909190915060008201518160000160006101000a81548173ffffffffffffffffffffffffffffffffffffffff021916908373ffffffffffffffffffffffffffffffffffffffff16021790555060208201518160010155604082015181600201556060820151816003015560808201518160040160006101000a81548160ff0219169083151502179055505050507fd99e4fad9ad6313b1feb588fa8e605e3a9873172f2024330c35dd2b4041a4386338360405180806020018473ffffffffffffffffffffffffffffffffffffffff1673ffffffffffffffffffffffffffffffffffffffff1681526020018381526020018281038252600c8152602001807f437265617465206f666665720000000000000000000000000000000000000000815250602001935050505060405180910390a1505050565b600160009054906101000a900473ffffffffffffffffffffffffffffffffffffffff1673ffffffffffffffffffffffffffffffffffffffff1663e21fd9fc33836040518363ffffffff1660e01b8152600401808373ffffffffffffffffffffffffffffffffffffffff1673ffffffffffffffffffffffffffffffffffffffff1681526020018281526020019250505060206040518083038186803b158015610ef457600080fd5b505afa158015610f08573d6000803e3d6000fd5b505050506040513d6020811015610f1e57600080fd5b8101908080519060200190929190505050610fa1576040517f08c379a000000000000000000000000000000000000000000000000000000000815260040180806020018281038252601b8152602001807f596f7520646f206e6f74206f776e2074686520746f6b656e204944000000000081525060200191505060405180910390fd5b610fa96111a4565b600360008381526020019081526020016000206040518060a00160405290816000820160009054906101000a900473ffffffffffffffffffffffffffffffffffffffff1673ffffffffffffffffffffffffffffffffffffffff1673ffffffffffffffffffffffffffffffffffffffff1681526020016001820154815260200160028201548152602001600382015481526020016004820160009054906101000a900460ff161515151581525050905060036000838152602001908152602001600020600080820160006101000a81549073ffffffffffffffffffffffffffffffffffffffff02191690556001820160009055600282016000905560038201600090556004820160006101000a81549060ff02191690555050600060028260400151815481106110d457fe5b906000526020600020906005020160040160006101000a81548160ff0219169083151502179055507fd99e4fad9ad6313b1feb588fa8e605e3a9873172f2024330c35dd2b4041a4386338360405180806020018473ffffffffffffffffffffffffffffffffffffffff1673ffffffffffffffffffffffffffffffffffffffff1681526020018381526020018281038252600c8152602001807f52656d6f7665206f666665720000000000000000000000000000000000000000815250602001935050505060405180910390a15050565b6040518060a00160405280600073ffffffffffffffffffffffffffffffffffffffff168152602001600081526020016000815260200160008152602001600015158152509056fe596f752063616e6e6f742068617665206d6f7265207468656e206f6e65206f6666657220666f72206120746f6b656e20617420612074696d65596f7520617265206e6f7420746865206f776e6572206f66207468697320636f6e74726163744d61726b6574706c61636520636f6e7472616374206973206e6f7420616e20617070726f766564206f7070657261746f72596f7520617265206e6f7420746865206f776e6572206f662074686520746f6b656e49646d73672e76616c7565206d75737420626520657175616c20746f20746865207072696365206f6620746f6b656e4964a265627a7a7231582016ca7b359b1820903ccb752ec2ad1ba91dfa13dea1c603037800d7ff9ef1381764736f6c634300050c0032596f7520617265206e6f7420746865206f776e6572206f66207468697320636f6e7472616374",
  "source": "pragma solidity ^0.5.0;\r\n\r\nimport \"./Dragoncontract.sol\";\r\nimport \"./Ownable.sol\";\r\nimport \"./IDragonMarketplace.sol\";\r\n\r\ncontract DragonMarketplace is Ownable, IDragonMarketplace {\r\n  Dragoncontract private _dragonContract;\r\n\r\n  struct Offer {\r\n    address payable seller;\r\n    uint256 price;\r\n    uint256 index;\r\n    uint256 tokenId;\r\n    bool active;\r\n  }\r\n\r\n  constructor(address dragonContract) public {\r\n    setDragonContract(dragonContract);\r\n  }\r\n\r\n  Offer[] offers;\r\n\r\n  mapping(uint256 => Offer) tokenIdToOffer;\r\n\r\n  function setDragonContract(address _dragonContractAddress) public onlyOwner {\r\n    _dragonContract = Dragoncontract(_dragonContractAddress);\r\n  }\r\n\r\n  function getOffer(uint256 _tokenId) external view returns (address seller, uint256 price, uint256 index, uint256 tokenId, bool active) {\r\n    Offer storage offer = tokenIdToOffer[_tokenId];\r\n    return (offer.seller, offer.price, offer.index, offer.tokenId, offer.active);\r\n  }\r\n\r\n  function getAllTokenOnSale() external view returns(uint256[] memory listOfOffers) {\r\n    uint256[] memory tokensForSale = new uint256[](offers.length);\r\n\r\n    for(uint256 i = 0; i < offers.length; i++) {\r\n      if(offers[i].active == true) {\r\n        tokensForSale[i] = offers[i].tokenId;\r\n      }\r\n    }\r\n    return tokensForSale;\r\n  }\r\n\r\n  function setOffer(uint256 _price, uint256 _tokenId) external {\r\n    require(_dragonContract._owns(msg.sender, _tokenId), \"You are not the owner of the tokenId\");\r\n    require(tokenIdToOffer[_tokenId].active != true, \"You cannot have more then one offer for a token at a time\");\r\n    require(_dragonContract.isApprovedForAll(msg.sender, address(this)), \"Marketplace contract is not an approved opperator\");\r\n\r\n    Offer memory _newOffer = Offer(msg.sender, _price, offers.length, _tokenId, true);\r\n    tokenIdToOffer[_tokenId] = _newOffer;\r\n    offers.push(_newOffer);\r\n\r\n    emit MarketTransaction(\"Create offer\", msg.sender, _tokenId);\r\n  }\r\n\r\n    function removeOffer(uint256 _tokenId) external {\r\n      require(_dragonContract._owns(msg.sender, _tokenId), \"You do not own the token ID\");\r\n\r\n      Offer memory offer = tokenIdToOffer[_tokenId];\r\n\r\n      delete tokenIdToOffer[_tokenId];\r\n      offers[offer.index].active = false;\r\n\r\n      emit MarketTransaction(\"Remove offer\", msg.sender, _tokenId);\r\n    }\r\n\r\n    function buyDragon(uint256 _tokenId) external payable {\r\n      Offer memory offer = tokenIdToOffer[_tokenId];\r\n      require(msg.value == offer.price, \"msg.value must be equal to the price of tokenId\");\r\n      require(tokenIdToOffer[_tokenId].active == true, \"Token ID is not for sale\");\r\n\r\n      delete tokenIdToOffer[_tokenId];\r\n      offers[offer.index].active = false;\r\n\r\n      if(offer.price > 0) {\r\n        offer.seller.transfer(offer.price);\r\n      }\r\n\r\n      _dragonContract.safeTransferFrom(offer.seller, msg.sender, _tokenId);\r\n\r\n      emit MarketTransaction(\"Buy\", msg.sender, _tokenId);\r\n    }\r\n}\r\n",
  "sourcePath": "C:\\Crypto-Dragons\\contracts\\DragonMarketplace.sol",
  "compiler": {
    "name": "solc",
    "version": "0.5.12+commit.7709ece9.Emscripten.clang"
  },
  "schemaVersion": "3.2.0",
  "updatedAt": "2021-06-19T13:22:43.152Z",
  "networkType": "ethereum",
  "devdoc": {
    "methods": {}
  },
  "userdoc": {
    "methods": {}
  }
}