{
  "contractName": "Dragoncontract",
  "abi": [
    {
      "anonymous": false,
      "inputs": [
        {
          "indexed": true,
          "internalType": "address",
          "name": "owner",
          "type": "address"
        },
        {
          "indexed": true,
          "internalType": "address",
          "name": "approved",
          "type": "address"
        },
        {
          "indexed": true,
          "internalType": "uint256",
          "name": "tokenId",
          "type": "uint256"
        }
      ],
      "name": "Approval",
      "type": "event"
    },
    {
      "anonymous": false,
      "inputs": [
        {
          "indexed": true,
          "internalType": "address",
          "name": "owner",
          "type": "address"
        },
        {
          "indexed": true,
          "internalType": "address",
          "name": "operator",
          "type": "address"
        },
        {
          "indexed": false,
          "internalType": "bool",
          "name": "approved",
          "type": "bool"
        }
      ],
      "name": "ApprovalForAll",
      "type": "event"
    },
    {
      "anonymous": false,
      "inputs": [
        {
          "indexed": false,
          "internalType": "address",
          "name": "owner",
          "type": "address"
        },
        {
          "indexed": false,
          "internalType": "uint256",
          "name": "dragonId",
          "type": "uint256"
        },
        {
          "indexed": false,
          "internalType": "uint256",
          "name": "genes",
          "type": "uint256"
        },
        {
          "indexed": false,
          "internalType": "uint256",
          "name": "dadId",
          "type": "uint256"
        },
        {
          "indexed": false,
          "internalType": "uint256",
          "name": "momId",
          "type": "uint256"
        }
      ],
      "name": "Birth",
      "type": "event"
    },
    {
      "anonymous": false,
      "inputs": [
        {
          "indexed": true,
          "internalType": "address",
          "name": "from",
          "type": "address"
        },
        {
          "indexed": true,
          "internalType": "address",
          "name": "to",
          "type": "address"
        },
        {
          "indexed": true,
          "internalType": "uint256",
          "name": "tokenId",
          "type": "uint256"
        }
      ],
      "name": "Transfer",
      "type": "event"
    },
    {
      "constant": true,
      "inputs": [],
      "name": "gen0CreationLimit",
      "outputs": [
        {
          "internalType": "uint256",
          "name": "",
          "type": "uint256"
        }
      ],
      "payable": false,
      "stateMutability": "view",
      "type": "function"
    },
    {
      "constant": true,
      "inputs": [],
      "name": "gen0Total",
      "outputs": [
        {
          "internalType": "uint256",
          "name": "",
          "type": "uint256"
        }
      ],
      "payable": false,
      "stateMutability": "view",
      "type": "function"
    },
    {
      "constant": false,
      "inputs": [
        {
          "internalType": "uint256",
          "name": "_dadId",
          "type": "uint256"
        },
        {
          "internalType": "uint256",
          "name": "_momId",
          "type": "uint256"
        }
      ],
      "name": "breed",
      "outputs": [
        {
          "internalType": "uint256",
          "name": "",
          "type": "uint256"
        }
      ],
      "payable": false,
      "stateMutability": "nonpayable",
      "type": "function"
    },
    {
      "constant": true,
      "inputs": [
        {
          "internalType": "bytes4",
          "name": "_interfaceId",
          "type": "bytes4"
        }
      ],
      "name": "supportsInterface",
      "outputs": [
        {
          "internalType": "bool",
          "name": "",
          "type": "bool"
        }
      ],
      "payable": false,
      "stateMutability": "pure",
      "type": "function"
    },
    {
      "constant": true,
      "inputs": [
        {
          "internalType": "uint256",
          "name": "_tokenId",
          "type": "uint256"
        }
      ],
      "name": "getDragon",
      "outputs": [
        {
          "internalType": "uint256",
          "name": "genes",
          "type": "uint256"
        },
        {
          "internalType": "uint256",
          "name": "birthTime",
          "type": "uint256"
        },
        {
          "internalType": "uint256",
          "name": "dadId",
          "type": "uint256"
        },
        {
          "internalType": "uint256",
          "name": "momId",
          "type": "uint256"
        },
        {
          "internalType": "uint256",
          "name": "generation",
          "type": "uint256"
        },
        {
          "internalType": "address",
          "name": "owner",
          "type": "address"
        }
      ],
      "payable": false,
      "stateMutability": "view",
      "type": "function"
    },
    {
      "constant": true,
      "inputs": [],
      "name": "allOwnedDragons",
      "outputs": [
        {
          "internalType": "uint256[]",
          "name": "",
          "type": "uint256[]"
        }
      ],
      "payable": false,
      "stateMutability": "view",
      "type": "function"
    },
    {
      "constant": false,
      "inputs": [
        {
          "internalType": "uint256",
          "name": "_genes",
          "type": "uint256"
        }
      ],
      "name": "createDragonGen0",
      "outputs": [],
      "payable": false,
      "stateMutability": "nonpayable",
      "type": "function"
    },
    {
      "constant": true,
      "inputs": [],
      "name": "name",
      "outputs": [
        {
          "internalType": "string",
          "name": "tokenName",
          "type": "string"
        }
      ],
      "payable": false,
      "stateMutability": "view",
      "type": "function"
    },
    {
      "constant": true,
      "inputs": [],
      "name": "symbol",
      "outputs": [
        {
          "internalType": "string",
          "name": "tokenSymbol",
          "type": "string"
        }
      ],
      "payable": false,
      "stateMutability": "view",
      "type": "function"
    },
    {
      "constant": true,
      "inputs": [
        {
          "internalType": "address",
          "name": "_owner",
          "type": "address"
        }
      ],
      "name": "balanceOf",
      "outputs": [
        {
          "internalType": "uint256",
          "name": "balance",
          "type": "uint256"
        }
      ],
      "payable": false,
      "stateMutability": "view",
      "type": "function"
    },
    {
      "constant": true,
      "inputs": [],
      "name": "totalSupply",
      "outputs": [
        {
          "internalType": "uint256",
          "name": "total",
          "type": "uint256"
        }
      ],
      "payable": false,
      "stateMutability": "view",
      "type": "function"
    },
    {
      "constant": true,
      "inputs": [
        {
          "internalType": "uint256",
          "name": "_tokenId",
          "type": "uint256"
        }
      ],
      "name": "ownerOf",
      "outputs": [
        {
          "internalType": "address",
          "name": "owner",
          "type": "address"
        }
      ],
      "payable": false,
      "stateMutability": "view",
      "type": "function"
    },
    {
      "constant": false,
      "inputs": [
        {
          "internalType": "address",
          "name": "_to",
          "type": "address"
        },
        {
          "internalType": "uint256",
          "name": "_tokenId",
          "type": "uint256"
        }
      ],
      "name": "transfer",
      "outputs": [],
      "payable": false,
      "stateMutability": "nonpayable",
      "type": "function"
    },
    {
      "constant": false,
      "inputs": [
        {
          "internalType": "address",
          "name": "_approved",
          "type": "address"
        },
        {
          "internalType": "uint256",
          "name": "_tokenId",
          "type": "uint256"
        }
      ],
      "name": "approve",
      "outputs": [],
      "payable": false,
      "stateMutability": "nonpayable",
      "type": "function"
    },
    {
      "constant": false,
      "inputs": [
        {
          "internalType": "address",
          "name": "_operator",
          "type": "address"
        },
        {
          "internalType": "bool",
          "name": "_approved",
          "type": "bool"
        }
      ],
      "name": "setApprovalForAll",
      "outputs": [],
      "payable": false,
      "stateMutability": "nonpayable",
      "type": "function"
    },
    {
      "constant": true,
      "inputs": [
        {
          "internalType": "uint256",
          "name": "_tokenId",
          "type": "uint256"
        }
      ],
      "name": "getApproved",
      "outputs": [
        {
          "internalType": "address",
          "name": "",
          "type": "address"
        }
      ],
      "payable": false,
      "stateMutability": "view",
      "type": "function"
    },
    {
      "constant": true,
      "inputs": [
        {
          "internalType": "address",
          "name": "_owner",
          "type": "address"
        },
        {
          "internalType": "address",
          "name": "_operator",
          "type": "address"
        }
      ],
      "name": "isApprovedForAll",
      "outputs": [
        {
          "internalType": "bool",
          "name": "",
          "type": "bool"
        }
      ],
      "payable": false,
      "stateMutability": "view",
      "type": "function"
    },
    {
      "constant": false,
      "inputs": [
        {
          "internalType": "address",
          "name": "_from",
          "type": "address"
        },
        {
          "internalType": "address",
          "name": "_to",
          "type": "address"
        },
        {
          "internalType": "uint256",
          "name": "_tokenId",
          "type": "uint256"
        }
      ],
      "name": "safeTransferFrom",
      "outputs": [],
      "payable": false,
      "stateMutability": "nonpayable",
      "type": "function"
    },
    {
      "constant": false,
      "inputs": [
        {
          "internalType": "address",
          "name": "_from",
          "type": "address"
        },
        {
          "internalType": "address",
          "name": "_to",
          "type": "address"
        },
        {
          "internalType": "uint256",
          "name": "_tokenId",
          "type": "uint256"
        },
        {
          "internalType": "bytes",
          "name": "_data",
          "type": "bytes"
        }
      ],
      "name": "safeTransferFrom",
      "outputs": [],
      "payable": false,
      "stateMutability": "nonpayable",
      "type": "function"
    },
    {
      "constant": false,
      "inputs": [
        {
          "internalType": "address",
          "name": "_from",
          "type": "address"
        },
        {
          "internalType": "address",
          "name": "_to",
          "type": "address"
        },
        {
          "internalType": "uint256",
          "name": "_tokenId",
          "type": "uint256"
        }
      ],
      "name": "transferFrom",
      "outputs": [],
      "payable": false,
      "stateMutability": "nonpayable",
      "type": "function"
    }
  ],
  "bytecode": "0x6080604052336000806101000a81548173ffffffffffffffffffffffffffffffffffffffff021916908373ffffffffffffffffffffffffffffffffffffffff16021790555061249d806100536000396000f3fe608060405234801561001057600080fd5b506004361061012c5760003560e01c806370a08231116100ad578063b88d4fde11610071578063b88d4fde14610620578063d72cfb8c14610725578063d9ecad7b14610784578063e0bb933b146107d0578063e985e9c5146108615761012c565b806370a082311461047957806395d89b41146104d15780639c542e1c14610554578063a22cb46514610582578063a9059cbb146105d25761012c565b80631e19fa33116100f45780631e19fa33146102f357806323b872dd14610311578063404d0e3e1461037f57806342842e0e1461039d5780636352211e1461040b5761012c565b806301ffc9a71461013157806306fdde0314610196578063081812fc14610219578063095ea7b31461028757806318160ddd146102d5575b600080fd5b61017c6004803603602081101561014757600080fd5b8101908080357bffffffffffffffffffffffffffffffffffffffffffffffffffffffff191690602001909291905050506108dd565b604051808215151515815260200191505060405180910390f35b61019e61097d565b6040518080602001828103825283818151815260200191508051906020019080838360005b838110156101de5780820151818401526020810190506101c3565b50505050905090810190601f16801561020b5780820380516001836020036101000a031916815260200191505b509250505060405180910390f35b6102456004803603602081101561022f57600080fd5b81019080803590602001909291905050506109ba565b604051808273ffffffffffffffffffffffffffffffffffffffff1673ffffffffffffffffffffffffffffffffffffffff16815260200191505060405180910390f35b6102d36004803603604081101561029d57600080fd5b81019080803573ffffffffffffffffffffffffffffffffffffffff16906020019092919080359060200190929190505050610a71565b005b6102dd610c45565b6040518082815260200191505060405180910390f35b6102fb610c52565b6040518082815260200191505060405180910390f35b61037d6004803603606081101561032757600080fd5b81019080803573ffffffffffffffffffffffffffffffffffffffff169060200190929190803573ffffffffffffffffffffffffffffffffffffffff16906020019092919080359060200190929190505050610c58565b005b610387610c7d565b6040518082815260200191505060405180910390f35b610409600480360360608110156103b357600080fd5b81019080803573ffffffffffffffffffffffffffffffffffffffff169060200190929190803573ffffffffffffffffffffffffffffffffffffffff16906020019092919080359060200190929190505050610c82565b005b6104376004803603602081101561042157600080fd5b8101908080359060200190929190505050610ca2565b604051808273ffffffffffffffffffffffffffffffffffffffff1673ffffffffffffffffffffffffffffffffffffffff16815260200191505060405180910390f35b6104bb6004803603602081101561048f57600080fd5b81019080803573ffffffffffffffffffffffffffffffffffffffff169060200190929190505050610d59565b6040518082815260200191505060405180910390f35b6104d9610da2565b6040518080602001828103825283818151815260200191508051906020019080838360005b838110156105195780820151818401526020810190506104fe565b50505050905090810190601f1680156105465780820380516001836020036101000a031916815260200191505b509250505060405180910390f35b6105806004803603602081101561056a57600080fd5b8101908080359060200190929190505050610ddf565b005b6105d06004803603604081101561059857600080fd5b81019080803573ffffffffffffffffffffffffffffffffffffffff169060200190929190803515159060200190929190505050610f04565b005b61061e600480360360408110156105e857600080fd5b81019080803573ffffffffffffffffffffffffffffffffffffffff1690602001909291908035906020019092919050505061108a565b005b6107236004803603608081101561063657600080fd5b81019080803573ffffffffffffffffffffffffffffffffffffffff169060200190929190803573ffffffffffffffffffffffffffffffffffffffff169060200190929190803590602001909291908035906020019064010000000081111561069d57600080fd5b8201836020820111156106af57600080fd5b803590602001918460018302840111640100000000831117156106d157600080fd5b91908080601f016020809104026020016040519081016040528093929190818152602001838380828437600081840152601f19601f82011690508083019250505050505050919291929050505061123d565b005b61072d611264565b6040518080602001828103825283818151815260200191508051906020019060200280838360005b83811015610770578082015181840152602081019050610755565b505050509050019250505060405180910390f35b6107ba6004803603604081101561079a57600080fd5b810190808035906020019092919080359060200190929190505050611381565b6040518082815260200191505060405180910390f35b6107fc600480360360208110156107e657600080fd5b8101908080359060200190929190505050611549565b604051808781526020018681526020018581526020018481526020018381526020018273ffffffffffffffffffffffffffffffffffffffff1673ffffffffffffffffffffffffffffffffffffffff168152602001965050505050505060405180910390f35b6108c36004803603604081101561087757600080fd5b81019080803573ffffffffffffffffffffffffffffffffffffffff169060200190929190803573ffffffffffffffffffffffffffffffffffffffff169060200190929190505050611718565b604051808215151515815260200191505060405180910390f35b60006380ac58cd60e01b7bffffffffffffffffffffffffffffffffffffffffffffffffffffffff1916827bffffffffffffffffffffffffffffffffffffffffffffffffffffffff1916148061097657506301ffc9a760e01b7bffffffffffffffffffffffffffffffffffffffffffffffffffffffff1916827bffffffffffffffffffffffffffffffffffffffffffffffffffffffff1916145b9050919050565b60606040518060400160405280600d81526020017f4d61726b7573447261676f6e7300000000000000000000000000000000000000815250905090565b60006001805490508210610a36576040517f08c379a00000000000000000000000000000000000000000000000000000000081526004018080602001828103825260148152602001807f546f6b656e20646f6573206e6f7420657869737400000000000000000000000081525060200191505060405180910390fd5b6004600083815260200190815260200160002060009054906101000a900473ffffffffffffffffffffffffffffffffffffffff169050919050565b610a7b33826117ac565b80610b3f5750600560006002600084815260200190815260200160002060009054906101000a900473ffffffffffffffffffffffffffffffffffffffff1673ffffffffffffffffffffffffffffffffffffffff1673ffffffffffffffffffffffffffffffffffffffff16815260200190815260200160002060003373ffffffffffffffffffffffffffffffffffffffff1673ffffffffffffffffffffffffffffffffffffffff16815260200190815260200160002060009054906101000a900460ff165b610b94576040517f08c379a00000000000000000000000000000000000000000000000000000000081526004018080602001828103825260368152602001806123746036913960400191505060405180910390fd5b816004600083815260200190815260200160002060006101000a81548173ffffffffffffffffffffffffffffffffffffffff021916908373ffffffffffffffffffffffffffffffffffffffff160217905550808273ffffffffffffffffffffffffffffffffffffffff163373ffffffffffffffffffffffffffffffffffffffff167f8c5be1e5ebec7d5bd14f71427d1e84f3dd0314c0f7b2291e5b200ac8c7c3b92560405160405180910390a45050565b6000600180549050905090565b60065481565b610c6433848484611818565b610c6d57600080fd5b610c788383836119f0565b505050565b600a81565b610c9d8383836040518060200160405280600081525061123d565b505050565b60006001805490508210610d1e576040517f08c379a00000000000000000000000000000000000000000000000000000000081526004018080602001828103825260148152602001807f546f6b656e20646f6573206e6f7420657869737400000000000000000000000081525060200191505060405180910390fd5b6002600083815260200190815260200160002060009054906101000a900473ffffffffffffffffffffffffffffffffffffffff169050919050565b6000600360008373ffffffffffffffffffffffffffffffffffffffff1673ffffffffffffffffffffffffffffffffffffffff168152602001908152602001600020549050919050565b60606040518060400160405280600281526020017f4d44000000000000000000000000000000000000000000000000000000000000815250905090565b3373ffffffffffffffffffffffffffffffffffffffff166000809054906101000a900473ffffffffffffffffffffffffffffffffffffffff1673ffffffffffffffffffffffffffffffffffffffff1614610e84576040517f08c379a00000000000000000000000000000000000000000000000000000000081526004018080602001828103825260268152602001806123f46026913960400191505060405180910390fd5b600a60065410610edf576040517f08c379a000000000000000000000000000000000000000000000000000000000815260040180806020018281038252602881526020018061241a6028913960400191505060405180910390fd5b600660008154809291906001019190505550610f0081600080600033611c39565b5050565b3373ffffffffffffffffffffffffffffffffffffffff168273ffffffffffffffffffffffffffffffffffffffff161415610f89576040517f08c379a00000000000000000000000000000000000000000000000000000000081526004018080602001828103825260238152602001806123516023913960400191505060405180910390fd5b80600560003373ffffffffffffffffffffffffffffffffffffffff1673ffffffffffffffffffffffffffffffffffffffff16815260200190815260200160002060008473ffffffffffffffffffffffffffffffffffffffff1673ffffffffffffffffffffffffffffffffffffffff16815260200190815260200160002060006101000a81548160ff0219169083151502179055508173ffffffffffffffffffffffffffffffffffffffff163373ffffffffffffffffffffffffffffffffffffffff167f17307eab39ab6107e8899845ad3d59bd9653f200f220920489ca2b5937696c3183604051808215151515815260200191505060405180910390a35050565b600073ffffffffffffffffffffffffffffffffffffffff168273ffffffffffffffffffffffffffffffffffffffff16141561112d576040517f08c379a000000000000000000000000000000000000000000000000000000000815260040180806020018281038252601c8152602001807f43616e6e6f74207472616e7366657220746f203020616464726573730000000081525060200191505060405180910390fd5b3073ffffffffffffffffffffffffffffffffffffffff168273ffffffffffffffffffffffffffffffffffffffff1614156111b2576040517f08c379a00000000000000000000000000000000000000000000000000000000081526004018080602001828103825260238152602001806123aa6023913960400191505060405180910390fd5b6111bc33826117ac565b61122e576040517f08c379a000000000000000000000000000000000000000000000000000000000815260040180806020018281038252601d8152602001807f546f6b656e206d757374206265206f776e65642062792073656e64657200000081525060200191505060405180910390fd5b6112393383836119f0565b5050565b61124933858585611818565b61125257600080fd5b61125e84848484611e0a565b50505050565b606080600360003373ffffffffffffffffffffffffffffffffffffffff1673ffffffffffffffffffffffffffffffffffffffff168152602001908152602001600020546040519080825280602002602001820160405280156112d55781602001602082028038833980820191505090505b50905060008090505b600180549050811015611379573373ffffffffffffffffffffffffffffffffffffffff166002600083815260200190815260200160002060009054906101000a900473ffffffffffffffffffffffffffffffffffffffff1673ffffffffffffffffffffffffffffffffffffffff16141561136c578082828151811061135f57fe5b6020026020010181815250505b80806001019150506112de565b508091505090565b600061138d33846117ac565b6113ff576040517f08c379a000000000000000000000000000000000000000000000000000000000815260040180806020018281038252601d8152602001807f596f7520646f206e6f74206f776e207468652064616420647261676f6e00000081525060200191505060405180910390fd5b61140933836117ac565b61147b576040517f08c379a000000000000000000000000000000000000000000000000000000000815260040180806020018281038252601d8152602001807f596f7520646f206e6f74206f776e20746865206d6f6d20647261676f6e00000081525060200191505060405180910390fd5b60006114c36001858154811061148d57fe5b906000526020600020906002020160000154600185815481106114ac57fe5b906000526020600020906002020160000154611e7c565b90506000611531600186815481106114d757fe5b906000526020600020906002020160010160109054906101000a900461ffff1661ffff166001868154811061150857fe5b906000526020600020906002020160010160109054906101000a900461ffff1661ffff16611ebd565b90506115408286868433611c39565b50505092915050565b60008060008060008060018054905087106115cc576040517f08c379a00000000000000000000000000000000000000000000000000000000081526004018080602001828103825260148152602001807f546f6b656e20646f6573206e6f7420657869737400000000000000000000000081525060200191505060405180910390fd5b600187815481106115d957fe5b906000526020600020906002020160000154600188815481106115f857fe5b906000526020600020906002020160010160009054906101000a900467ffffffffffffffff166001898154811061162b57fe5b906000526020600020906002020160010160089054906101000a900463ffffffff1660018a8154811061165a57fe5b9060005260206000209060020201600101600c9054906101000a900463ffffffff1660018b8154811061168957fe5b906000526020600020906002020160010160109054906101000a900461ffff16600260008d815260200190815260200160002060009054906101000a900473ffffffffffffffffffffffffffffffffffffffff168467ffffffffffffffff1694508363ffffffff1693508263ffffffff1692508161ffff16915095509550955095509550955091939550919395565b6000600560008473ffffffffffffffffffffffffffffffffffffffff1673ffffffffffffffffffffffffffffffffffffffff16815260200190815260200160002060008373ffffffffffffffffffffffffffffffffffffffff1673ffffffffffffffffffffffffffffffffffffffff16815260200190815260200160002060009054906101000a900460ff16905092915050565b60006002600083815260200190815260200160002060009054906101000a900473ffffffffffffffffffffffffffffffffffffffff1673ffffffffffffffffffffffffffffffffffffffff168373ffffffffffffffffffffffffffffffffffffffff1614905092915050565b60008073ffffffffffffffffffffffffffffffffffffffff168373ffffffffffffffffffffffffffffffffffffffff1614156118bc576040517f08c379a000000000000000000000000000000000000000000000000000000000815260040180806020018281038252601c8152602001807f43616e6e6f74207472616e7366657220746f203020616464726573730000000081525060200191505060405180910390fd5b6001805490508210611936576040517f08c379a00000000000000000000000000000000000000000000000000000000081526004018080602001828103825260148152602001807f546f6b656e20646f6573206e6f7420657869737400000000000000000000000081525060200191505060405180910390fd5b61194084836117ac565b611995576040517f08c379a00000000000000000000000000000000000000000000000000000000081526004018080602001828103825260278152602001806123cd6027913960400191505060405180910390fd5b8373ffffffffffffffffffffffffffffffffffffffff168573ffffffffffffffffffffffffffffffffffffffff1614806119d557506119d48583611edd565b5b806119e657506119e58486611718565b5b9050949350505050565b611a436001600360008573ffffffffffffffffffffffffffffffffffffffff1673ffffffffffffffffffffffffffffffffffffffff16815260200190815260200160002054611f4990919063ffffffff16565b600360008473ffffffffffffffffffffffffffffffffffffffff1673ffffffffffffffffffffffffffffffffffffffff16815260200190815260200160002081905550816002600083815260200190815260200160002060006101000a81548173ffffffffffffffffffffffffffffffffffffffff021916908373ffffffffffffffffffffffffffffffffffffffff160217905550600073ffffffffffffffffffffffffffffffffffffffff168373ffffffffffffffffffffffffffffffffffffffff1614611bd957611b5f6001600360008673ffffffffffffffffffffffffffffffffffffffff1673ffffffffffffffffffffffffffffffffffffffff16815260200190815260200160002054611fd190919063ffffffff16565b600360008573ffffffffffffffffffffffffffffffffffffffff1673ffffffffffffffffffffffffffffffffffffffff168152602001908152602001600020819055506004600082815260200190815260200160002060006101000a81549073ffffffffffffffffffffffffffffffffffffffff02191690555b808273ffffffffffffffffffffffffffffffffffffffff168473ffffffffffffffffffffffffffffffffffffffff167fddf252ad1be2c89b69c2b068fc378daa952ba7f163c4a11628f55a4df523b3ef60405160405180910390a4505050565b6000611c436122d8565b6040518060a001604052808881526020014267ffffffffffffffff1681526020018763ffffffff1681526020018663ffffffff1681526020018561ffff1681525090506000600180549050905060018083908060018154018082558091505090600182039060005260206000209060020201600090919290919091506000820151816000015560208201518160010160006101000a81548167ffffffffffffffff021916908367ffffffffffffffff16021790555060408201518160010160086101000a81548163ffffffff021916908363ffffffff160217905550606082015181600101600c6101000a81548163ffffffff021916908363ffffffff16021790555060808201518160010160106101000a81548161ffff021916908361ffff160217905550505050507f0a5311bd2a6608f08a180df2ee7c5946819a649b204b554bb8e39825b2c50ad584828a898b604051808673ffffffffffffffffffffffffffffffffffffffff1673ffffffffffffffffffffffffffffffffffffffff1681526020018581526020018481526020018381526020018281526020019550505050505060405180910390a1611dfc600085836119f0565b809250505095945050505050565b611e158484846119f0565b611e218484848461201b565b611e76576040517f08c379a00000000000000000000000000000000000000000000000000000000081526004018080602001828103825260278152602001806124426027913960400191505060405180910390fd5b50505050565b6000806305f5e1008481611e8c57fe5b04905060006305f5e1008481611e9e57fe5b06905060006305f5e10083029050818101905080935050505092915050565b600081831015611ed05760018201611ed5565b600183015b905092915050565b60006004600083815260200190815260200160002060009054906101000a900473ffffffffffffffffffffffffffffffffffffffff1673ffffffffffffffffffffffffffffffffffffffff168373ffffffffffffffffffffffffffffffffffffffff1614905092915050565b600080828401905083811015611fc7576040517f08c379a000000000000000000000000000000000000000000000000000000000815260040180806020018281038252601b8152602001807f536166654d6174683a206164646974696f6e206f766572666c6f77000000000081525060200191505060405180910390fd5b8091505092915050565b600061201383836040518060400160405280601e81526020017f536166654d6174683a207375627472616374696f6e206f766572666c6f7700008152506121ff565b905092915050565b6000612026846122bf565b61203357600190506121f7565b60008473ffffffffffffffffffffffffffffffffffffffff1663150b7a02338887876040518563ffffffff1660e01b8152600401808573ffffffffffffffffffffffffffffffffffffffff1673ffffffffffffffffffffffffffffffffffffffff1681526020018473ffffffffffffffffffffffffffffffffffffffff1673ffffffffffffffffffffffffffffffffffffffff16815260200183815260200180602001828103825283818151815260200191508051906020019080838360005b8381101561210e5780820151818401526020810190506120f3565b50505050905090810190601f16801561213b5780820380516001836020036101000a031916815260200191505b5095505050505050602060405180830381600087803b15801561215d57600080fd5b505af1158015612171573d6000803e3d6000fd5b505050506040513d602081101561218757600080fd5b810190808051906020019092919050505090506040518080612322602f9139602f01905060405180910390207bffffffffffffffffffffffffffffffffffffffffffffffffffffffff1916817bffffffffffffffffffffffffffffffffffffffffffffffffffffffff1916149150505b949350505050565b60008383111582906122ac576040517f08c379a00000000000000000000000000000000000000000000000000000000081526004018080602001828103825283818151815260200191508051906020019080838360005b83811015612271578082015181840152602081019050612256565b50505050905090810190601f16801561229e5780820380516001836020036101000a031916815260200191505b509250505060405180910390fd5b5060008385039050809150509392505050565b600080823b905060008163ffffffff1611915050919050565b6040518060a0016040528060008152602001600067ffffffffffffffff168152602001600063ffffffff168152602001600063ffffffff168152602001600061ffff168152509056fe6f6e455243373231526563656976656428616464726573732c616464726573732c75696e743235362c627974657329596f752063616e6e6f742073657420796f757273656c66206173206f70657261746f72596f7520617265206e6f7420746865206f776e6572206f7220746865206f70657261746f72206f66207468697320746f6b656e20494443616e6e6f74207472616e7366657220746f20636f6e74726163742061646472657373546f6b656e206d757374206265206f776e65642062792074686520616464726573732066726f6d596f7520617265206e6f7420746865206f776e6572206f66207468697320636f6e7472616374546865206c696d6974206f662067656e65726174696f6e203020647261676f6e732069733a203130436f6e747261637420646f6573206e6f7420737570706f72742045524337323120746f6b656e73a265627a7a723158200b8e4702aa39269039276b0d3d5b1aa25a37764403681a2f994323449670bf6c64736f6c634300050c0032",
  "source": "pragma solidity ^0.5.12;\r\n\r\nimport \"./IERC721.sol\";\r\nimport \"./IERC721Receiver.sol\";\r\nimport \"./Safemath.sol\";\r\nimport \"./Ownable.sol\";\r\n\r\ncontract Dragoncontract is IERC721, Ownable {\r\n\r\n  using SafeMath for uint256;\r\n\r\n  uint256 public constant gen0CreationLimit = 10;\r\n  string private constant nameOfToken = \"MarkusDragons\";\r\n  string private constant symbolOfToken = \"MD\";\r\n\r\n  bytes4 private constant ERC721VerificationNum = bytes4(keccak256(\"onERC721Received(address,address,uint256,bytes)\"));\r\n\r\n  bytes4 private constant interfaceIdERC721 = 0x80ac58cd;\r\n  bytes4 private constant interfaceIdERC165 = 0x01ffc9a7;\r\n\r\n  event Birth(\r\n    address owner,\r\n    uint256 dragonId,\r\n    uint256 genes,\r\n    uint256 dadId,\r\n    uint256 momId\r\n  );\r\n\r\n  struct Dragon {\r\n    uint256 genes;\r\n    uint64 birthTime;\r\n    uint32 dadId;\r\n    uint32 momId;\r\n    uint16 generation;\r\n  }\r\n\r\n  Dragon[] private dragons;\r\n\r\n  mapping(uint256 => address) private dragonOwners;\r\n  mapping(address => uint256) private tokenBalances;\r\n\r\n  mapping(uint256 => address) private dragonIndexToApproved;\r\n  mapping(address => mapping(address => bool)) private operatorApproval;\r\n\r\n  uint256 public gen0Total;\r\n\r\n  function breed(uint256 _dadId, uint256 _momId) external returns (uint256) {\r\n    require(_owns(msg.sender, _dadId), \"You do not own the dad dragon\");\r\n    require(_owns(msg.sender, _momId), \"You do not own the mom dragon\");\r\n\r\n    uint256 newDna = _mixDna(dragons[_dadId].genes, dragons[_momId].genes);\r\n    uint256 newDragonGen = _newGeneration(dragons[_dadId].generation, dragons[_momId].generation);\r\n\r\n    _createDragon(newDna, _dadId, _momId, newDragonGen, msg.sender);\r\n  }\r\n\r\n  function supportsInterface(bytes4 _interfaceId) external pure returns (bool) {\r\n    return (_interfaceId == interfaceIdERC721 || _interfaceId == interfaceIdERC165);\r\n  }\r\n\r\n  function getDragon(uint256 _tokenId) external view returns (\r\n    uint256 genes,\r\n    uint256 birthTime,\r\n    uint256 dadId,\r\n    uint256 momId,\r\n    uint256 generation,\r\n    address owner) {\r\n      require(_tokenId < dragons.length, \"Token does not exist\");\r\n      return (\r\n        dragons[_tokenId].genes,\r\n        dragons[_tokenId].birthTime,\r\n        dragons[_tokenId].dadId,\r\n        dragons[_tokenId].momId,\r\n        dragons[_tokenId].generation,\r\n        dragonOwners[_tokenId]\r\n      );\r\n    }\r\n\r\n    function allOwnedDragons() external view returns(uint256[] memory) {\r\n        uint256[] memory ownedDragons = new uint256[](tokenBalances[msg.sender]);\r\n        for(uint256 i = 0; i < dragons.length; i++) {\r\n          if(dragonOwners[i] == msg.sender) {\r\n            ownedDragons[i] = i;\r\n          }\r\n        }\r\n        return ownedDragons;\r\n    }\r\n\r\n  function createDragonGen0(uint256 _genes) external onlyOwner {\r\n    require(gen0Total < gen0CreationLimit, \"The limit of generation 0 dragons is: 10\");\r\n\r\n    gen0Total++;\r\n\r\n    _createDragon(_genes, 0, 0, 0, msg.sender);\r\n  }\r\n\r\n  function _createDragon(\r\n    uint256 _genes,\r\n    uint256 _dadId,\r\n    uint256 _momId,\r\n    uint256 _generation,\r\n    address _owner\r\n  ) private returns (uint256) {\r\n      Dragon memory _dragon = Dragon(_genes, uint64(now), uint32(_dadId), uint32(_momId), uint16(_generation));\r\n\r\n      uint256 newDragonId = dragons.length;\r\n      dragons.push(_dragon) - 1;\r\n\r\n      emit Birth(_owner, newDragonId, _genes, _momId, _dadId);\r\n\r\n      _transfer(address(0), _owner, newDragonId);\r\n\r\n      return newDragonId;\r\n  }\r\n\r\n  function name() external view returns (string memory tokenName) {\r\n    return nameOfToken;\r\n  }\r\n\r\n  function symbol() external view returns (string memory tokenSymbol) {\r\n    return symbolOfToken;\r\n  }\r\n\r\n  function balanceOf(address _owner) external view returns (uint256 balance) {\r\n    return tokenBalances[_owner];\r\n  }\r\n\r\n  function totalSupply() external view returns (uint256 total) {\r\n    return dragons.length;\r\n  }\r\n\r\n  function ownerOf(uint256 _tokenId) external view returns (address owner) {\r\n    require(_tokenId < dragons.length, \"Token does not exist\");\r\n    return dragonOwners[_tokenId];\r\n  }\r\n\r\n  function transfer(address _to, uint256 _tokenId) external {\r\n    require(_to != address(0), \"Cannot transfer to 0 address\");\r\n    require(_to != address(this), \"Cannot transfer to contract address\");\r\n    require(_owns(msg.sender, _tokenId), \"Token must be owned by sender\");\r\n\r\n    _transfer(msg.sender, _to, _tokenId);\r\n  }\r\n\r\n  function _transfer(address _from, address _to, uint256 _tokenId) private {\r\n    tokenBalances[_to] = tokenBalances[_to].add(1);\r\n\r\n    dragonOwners[_tokenId] = _to;\r\n\r\n    if (_from != address(0)) {\r\n      tokenBalances[_from] = tokenBalances[_from].sub(1);\r\n      delete dragonIndexToApproved[_tokenId];\r\n    }\r\n\r\n    emit Transfer(_from, _to, _tokenId);\r\n  }\r\n\r\n  function approve(address _approved, uint256 _tokenId) external {\r\n    require(_owns(msg.sender, _tokenId) || operatorApproval[dragonOwners[_tokenId]][msg.sender], \"You are not the owner or the operator of this token ID\");\r\n\r\n    dragonIndexToApproved[_tokenId] = _approved;\r\n\r\n    emit Approval(msg.sender, _approved, _tokenId);\r\n  }\r\n\r\n  function setApprovalForAll(address _operator, bool _approved) external {\r\n    require(_operator != msg.sender, \"You cannot set yourself as operator\");\r\n\r\n    operatorApproval[msg.sender][_operator] = _approved;\r\n\r\n    emit ApprovalForAll(msg.sender, _operator, _approved);\r\n  }\r\n\r\n  function getApproved(uint256 _tokenId) external view returns (address) {\r\n    require(_tokenId < dragons.length, \"Token does not exist\");\r\n\r\n    return dragonIndexToApproved[_tokenId];\r\n  }\r\n\r\n  function isApprovedForAll(address _owner, address _operator) public view returns (bool) {\r\n    return operatorApproval[_owner][_operator];\r\n  }\r\n\r\n  function safeTransferFrom(address _from, address _to, uint256 _tokenId, bytes memory _data) public {\r\n    require(_transferFromRequire(msg.sender, _from, _to, _tokenId));\r\n\r\n    _safeTransfer(_from, _to, _tokenId, _data);\r\n  }\r\n\r\n  function safeTransferFrom(address _from, address _to, uint256 _tokenId) external {\r\n    safeTransferFrom(_from, _to, _tokenId, \"\");\r\n  }\r\n\r\n  function _safeTransfer(address _from, address _to, uint256 _tokenId, bytes memory _data) private {\r\n    _transfer(_from, _to, _tokenId);\r\n\r\n    require(_checkERC721Support(_from, _to, _tokenId, _data), \"Contract does not support ERC721 tokens\");\r\n  }\r\n\r\n  function transferFrom(address _from, address _to, uint256 _tokenId) external {\r\n    require(_transferFromRequire(msg.sender, _from, _to, _tokenId));\r\n\r\n    _transfer(_from, _to, _tokenId);\r\n  }\r\n\r\n  function _isApproved(address _claimant, uint256 _tokenId) private view returns (bool) {\r\n    return _claimant == dragonIndexToApproved[_tokenId];\r\n  }\r\n\r\n  function _checkERC721Support(address _from, address _to, uint256 _tokenId, bytes memory _data) private returns (bool) {\r\n    if(!_isContract(_to)) {\r\n      return true;\r\n    }\r\n    else {\r\n      bytes4 returnData = IERC721Receiver(_to).onERC721Received(msg.sender, _from, _tokenId, _data);\r\n      return returnData == ERC721VerificationNum;\r\n    }\r\n  }\r\n\r\n  function _isContract(address _to) private view returns (bool) {\r\n    uint32 size;\r\n    assembly{\r\n      size := extcodesize(_to)\r\n    }\r\n    return size > 0;\r\n  }\r\n\r\n  function _transferFromRequire(address _spender, address _from, address _to, uint256 _tokenId) private view returns (bool) {\r\n    require(_to != address(0), \"Cannot transfer to 0 address\");\r\n    require(_tokenId < dragons.length, \"Token does not exist\");\r\n    require(_owns(_from, _tokenId), \"Token must be owned by the address from\");\r\n\r\n    return _spender == _from || _isApproved(_spender, _tokenId) || isApprovedForAll(_from, _spender);\r\n  }\r\n\r\n  function _mixDna(uint256 _dadDna, uint256 _momDna) private pure returns (uint256) {\r\n    uint256 firstHalf = _dadDna / 100000000;\r\n    uint256 secondHalf = _momDna % 100000000;\r\n\r\n    uint256 newDna = firstHalf * 100000000;\r\n    newDna = newDna + secondHalf;\r\n    return newDna;\r\n  }\r\n\r\n  function _newGeneration(uint256 _dadGen, uint256 _momGen) private pure returns (uint256) {\r\n    return (_dadGen >= _momGen ? _dadGen + 1 : _momGen + 1);\r\n  }\r\n\r\n  function _owns(address _claimant, uint256 _tokenId) private view returns (bool) {\r\n    return _claimant == dragonOwners[_tokenId];\r\n  }\r\n}\r\n",
  "sourcePath": "C:\\Crypto-Dragons\\contracts\\Dragoncontract.sol",
  "compiler": {
    "name": "solc",
    "version": "0.5.12+commit.7709ece9.Emscripten.clang"
  },
  "schemaVersion": "3.2.0",
  "updatedAt": "2021-06-02T13:56:15.602Z",
  "networkType": "ethereum",
  "devdoc": {
    "methods": {}
  },
  "userdoc": {
    "methods": {}
  }
}