{
  "contractName": "DragonMarketplace",
  "abi": [
    {
      "inputs": [
        {
          "internalType": "address",
          "name": "dragonContract",
          "type": "address"
        }
      ],
      "payable": false,
      "stateMutability": "nonpayable",
      "type": "constructor"
    },
    {
      "anonymous": false,
      "inputs": [
        {
          "indexed": false,
          "internalType": "string",
          "name": "TxType",
          "type": "string"
        },
        {
          "indexed": false,
          "internalType": "address",
          "name": "owner",
          "type": "address"
        },
        {
          "indexed": false,
          "internalType": "uint256",
          "name": "tokenId",
          "type": "uint256"
        }
      ],
      "name": "MarketTransaction",
      "type": "event"
    },
    {
      "constant": false,
      "inputs": [
        {
          "internalType": "address",
          "name": "_dragonContractAddress",
          "type": "address"
        }
      ],
      "name": "setDragonContract",
      "outputs": [],
      "payable": false,
      "stateMutability": "nonpayable",
      "type": "function"
    },
    {
      "constant": true,
      "inputs": [
        {
          "internalType": "uint256",
          "name": "_tokenId",
          "type": "uint256"
        }
      ],
      "name": "getOffer",
      "outputs": [
        {
          "internalType": "address",
          "name": "seller",
          "type": "address"
        },
        {
          "internalType": "uint256",
          "name": "price",
          "type": "uint256"
        },
        {
          "internalType": "uint256",
          "name": "index",
          "type": "uint256"
        },
        {
          "internalType": "uint256",
          "name": "tokenId",
          "type": "uint256"
        },
        {
          "internalType": "bool",
          "name": "active",
          "type": "bool"
        }
      ],
      "payable": false,
      "stateMutability": "view",
      "type": "function"
    },
    {
      "constant": true,
      "inputs": [
        {
          "internalType": "uint256",
          "name": "_tokenId",
          "type": "uint256"
        }
      ],
      "name": "getActiveStatus",
      "outputs": [
        {
          "internalType": "bool",
          "name": "active",
          "type": "bool"
        }
      ],
      "payable": false,
      "stateMutability": "view",
      "type": "function"
    },
    {
      "constant": true,
      "inputs": [],
      "name": "getAllTokenOnSale",
      "outputs": [
        {
          "internalType": "uint256[]",
          "name": "listOfOffers",
          "type": "uint256[]"
        }
      ],
      "payable": false,
      "stateMutability": "view",
      "type": "function"
    },
    {
      "constant": false,
      "inputs": [
        {
          "internalType": "uint256",
          "name": "_price",
          "type": "uint256"
        },
        {
          "internalType": "uint256",
          "name": "_tokenId",
          "type": "uint256"
        }
      ],
      "name": "setOffer",
      "outputs": [],
      "payable": false,
      "stateMutability": "nonpayable",
      "type": "function"
    },
    {
      "constant": false,
      "inputs": [
        {
          "internalType": "uint256",
          "name": "_tokenId",
          "type": "uint256"
        }
      ],
      "name": "removeOffer",
      "outputs": [],
      "payable": false,
      "stateMutability": "nonpayable",
      "type": "function"
    },
    {
      "constant": false,
      "inputs": [
        {
          "internalType": "uint256",
          "name": "_tokenId",
          "type": "uint256"
        }
      ],
      "name": "buyDragon",
      "outputs": [],
      "payable": true,
      "stateMutability": "payable",
      "type": "function"
    }
  ],
  "bytecode": "0x608060405234801561001057600080fd5b5060405161146d38038061146d8339818101604052602081101561003357600080fd5b8101908080519060200190929190505050336000806101000a81548173ffffffffffffffffffffffffffffffffffffffff021916908373ffffffffffffffffffffffffffffffffffffffff1602179055506100938161009960201b60201c565b50610182565b3373ffffffffffffffffffffffffffffffffffffffff166000809054906101000a900473ffffffffffffffffffffffffffffffffffffffff1673ffffffffffffffffffffffffffffffffffffffff161461013e576040517f08c379a00000000000000000000000000000000000000000000000000000000081526004018080602001828103825260268152602001806114476026913960400191505060405180910390fd5b80600160006101000a81548173ffffffffffffffffffffffffffffffffffffffff021916908373ffffffffffffffffffffffffffffffffffffffff16021790555050565b6112b6806101916000396000f3fe6080604052600436106100705760003560e01c80638d1597871161004e5780638d159787146101cd578063941b055b146101fb57806395a0f9c714610240578063ecc6b2fd1461027b57610070565b8063039f14b0146100755780634579268a146100c657806349b3709f14610161575b600080fd5b34801561008157600080fd5b506100c46004803603602081101561009857600080fd5b81019080803573ffffffffffffffffffffffffffffffffffffffff1690602001909291905050506102ce565b005b3480156100d257600080fd5b506100ff600480360360208110156100e957600080fd5b81019080803590602001909291905050506103b7565b604051808673ffffffffffffffffffffffffffffffffffffffff1673ffffffffffffffffffffffffffffffffffffffff168152602001858152602001848152602001838152602001821515151581526020019550505050505060405180910390f35b34801561016d57600080fd5b50610176610475565b6040518080602001828103825283818151815260200191508051906020019060200280838360005b838110156101b957808201518184015260208101905061019e565b505050509050019250505060405180910390f35b6101f9600480360360208110156101e357600080fd5b8101908080359060200190929190505050610555565b005b34801561020757600080fd5b5061023e6004803603604081101561021e57600080fd5b8101908080359060200190929190803590602001909291905050506108c9565b005b34801561024c57600080fd5b506102796004803603602081101561026357600080fd5b8101908080359060200190929190505050610e27565b005b34801561028757600080fd5b506102b46004803603602081101561029e57600080fd5b8101908080359060200190929190505050611017565b604051808215151515815260200191505060405180910390f35b3373ffffffffffffffffffffffffffffffffffffffff166000809054906101000a900473ffffffffffffffffffffffffffffffffffffffff1673ffffffffffffffffffffffffffffffffffffffff1614610373576040517f08c379a00000000000000000000000000000000000000000000000000000000081526004018080602001828103825260268152602001806111a16026913960400191505060405180910390fd5b80600160006101000a81548173ffffffffffffffffffffffffffffffffffffffff021916908373ffffffffffffffffffffffffffffffffffffffff16021790555050565b60008060008060006003600087815260200190815260200160002060000160009054906101000a900473ffffffffffffffffffffffffffffffffffffffff1660036000888152602001908152602001600020600101546003600089815260200190815260200160002060020154600360008a815260200190815260200160002060030154600360008b815260200190815260200160002060040160009054906101000a900460ff168494509450945094509450945091939590929450565b6060806002805490506040519080825280602002602001820160405280156104ac5781602001602082028038833980820191505090505b509050600080905060008090505b60028054905081101561054c5760011515600282815481106104d857fe5b906000526020600020906005020160040160009054906101000a900460ff161515141561053f576002818154811061050c57fe5b90600052602060002090600502016003015483838151811061052a57fe5b60200260200101818152505081806001019250505b80806001019150506104ba565b50819250505090565b61055d6110fd565b600360008381526020019081526020016000206040518060a00160405290816000820160009054906101000a900473ffffffffffffffffffffffffffffffffffffffff1673ffffffffffffffffffffffffffffffffffffffff1673ffffffffffffffffffffffffffffffffffffffff1681526020016001820154815260200160028201548152602001600382015481526020016004820160009054906101000a900460ff161515151581525050905034816020015114610668576040517f08c379a000000000000000000000000000000000000000000000000000000000815260040180806020018281038252603481526020018061124e6034913960400191505060405180910390fd5b80608001516106c2576040517f08c379a00000000000000000000000000000000000000000000000000000000081526004018080602001828103825260238152602001806111456023913960400191505060405180910390fd5b6106cb82611044565b60008160200151111561072857806000015173ffffffffffffffffffffffffffffffffffffffff166108fc82602001519081150290604051600060405180830381858888f19350505050158015610726573d6000803e3d6000fd5b505b600160009054906101000a900473ffffffffffffffffffffffffffffffffffffffff1673ffffffffffffffffffffffffffffffffffffffff166342842e0e826000015133856040518463ffffffff1660e01b8152600401808473ffffffffffffffffffffffffffffffffffffffff1673ffffffffffffffffffffffffffffffffffffffff1681526020018373ffffffffffffffffffffffffffffffffffffffff1673ffffffffffffffffffffffffffffffffffffffff1681526020018281526020019350505050600060405180830381600087803b15801561080957600080fd5b505af115801561081d573d6000803e3d6000fd5b505050507fd99e4fad9ad6313b1feb588fa8e605e3a9873172f2024330c35dd2b4041a4386338360405180806020018473ffffffffffffffffffffffffffffffffffffffff1673ffffffffffffffffffffffffffffffffffffffff168152602001838152602001828103825260128152602001807f546f6b656e204944207075726368617365640000000000000000000000000000815250602001935050505060405180910390a15050565b600160009054906101000a900473ffffffffffffffffffffffffffffffffffffffff1673ffffffffffffffffffffffffffffffffffffffff1663e21fd9fc33836040518363ffffffff1660e01b8152600401808373ffffffffffffffffffffffffffffffffffffffff1673ffffffffffffffffffffffffffffffffffffffff1681526020018281526020019250505060206040518083038186803b15801561097057600080fd5b505afa158015610984573d6000803e3d6000fd5b505050506040513d602081101561099a57600080fd5b8101908080519060200190929190505050610a00576040517f08c379a00000000000000000000000000000000000000000000000000000000081526004018080602001828103825260248152602001806111fa6024913960400191505060405180910390fd5b6003600082815260200190815260200160002060040160009054906101000a900460ff1615610a7a576040517f08c379a00000000000000000000000000000000000000000000000000000000081526004018080602001828103825260398152602001806111686039913960400191505060405180910390fd5b600160009054906101000a900473ffffffffffffffffffffffffffffffffffffffff1673ffffffffffffffffffffffffffffffffffffffff1663e985e9c533306040518363ffffffff1660e01b8152600401808373ffffffffffffffffffffffffffffffffffffffff1673ffffffffffffffffffffffffffffffffffffffff1681526020018273ffffffffffffffffffffffffffffffffffffffff1673ffffffffffffffffffffffffffffffffffffffff1681526020019250505060206040518083038186803b158015610b4d57600080fd5b505afa158015610b61573d6000803e3d6000fd5b505050506040513d6020811015610b7757600080fd5b8101908080519060200190929190505050610bdd576040517f08c379a000000000000000000000000000000000000000000000000000000000815260040180806020018281038252603081526020018061121e6030913960400191505060405180910390fd5b610be56110fd565b6040518060a001604052803373ffffffffffffffffffffffffffffffffffffffff1681526020018481526020016002805490508152602001838152602001600115158152509050806003600084815260200190815260200160002060008201518160000160006101000a81548173ffffffffffffffffffffffffffffffffffffffff021916908373ffffffffffffffffffffffffffffffffffffffff16021790555060208201518160010155604082015181600201556060820151816003015560808201518160040160006101000a81548160ff0219169083151502179055509050506002819080600181540180825580915050906001820390600052602060002090600502016000909192909190915060008201518160000160006101000a81548173ffffffffffffffffffffffffffffffffffffffff021916908373ffffffffffffffffffffffffffffffffffffffff16021790555060208201518160010155604082015181600201556060820151816003015560808201518160040160006101000a81548160ff0219169083151502179055505050507fd99e4fad9ad6313b1feb588fa8e605e3a9873172f2024330c35dd2b4041a4386338360405180806020018473ffffffffffffffffffffffffffffffffffffffff1673ffffffffffffffffffffffffffffffffffffffff1681526020018381526020018281038252600d8152602001807f4f66666572204372656174656400000000000000000000000000000000000000815250602001935050505060405180910390a1505050565b610e2f6110fd565b600360008381526020019081526020016000206040518060a00160405290816000820160009054906101000a900473ffffffffffffffffffffffffffffffffffffffff1673ffffffffffffffffffffffffffffffffffffffff1673ffffffffffffffffffffffffffffffffffffffff1681526020016001820154815260200160028201548152602001600382015481526020016004820160009054906101000a900460ff16151515158152505090503373ffffffffffffffffffffffffffffffffffffffff16816000015173ffffffffffffffffffffffffffffffffffffffff1614610f66576040517f08c379a00000000000000000000000000000000000000000000000000000000081526004018080602001828103825260338152602001806111c76033913960400191505060405180910390fd5b610f6f82611044565b7fd99e4fad9ad6313b1feb588fa8e605e3a9873172f2024330c35dd2b4041a4386338360405180806020018473ffffffffffffffffffffffffffffffffffffffff1673ffffffffffffffffffffffffffffffffffffffff1681526020018381526020018281038252600d8152602001807f4f666665722072656d6f76656400000000000000000000000000000000000000815250602001935050505060405180910390a15050565b60006003600083815260200190815260200160002060040160009054906101000a900460ff169050919050565b60036000828152602001908152602001600020600080820160006101000a81549073ffffffffffffffffffffffffffffffffffffffff02191690556001820160009055600282016000905560038201600090556004820160006101000a81549060ff02191690555050600060026003600084815260200190815260200160002060020154815481106110d257fe5b906000526020600020906005020160040160006101000a81548160ff02191690831515021790555050565b6040518060a00160405280600073ffffffffffffffffffffffffffffffffffffffff168152602001600081526020016000815260200160008152602001600015158152509056fe5468657265206973206e6f206f6666657220666f72207468697320746f6b656e204944596f752063616e6e6f742068617665206d6f7265207468656e206f6e65206f6666657220666f72206120746f6b656e20617420612074696d65596f7520617265206e6f7420746865206f776e6572206f66207468697320636f6e74726163744f6e6c79207468652073656c6c6572206f662074686520546f6b656e2049642063616e2072656d6f766520616e206f66666572596f7520617265206e6f7420746865206f776e6572206f662074686520746f6b656e49644d61726b6574706c61636520636f6e7472616374206973206e6f7420616e20617070726f766564206f70657261746f72546865207072696365206e6565647320746f20626520657175616c20746f20746865206f66666572206f6620546f6b656e204944a265627a7a723158200b0f8623a47d6d530cda3b5aed1534c4af997131848d0ba61f976f37af3671e964736f6c634300050c0032596f7520617265206e6f7420746865206f776e6572206f66207468697320636f6e7472616374",
  "source": "pragma solidity ^0.5.0;\r\n\r\nimport \"./Dragoncontract.sol\";\r\nimport \"./Ownable.sol\";\r\nimport \"./IDragonMarketplace.sol\";\r\n\r\ncontract DragonMarketplace is Ownable, IDragonMarketplace {\r\n  Dragoncontract private _dragonContract;\r\n\r\n  struct Offer {\r\n    address payable seller;\r\n    uint256 price;\r\n    uint256 index;\r\n    uint256 tokenId;\r\n    bool active;\r\n  }\r\n\r\n  constructor(address dragonContract) public {\r\n    setDragonContract(dragonContract);\r\n  }\r\n\r\n  Offer[] offers;\r\n\r\n  mapping(uint256 => Offer) tokenIdToOffer;\r\n\r\n  function setDragonContract(address _dragonContractAddress) public onlyOwner {\r\n    _dragonContract = Dragoncontract(_dragonContractAddress);\r\n  }\r\n\r\n  function getOffer(uint256 _tokenId) external view returns (address seller, uint256 price, uint256 index, uint256 tokenId, bool active) {\r\n    return (tokenIdToOffer[_tokenId].seller, tokenIdToOffer[_tokenId].price, tokenIdToOffer[_tokenId].index, tokenIdToOffer[_tokenId].tokenId, tokenIdToOffer[_tokenId].active);\r\n  }\r\n\r\n  function getActiveStatus(uint256 _tokenId) external view returns (bool active) {\r\n    return tokenIdToOffer[_tokenId].active;\r\n  }\r\n\r\n  function getAllTokenOnSale() external view returns(uint256[] memory listOfOffers) {\r\n    uint256[] memory tokensForSale = new uint256[](offers.length);\r\n    uint256 counter = 0;\r\n    for(uint256 i = 0; i < offers.length; i++) {\r\n      if(offers[i].active == true) {\r\n        tokensForSale[counter] = offers[i].tokenId;\r\n        counter++;\r\n      }\r\n    }\r\n    return tokensForSale;\r\n  }\r\n\r\n  function setOffer(uint256 _price, uint256 _tokenId) external {\r\n    require(_dragonContract._owns(msg.sender, _tokenId), \"You are not the owner of the tokenId\");\r\n    require(!tokenIdToOffer[_tokenId].active, \"You cannot have more then one offer for a token at a time\");\r\n    require(_dragonContract.isApprovedForAll(msg.sender, address(this)), \"Marketplace contract is not an approved operator\");\r\n\r\n    Offer memory _newOffer = Offer(msg.sender, _price, offers.length, _tokenId, true);\r\n    tokenIdToOffer[_tokenId] = _newOffer;\r\n    offers.push(_newOffer);\r\n\r\n    emit MarketTransaction(\"Offer Created\", msg.sender, _tokenId);\r\n  }\r\n\r\n    function removeOffer(uint256 _tokenId) external {\r\n      Offer memory offer = tokenIdToOffer[_tokenId];\r\n\r\n      require(offer.seller == msg.sender, \"Only the seller of the Token Id can remove an offer\");\r\n\r\n      _offerRemove(_tokenId);\r\n\r\n      emit MarketTransaction(\"Offer removed\", msg.sender, _tokenId);\r\n    }\r\n\r\n    function buyDragon(uint256 _tokenId) external payable {\r\n      Offer memory offer = tokenIdToOffer[_tokenId];\r\n\r\n      require(offer.price == msg.value, \"The price needs to be equal to the offer of Token ID\");\r\n      require(offer.active, \"There is no offer for this token ID\");\r\n\r\n      _offerRemove(_tokenId);\r\n\r\n      if(offer.price > 0) {\r\n        offer.seller.transfer(offer.price);\r\n      }\r\n\r\n      _dragonContract.safeTransferFrom(offer.seller, msg.sender, _tokenId);\r\n\r\n      emit MarketTransaction(\"Token ID purchased\", msg.sender, _tokenId);\r\n    }\r\n\r\n    function _offerRemove(uint256 _tokenId) private {\r\n      delete tokenIdToOffer[_tokenId];\r\n      offers[tokenIdToOffer[_tokenId].index].active = false;\r\n    }\r\n}\r\n",
  "sourcePath": "C:\\Markus-Dragons\\contracts\\DragonMarketplace.sol",
  "compiler": {
    "name": "solc",
    "version": "0.5.12+commit.7709ece9.Emscripten.clang"
  },
  "schemaVersion": "3.2.0",
  "updatedAt": "2021-06-29T08:47:44.944Z",
  "networkType": "ethereum",
  "devdoc": {
    "methods": {}
  },
  "userdoc": {
    "methods": {}
  }
}